:020000040000FA
:10000000380E0020F104000021420000554100009C
:10001000DD410000A1050000755100000000000056
:1000200000000000000000000000000003050000C8
:10003000050500000000000007050000090500009C
:10004000A93200000B0500000B0500000B050000A5
:100050000B0500000B0500000B0500000B05000060
:100060000B0500000B0500000B0500000B05000050
:100070000B0500000B0500000B0500000B05000040
:100080000B0500000B0500000B0500000B05000030
:100090000B0500000B0500000B0500000B05000020
:1000A0000B0500000B0500000B0500000B05000010
:1000B0000B0500000B0500000B0500000B05000000
:1000C0000B0500000B0500000B0500000B050000F0
:1000D0000B0500000B0500000B0500000B050000E0
:1000E0000B0500000B0500000B0500000B050000D0
:1000F0000B0500000B0500000B0500000B050000C0
:100100000B0500000B0500000B0500000B050000AF
:100110000B0500000B0500000B0500000B0500009F
:100120000B0500000B0500000B0500000B0500008F
:100130000B0500000B0500000B0500000B0500007F
:100140000B0500000B0500000B0500000B0500006F
:100150000B050000894600000B0500000B050000A0
:100160000B0500000B0500000B0500000B0500004F
:10017000D1390000BD390000A13900000B05000095
:100180000B0500000B0500000B0500000B0500002F
:100190000B0500000B0500000B0500000B0500001F
:1001A0000B0500000B0500000B0500000B0500000F
:1001B0000B0500000B0500000B0500000B050000FF
:10040000FFFFFFFFFFFFFFFFFFFFFFFFFEFFFFFFFD
:1004100000F002F800F05AF80AA090E8000C8244BC
:100420008344AAF10107DA4501D100F04FF8AFF299
:10043000090EBAE80F0013F0010F18BFFB1A43F0C2
:1004400001031847345E0000545E00000A444FF078
:10045000000C10F8013B13F0070408BF10F8014B23
:100460001D1108BF10F8015B641E05D010F8016B68
:10047000641E01F8016BF9D113F0080F1EBF10F8CC
:10048000014BAD1C0C1B09D16D1E58BF01F801CBEF
:10049000FAD505E014F8016B01F8016B6D1EF9D572
:1004A0009142D6D370470000002300240025002687
:1004B000103A28BF78C1FBD8520728BF30C148BFC7
:1004C0000B6070471FB51FBD10B510BD00F031F8AF
:1004D0001146FFF7F7FF05F037F800F04FF803B4C7
:1004E000FFF7F2FF03BC00F053F800007047000074
:1004F0000948804709480047FEE7FEE7FEE7FEE7B8
:10050000FEE7FEE7FEE7FEE7FEE7FEE704480549F3
:10051000034A054B70470000254B00001104000002
:10052000380A0020380E0020380A00207047704733
:100530007047754600F028F8AE46050069465346F8
:1005400020F00700854618B020B5FFF7DFFFBDE8B3
:1005500020404FF000064FF000074FF000084FF02A
:10056000000B21F00701AC46ACE8C009ACE8C009BB
:10057000ACE8C009ACE8C0098D4670470446AFF34B
:1005800000802046FFF7ABFF00487047D8090020E5
:1005900001491820ABBEFEE72600020070470000AC
:1005A00010B500210B4803F01DFA00210A4803F0A2
:1005B00019FA00210848C13003F014FA0021074855
:1005C00003F010FA012006498860C860FFF78EFF2B
:1005D00010BD000030060C0040070C0011090C0093
:1005E0000010FE4300B589B0FE4800686421B0FBEE
:1005F000F1F201FB120018B1FA480068962802D8FF
:100600000020F949C864F7480068052801D809B0F6
:1006100000BDF6480078F64908700020F5490870DA
:10062000FA20F24908700A2008901EE0F249089862
:10063000085CEE490978884204DAEF490898085CBA
:10064000EA490870EC490898085CEA490978884248
:1006500007DDE9490898085CE6490870E749089809
:1006600008700898401CC0B2089008987828DDDD12
:10067000E2480078801EE049095CDF4ADF480078E4
:10068000801C105C0144DD480078401E105C014471
:10069000DA480078401C105C08441146D74A1278AA
:1006A000895C0844052190FBF1F0D2490870CF48DD
:1006B0000078282802DA2820CC490870CB48007836
:1006C00005F022F94FF06632CD4BCDE9000105F07F
:1006D0006BF9CDE90401C748007805F015F94FF032
:1006E0003332C84BCDE9000105F05EF9CDE90201D6
:1006F000DDE9042305F010F8CDE9060105F0C0F8A6
:10070000C1490870C148C078C0490871084680785E
:10071000C870084640788870084600784870BA4823
:1007200000780870BA48007818B9B7480078B84916
:100730000870B8480078089022E0B7490898087017
:100740000898801EAC49095CAB4A0898105C081AEE
:10075000082811DB0898C01E1146095C0898401E45
:10076000105C081A082807DB11460898085CA6499F
:100770000978884200DC06E00898401CC0B2089066
:1007800008987A28D9DD00BFA2480078089022E0B6
:10079000A2490898087098490898801C095C964AF4
:1007A0000898105C081A082811DB11460898C01C2C
:1007B000095C0898401C105C081A082807DB1146E1
:1007C0000898085C90490978884200DC06E008989F
:1007D000401EC0B2089008980628D9DA00BF8F489A
:1007E0000078062812D08C4800787A280ED08C48E1
:1007F000007858B98848007888490978401A0790E5
:1008000000EBD070C0F34700864908708348007839
:10081000062865D0804800787A2861D17D48007824
:10082000089022E07C49089808700898001F7249D7
:10083000095C714A0898105C081A082811DB0898AE
:10084000401F1146095C0898401E105C081A0828D1
:1008500007DB11460898085C6B490978884200DC80
:1008600006E00898401CC0B2089008987A28D9DDA4
:1008700000BF694800787A280CD06748007867493B
:1008800009780844079000EBD070C0F34700664930
:10089000087025E061480078624909780844624997
:1008A000087008460078802801DD802008705A48CA
:1008B00000785A4909780844079000EBD0705A49EB
:1008C0000978B1EB600F0BDA534800785349097887
:1008D0000844079000EBD070C0F3470052490870FD
:1008E0004E480078062869D14B4800787A2865D0B0
:1008F00048480078089022E04849089808703E4926
:100900000898001D095C3C4A0898105C081A0828E1
:1009100011DB11460898401D095C0898401C105CCA
:10092000081A082807DB11460898085C3649097838
:10093000884200DC06E00898401EC0B20890089883
:100940000628D9DA00BF3548007806280CD032488E
:100950000078324909780844079000EBD070C0F362
:1009600047003149087029E02B4800782D49097863
:10097000884207DB284800782A490978401A2A4922
:10098000087002E0002028490870234800782349B5
:1009900009780844079000EBD07023490978B1EB3F
:1009A000600F0BDD1C4800781C490978084407904B
:1009B00000EBD070C0F347001B490870174800785F
:1009C000062834D0144800787A2830D013480078AC
:1009D000114909780844079000EBD070C0F3470034
:1009E000114923E0080000200000FE4355000020CC
:1009F0005300002054000020B80100208100002096
:100A00006666E63F3333D33F490000206200002092
:100A10006700002056000020FE000020FD0000209E
:100A20002B0000204D000020480000200870FC48EA
:100A30000078FC490978401A0F282BDBFA48007827
:100A4000052827DCF948007820BBF9480078C82839
:100A500020DA4020F74908700F20F449087014206C
:100A6000F5490880F5490870F5480079402806DC0A
:100A7000F3484079402802DC0120F2490870F04830
:100A80000079402806DDEE484079402802DD02204A
:100A9000EC490870EC480078062809D1EB4800784A
:100AA0007A2805D1EA48007810B90120E949087090
:100AB000E848007801287DD1E7480078089025E0D3
:100AC000E2490898087008980838E449095CE34A44
:100AD0000898105C081A0A2814DB0898093811468F
:100AE000095C0898401E105C081A0A280ADB1146A7
:100AF0000898085CCA490978884203DC0020D54977
:100B0000087006E00898401CC0B2089008987A283F
:100B1000D6DD00BFD0480078089025E0CA49089883
:100B20000870CE4908980830095CCC4A0898105CD7
:100B3000081A0A2814DB114608980830095C08983E
:100B4000401C105C081A0A280ADB11460898085C49
:100B5000B3490978884203DC0020BE49087006E0EA
:100B60000898401EC0B2089008980628D6DA00BF40
:100B7000B548007806282BD0B44800787A2827D1C9
:100B8000B1480078B64909780844AA49087008466F
:100B90000078802801DD80200870AC480078AA49E0
:100BA00009780844079000EBD070A2490978B1EBAE
:100BB000600F00E06EE00BDAA4480078A2490978E3
:100BC0000844079000EBD070C0F3470099490870C3
:100BD0009D48007806282DD19C4800787A2829D095
:100BE0009A4800789E490978884207DB9748007840
:100BF0009B490978401A8F49087002E000208D490E
:100C000008709248007890490978084400EBD07148
:100C1000079088480078B0EB610F0BDD8B480078B7
:100C2000894909780844079000EBD070C0F3470069
:100C3000804908708448007806280FD083480078DF
:100C40007A280BD0804800788049097808440790BA
:100C500000EBD070C0F34701764801707A48007805
:100C6000062817D1794800787A2813D101207849CD
:100C7000087000207749087071480078402802DA2F
:100C80000120784908706E480078402802DB022075
:100C9000744908706E48007801284CD16248007889
:100CA000401C6149087070480078682810DB6D4866
:100CB000007801280CD102206A4908706048007849
:100CC000322805DA5E480078142801DD012008701A
:100CD00065480078182810DC6248007802280CD19A
:100CE000012060490870564800784E2805DD5448B8
:100CF00000786C2801DA022008705A480078012830
:100D00000AD152480078402803DB00204949087086
:100D100002E000204E4908705248007802280AD1AB
:100D200049480078402803DC80204249087002E0EE
:100D30000020474908704648007810B900203A4919
:100D400008703A480078002869DD38480078401E6D
:100D50003649087000203E4908703A48007801285A
:100D600056D11420089022E0384908980870089855
:100D7000C01E3A49095C394A0898105C081A0828CC
:100D800011DB0898001F1146095C0898401E105C92
:100D9000081A082807DB11460898085C21490978D9
:100DA000884200DC06E00898401CC0B20890089811
:100DB0006E28D9DD00BF25480078C01EC0B208905B
:100DC00022E021490898087024490898C01C095C51
:100DD000224A0898105C081A082811DB1146089866
:100DE000001D095C0898401C105C081A082807DBE5
:100DF00011460898085C0B490978884200DC06E037
:100E00000898401EC0B2089008981428D9DA00BF8C
:100E10000C48007802287ED16E20089049E0FFE05F
:100E200049000020670000206800002051000020D9
:100E300018000020480000207A00002079000020DF
:100E40005700002052000020FD000020FE0000207E
:100E5000610000204E00002056000020B801002054
:100E60004D0000204F00002015000020FE4908988A
:100E70000870FE490898C01C095CFC4A0898105C80
:100E8000081A082811DB11460898001D095C08980B
:100E9000401C105C081A082807DB11460898085CFB
:100EA000F3490978884200DC06E00898401EC0B289
:100EB000089008981428D9DA00BFEB480078C01CC5
:100EC000C0B2089023E0EB49089808700898C01E4B
:100ED000E649095CE54A0898105C081A082812DB04
:100EE0000898001F1146095C0898401E105C081AFB
:100EF000082808DB11460898085CDD490978884213
:100F000001DC07E007E00898401CC0B20890089890
:100F10006E28D8DD00BFD4480078142834D1D548D5
:100F200000786E2830D0D3480078D34909788842B9
:100F300007DBD0480078D0490978401ACF490870BB
:100F400002E00020CD490870CA480078C6490978F7
:100F50000844079000EBD070C8490978B1EB600FE6
:100F60000BDDC4480078C04909780844079000EBBD
:100F7000D070C0F34700C1490870BE4800785428BB
:100F800002DC0020BE490870BA4800786E2830D1D3
:100F9000B548007814282CD0B3480078B6490978B1
:100FA0000844B649087008460078802801DD802092
:100FB0000870B0480078AC4909780844079000EB05
:100FC000D070AE490978B1EB600F0BDAA948007810
:100FD000A54909780844079000EBD070C0F347009A
:100FE000A6490870A04800782C2802DB0020A449FC
:100FF0000870A04800786E2812D09B48007814280A
:101000000ED0994800789B4909780844079000EB76
:10101000D070C0F3470099490870002098490870C3
:101020009848007898490870002098490870FF2077
:10103000944908700C2008901EE095490898085CB7
:1010400090490978884204DA91490898085C8D49EA
:1010500008708F490898085C8C490978884207DD38
:101060008B490898085C894908708A490898087073
:101070000898401CC0B2089008987628DDDD8148A9
:101080000078232802DA23207E49087081480078FE
:10109000C01E7F490A5C7F480078C01C085C104471
:1010A000079000EBD070C0F34700784908700846FD
:1010B0000078400073490978032212FB01000521E2
:1010C00090FBF1F0744908707448C0787349087156
:1010D00008468078C87008464078887008460078CE
:1010E00048706D48007808706D48007818B96A48F3
:1010F00000786B4908706B480078089022E06A49D4
:101100000898087062490898801C095C604A089831
:10111000105C081A0C2811DB11460898C01C095CE9
:101120000898401C105C081A0C2807DB1146089828
:10113000085C59490978884200DC06E00898401E9E
:10114000C0B2089008980628D9DA00BF5548007840
:10115000089022E05549089808700898801E4C496C
:10116000095C4B4A0898105C081A0C2811DB089897
:10117000C01E1146095C0898401E105C081A0C2815
:1011800007DB11460898085C43490978884200DC6F
:1011900006E00898401CC0B2089008987A28D9DD6B
:1011A00000BF43480078B0B9424800782C2812DBD1
:1011B0004048007854280EDC3B48007808280ADBB9
:1011C0003A480078782806DC3848007836490978AB
:1011D000401A394908703448007806280FD033483F
:1011E00000787A280BD030480078304909780844D4
:1011F000079000EBD070C0F347002E4908702A48D2
:101200000078062860D1294800787A285CD02A48DE
:101210000078079000EBD07024490978B1EB600F9B
:101220000BDB25480078079000EBD0701F49097848
:10123000A1EB60001F49087002E000201D49087002
:101240001A480078184909780844079000EBD070D4
:1012500018490978B1EB600F36DD1448007812495F
:1012600009780844079029E0FD000020B80100201B
:1012700067000020FE0000204D00002048000020F4
:1012800051000020190000201A0000201800002042
:1012900038010020800000201600002037000020C8
:1012A000170000201E000020FB000020FC00002092
:1012B0002B000020150000201D00002000EBD07046
:1012C000C0F34700F7490870F74800787A282DD115
:1012D000F6480078062829D0F5480078079000EBFA
:1012E000D070F249097801EB6000EE4908700846B9
:1012F0000078802801DD80200870EB480078EB49F9
:1013000009780844079000EBD070E6490978B1EB02
:10131000600F0BDAE4480078E44909780844079044
:1013200000EBD070C0F34700DE490870E148007858
:10133000F0BBE1480088D8BBE049DC480078801D5C
:10134000095CD9480078801FDC4A105C0144D7480A
:101350000078401D105C0144D3480078401F105CA9
:101360000844C117079000EB9170C0F38700D4497F
:101370000870CE480078801F1146095CCA48007882
:10138000801D105C0844079000EBD070C0F347004C
:10139000CC49087008460078C949097800EB8100FB
:1013A000052190FBF1F0C8490870C848007800E0BA
:1013B00098E0089022E0C649089808700898801EB6
:1013C000BE49095CBD4A0898105C081A082811DB60
:1013D0000898C01E1146095C0898401E105C081A47
:1013E000082807DB11460898085CB7490978884245
:1013F00000DC06E00898401CC0B2089008987A28E3
:10140000D9DD00BFB1480078089022E0B1490898C2
:101410000870AA490898801C095CA84A0898105CC2
:10142000081A082811DB11460898C01C095C0898A6
:10143000401C105C081A082807DB11460898085C55
:10144000A1490978884200DC06E00898401EC0B235
:10145000089008980628D9DA00BF9E48007893497A
:101460000978401A0A283DDD9A480078402839DA80
:1014700097480078402835DD8B48007894490978F2
:10148000401A0A282EDD9448008800EBC00101EBC9
:10149000001092490968B1EB800F23D301209049D5
:1014A000087037208F4908708F4800888F49098855
:1014B0000844B0F5BE7F0ADA8B4800888B4909885A
:1014C0000844B0F5AF7F02DB3220864908708648B9
:1014D0000088864909880844B0F5BE7F02DB2820D1
:1014E000804908707F480078002804DD7D48007836
:1014F000401E7C4908707E4800787E490978401A71
:101500000F285BDB674800780A2857DD65480078BC
:10151000762853DA78480078C8284FDA7748007878
:10152000F0BB192064490880002075490870192013
:101530007449087074480078D8B90120724908705D
:101540000F206E49087071480079402806DC6F480A
:101550004079402802DC01206D4908706B48007911
:10156000402806DD69484079402802DD02206849AC
:1015700008706248007898B96348007801281DD146
:101580000020614908700F205C4908705F480079AD
:10159000402808DC5D484079402804DC012000E058
:1015A0000CE05B49087059480079402806DD57482F
:1015B0004079402802DD0220554908703B480078F8
:1015C000062811D1384800787A280DD101205149D8
:1015D00008704E484078402803DC01204E490870CE
:1015E00002E002204C49087030480078062803D1F8
:1015F0002D4800787A2810D03F480078474909786C
:10160000401A0F2809DB43480078012805D1002043
:10161000404908700120424908703E48007801287E
:101620003FD13A4800781F490870084600782328BF
:101630000DDC3248007850B934480078C01E08707C
:1016400008460078002818DC0020087015E01548CE
:1016500000782C2811DC3348007821280DDC27483D
:10166000007850B929480078C01E0E490870084615
:101670000078002801DC002008700A4800785D2806
:1016800052DB1E48007858B920480078C01C054934
:1016900008700846007880285CDB8020087059E0DC
:1016A00042E0D9E015000020FC000020FB000020F3
:1016B0001D0000202B0000207A00002038010020AF
:1016C0003E0000203F000020470000201E000020B8
:1016D00041000020400000204400002008000020BD
:1016E00042000020460000209A00002098000020C0
:1016F0001600002017000020180000202000002005
:1017000024000020790000201F0000202C00002071
:1017100036000020220000203D000020190000209B
:101720002300002069000020FB480078542811DBCA
:10173000FA4800785F280DDBF948007850B9F9487D
:101740000078C01CF449087008460078802801DB46
:1017500080200870F4480078F4490978401A142869
:1017600006DCF3480078F3490978401A142873DB43
:10177000F1480078089022E0EC4908980870EF4999
:101780000898801D095CED4A0898105C081A0F281B
:1017900011DB11460898C01D095C0898401C105CBC
:1017A000081A0F2807DB11460898085CE4490978F5
:1017B000884200DC06E00898401EC0B208900898F5
:1017C0000628D9DA00BFDC480078089022E0D84922
:1017D000089808700898801FD849095CD74A08986B
:1017E000105C081A0F2811DB0898C01F1146095C0D
:1017F0000898401E105C081A0F2807DB114608984D
:10180000085CCF490978884200DC06E00898401C53
:10181000C0B2089008987A28D9DD00BFC348007884
:10182000062836D1C24800787A2832D0C5480078D8
:10183000079000EBD070BE490978B1EB600F0CDB6C
:10184000C0480078079000EBD070B9490978A1EB47
:101850006000B149087003E0A1E00020AE490870C3
:10186000B3480078B14909780844079000EBD0707C
:10187000A9490978B1EB600F0BDDAD480078AB49A1
:1018800009780844079000EBD070C0F34700A249E4
:101890000870A74800787A282DD1A4480078062837
:1018A00029D0A8480078079000EBD0709F490978AC
:1018B00001EB60009849087008460078802801DD37
:1018C000802008709A480078984909780844079061
:1018D00000EBD07090490978B1EB600F0BDA9448B7
:1018E0000078924909780844079000EBD070C0F363
:1018F0004700894908708E4800787A280FD08B48B5
:10190000007806280BD0894800788949097808446E
:10191000079000EBD070C0F347007F490870834800
:10192000007806281BD08048007880490978401A42
:10193000142814DB81497D4800780830095C7B4815
:10194000007808387D4A105C081A0F2807DC7548B3
:1019500000787149087074480078744908707448B8
:1019600000787A281BD07248007872490978401AAA
:10197000142814DB6E48007808387049095C6F4AF7
:101980006B4800780830105C081A0F2807DC65489F
:1019900000786149087067480078654908706A48AE
:1019A000007801281AD10020674908705D48007846
:1019B00059490978081A059003F08FFF21F000417A
:1019C0000022624BCDE9060104F0ECF806D8554838
:1019D00000785149087001205D490870504800782E
:1019E00001287DDB40204C4908704D480078401E9E
:1019F0004B49087057480078012856D114200890A8
:101A000022E04B49089808700898C01E4B49095CB1
:101A10004A4A0898105C081A122811DB0898001F1F
:101A20001146095C0898401E105C081A122807DB52
:101A300011460898085C48490978884200DC06E0AD
:101A40000898401CC0B2089008986E28D9DD00BFE5
:101A500037480078C01EC0B2089022E03349089889
:101A6000087036490898C01C095C344A0898105C14
:101A7000081A122811DB11460898001D095C089805
:101A8000401C105C081A122807DB11460898085CF5
:101A900031490978884200DC06E00898401EC0B24F
:101AA000089008981428D9DA00BF2A48007802283C
:101AB0007CD16E20089024E01C49089808701F49CA
:101AC0000898C01C095C1D4A0898105C081A122866
:101AD00013DB11460898001D095C0898401C00E0C3
:101AE0001CE1105C081A122807DB11460898085CF4
:101AF00019490978884200DC06E00898401EC0B207
:101B0000089008981428D7DA00BF08480078C01C4D
:101B1000C0B2089046E000001500002069000020D7
:101B2000200000202C0000201B000020FB000020D3
:101B3000FC0000201C0000201E00002038010020B6
:101B4000160000201D0000202300002000003E4061
:101B5000220000203600002017000020FE490898CF
:101B600008700898C01EFD49095CFC4A0898105C82
:101B7000081A122812DB0898001F1146095C089801
:101B8000401E105C081A122808DB11460898085CF1
:101B9000F3490978884201DC07E007E00898401C17
:101BA000C0B2089008986E28D8DD00BFED480078D4
:101BB000142840D1E84800786E283CD0EA480078E4
:101BC000079000EBD070E4490978B1EB600F0CDBB3
:101BD000E5480078079000EBD070DF490978A1EB69
:101BE0006000C1B2E148017002E00020DF490870E6
:101BF000D9480078DB4909780844079000EBD07099
:101C0000DA490978B1EB600F0BDDD3480078D5498C
:101C100009780844079000EBD070C0F34700D3491F
:101C20000870CD480078542805DC0020D0490870A1
:101C30000A20D0490870C84800786E2837D1C948B2
:101C40000078142833D0C8480078079000EBD07093
:101C5000C449097801EB6000C4490870084600785F
:101C6000802801DD80200870BB480078BD490978D4
:101C70000844079000EBD070BC490978B1EB600FC5
:101C80000BDAB5480078B74909780844079000EBAB
:101C9000D070C0F34701B5480170B24800782C28D5
:101CA00005DB0020B24908700A20B2490870AA4832
:101CB00000786E2815D0AB480078142811D0A948B8
:101CC0000078A54909780844079000EBD070C0F36C
:101CD0004700A64908700020A54908700A20A549B8
:101CE0000870A5480078012809D1A04800786E281E
:101CF00005DB40209D4908700F209D4908709E48D3
:101D0000007802280DD1994800780A2809DC402083
:101D1000964908700F209649087002E00120974903
:101D200008709348007801287EDB002094490870F1
:101D300091480078012856D10F20089022E091495F
:101D4000089808700898C01E8F49095C8E4A089848
:101D5000105C081A0A2811DB0898001F1146095C5C
:101D60000898401E105C081A0A2807DB11460898DC
:101D7000085C86490978884200DC06E00898401C27
:101D8000C0B2089008986E28D9DD00BF7D48007861
:101D9000C01EC0B2089022E07D49089808707A49B8
:101DA0000898C01C095C784A0898105C081A0A2830
:101DB00011DB11460898001D095C0898401C105C56
:101DC000081A0A2807DB11460898085C6F49097849
:101DD000884200DC06E00898401EC0B208900898CF
:101DE0000F28D9DA00BF64480078022858D16E2045
:101DF000089024E066490898087063490898C01C58
:101E0000095C614A0898105C081A0A2813DB11461D
:101E10000898001D095C0898401C105C081A0A28E4
:101E200009DB1146089800E0D2E0085C57490978C0
:101E3000884200DC06E00898401EC0B2089008986E
:101E40000F28D7DA00BF52480078C01CC0B20890F3
:101E500022E04C49089808700898C01E4A49095C5D
:101E6000494A0898105C081A0A2811DB0898001FD4
:101E70001146095C0898401E105C081A0A2807DB06
:101E800011460898085C41490978884200DC06E060
:101E90000898401CC0B2089008986E28D9DD00BF91
:101EA0003B4800780F2829D0364800786E2825D185
:101EB0003748007837490978084437490870084698
:101EC0000078802801DD802008702E480078304995
:101ED00009780844079000EBD0702F490978B1EBDE
:101EE000600F0BDA274800782949097808440790E1
:101EF00000EBD070C0F347012748017024480078F8
:101F00000F2851D11F4800786E284DD01D48017808
:101F100020480078814207DB1A4800781D4909787B
:101F2000401A1D49087002E000201B49087015483E
:101F30000078174909780844079000EBD0701649DB
:101F40000978B1EB600F2FDD0E4800781049097851
:101F50000844079022E00000FC0000203801002027
:101F600017000020FB0000201D00002015000020AD
:101F700020000020790000203600002024000020EE
:101F800061000020FE000020B80100206700002052
:101F9000FD0000204D0000204800002000EBD07024
:101FA000C0F34700FE490870FE4800780F280FD0A4
:101FB000FD4800786E280BD0FA480078FA49097875
:101FC0000844079000EBD070C0F34700F449087054
:101FD000F6480078062817D0F54800787A2813D0FC
:101FE000F4480078002804DDF3480078401CF249EA
:101FF0000870F1480078282806DB0020ED490870B9
:10200000ED490870ED490870ED480078F0BBED48E7
:1020100000784B283ADBEC480088B8BBEB480068F6
:10202000322833D3EA48007880BBEA480078052894
:102030002CDBE948007848BBE84800782C2825DBF1
:10204000E6480078542821DC4020089023E0D64957
:10205000089808700898801EE149095CE04A0898D1
:10206000105C081A082812DB0898C01E1146095C8B
:102070000898401E105C081A082808DB11460898CA
:10208000085CD8490978884201DC07E0BAE0089882
:10209000401CC0B2089008987A28D8DD00BF4020C4
:1020A000089022E0BF4908980870CD490898801C24
:1020B000095CCB4A0898105C081A082811DB114605
:1020C0000898C01C095C0898401C105C081A082875
:1020D00007DB11460898085CC2490978884200DC91
:1020E00006E00898401EC0B2089008980628D9DA81
:1020F00000BFAC480078062829D0AB4800787A2881
:1021000025D1A8480078B84909780844A44908703E
:1021100008460078802801DD80200870A2480078F9
:10212000A04909780844079000EBD0709C490978D1
:10213000B1EB600F0BDA9C4800789A4909780844A3
:10214000079000EBD070C0F34700954908709548A0
:10215000007806282DD1944800787A2829D0924812
:102160000078A1490978884207DB8F4800789E49AA
:102170000978401A8A49087002E0002088490870EE
:1021800089480078874909780844079000EBD070A7
:1021900083490978B1EB600F0BDD834800788149F2
:1021A00009780844079000EBD070C0F347007C49E1
:1021B00008707C48007806280FD07B4800787A2881
:1021C0000BD078480078784909780844079000EBEC
:1021D000D070C0F3470072490870714800782C280D
:1021E00010DB6F48007854280CDC80480078804968
:1021F0000870C8207449088050207E490870322039
:102200007D4908707D48C0787C490871084680780F
:10221000C8700846417881700078784948707848DD
:10222000C0787749087108468078C87008464078B9
:102230008870084600784870724800785B490978D1
:10224000401A40B26D490870594800786E490978C3
:10225000401A40B26A490870684890F900000528A1
:1022600005DA664890F9000010F1050F02DC002045
:1022700062490870624890F90000052805DA604854
:1022800090F9000010F1050F02DC00205C49087095
:102290005A48007859494978084458498978084487
:1022A0005649C978084455490979084440B2574904
:1022B0000870534800785249497808445049897851
:1022C00008444F49C97808444D490979084440B247
:1022D0004F4908703A48007858BB3B48008840BBDB
:1022E0003A480068322824D33948007808BB394876
:1022F000007805281DDB38480078D0B9434890F9AC
:102300000000052815DB084690F90000052810DBC1
:102310002C48007839280CDB3448007834490870A0
:10232000C82029490880502032490870322032499B
:10233000087025480088012804DB23480088401ED7
:10234000214908802C480078002807DD2A480078B9
:10235000401E2949087000202E4908802E48007828
:10236000012865D100202C490870274800781049C1
:102370000978401A059003F0B0FA21F000410022DC
:10238000264BCDE9060103F0D3FA51D82448007852
:102390002449087009480078012849D1002043E009
:1023A00048000020FD000020FE000020FB0000206F
:1023B000FC0000201F000020210000200D01002053
:1023C0002B0000201D0000207A00002008000020C3
:1023D00020000020FA0000205100002015000020FD
:1023E000B8010020490000204D0000207E000020A0
:1023F00078000020790000207F000020FF000020EE
:10240000040100201B0000201C0000200901002006
:102410000A01002028000020F900002000001440DC
:10242000E600002026000020FD490870FD490870E4
:10243000FD480078012820D10020FB490870FB48A6
:102440000078FB490978401A059003F046FA21F01C
:1024500000410022F74BCDE9060103F069FA0CD8E0
:10246000F5480078F5490870F5480078012804D14E
:102470000020EB490870EB490870F248007810BB67
:10248000F1480078F8B9E948007823281BDBEF48C9
:1024900000787A2817D0EE480068322813D3ED4828
:1024A000007880B9E1480078E1490978401A0F289E
:1024B00009DBDF4800780A2805DB0120DA490870CB
:1024C0001420E5490880DF48007810BBDE4800781A
:1024D000F8B9DE4800785D281BDCD448007806286F
:1024E00017D0DB480068322813D3DA48007880B967
:1024F000DA480078D5490978401A0F2809DBD7480F
:102500000078762805DC0120D54908701420D249CE
:102510000880CC48007810BBD2480078F8B9D2487F
:10252000007814281BDBD14800787A2817D0C848D7
:102530000068282813D3C748007880B9CA480078B3
:10254000CB490978401A0F2809DBC94800780A28C6
:1025500005DB0A20B24908700120B9490870B94862
:10256000007810BBBF480078F8B9C04800786C28E4
:102570001BDCBD480078062817D0B548006828281D
:1025800013D3B448007880B9BA480078B7490978BD
:10259000401A0F2809DBB7480078762805DC0A20A6
:1025A000A04908700120A6490870AA4800780028B0
:1025B00004DDA8480078401EA64908709B480078B2
:1025C00008280BDCA1480078782807DBAA480078A7
:1025D00020B9AA480078401CA8490870A84800887B
:1025E000142803DDA7480088142804DCA3480078D9
:1025F000401CA2490870A1480078A0B18B4800781F
:10260000082803DA9148007878280CDC9C48008878
:10261000142808DB9B480088142804DB97480078BE
:10262000401E964908709548007832280BDB964882
:10263000008840B19548007828B901209349087076
:102640001920934908709348007800EBC00101EB12
:1026500000107F490968B1EB800F08D38B480078E0
:1026600028B90120894908701920894908708448CF
:102670000088844909880844079000EBD070C0F3B3
:102680004F0085490880854800782C2818DD83484C
:102690000078582814DA824800782C2810DD804809
:1026A000007858280CDA7F4800782C2808DD7D480F
:1026B0000078582804DA0020624908707A490870C6
:1026C000764800782C2803DC674800780A2807DD64
:1026D00072480078542809DB64480078762805DBC6
:1026E00001205849087000206F490870654800882B
:1026F000634909880844B0F5C87F0DDB5A48007863
:102700000F2803DD59480078712805DB01204D4969
:1027100008700020644908704A48007801287DD17B
:102720006048007828287ADD5E480078582876DAF4
:102730005A480078202827DD58480078602823DA96
:102740005648007803F0E0F84FF03332574BCDE9AC
:10275000000103F029F9CDE904015248007803F0A3
:10276000D3F84FF06632524BCDE9000103F01CF96B
:10277000CDE90201DDE9042302F0CEFFCDE9060137
:1027800003F07EF84B4908704448007820282ADC82
:1027900042480078012826DD42480078402822DCA3
:1027A0003E48007803F0B0F84FF06632424BCDE976
:1027B000000103F0F9F8CDE904013A48007803F08C
:1027C000A3F83E4A3E4BCDE9000103F0EDF8CDE918
:1027D0000201DDE9042302F09FFFCDE9060103F0C9
:1027E0004FF8344908702D48007860286ADB2D487E
:1027F00000787F287CDA2B480078402878DB27484F
:10280000007803F081F84FF066322B4BCDE90001E0
:1028100003F0CAF8CDE90401224854E0EBE1A0E05E
:102820000B0100200C010020F8000020FB0000201C
:102830001B00002000001440E400002025000020C0
:102840000D0100202B00002020000020FC000020B3
:1028500008000020790000207A0000201C000020E1
:10286000F900002051000020FD000020FE000020A3
:102870004B0000204C0000201F0000202A000020F8
:10288000980000209A000020020000204200002052
:102890004600002004000020DC000020480000204A
:1028A0005700002015000020D40000203333D33F10
:1028B0006666E63F690000206666D63FCDCCCCCC8C
:1028C000CCCCE43F14E0007803F01EF8FD4AFE4B48
:1028D000CDE9000103F068F8CDE90201DDE9042348
:1028E00002F01AFFCDE9060102F0CAFFF7490870AD
:1028F000F7480078012814DCF6480078402810DCFE
:10290000F448007803F000F84FF03332F24BCDE991
:10291000040103F049F8CDE9060102F0B1FFEB49EB
:102920000870EB4800787F281ADBEA4800784028D6
:1029300016DBE848007802F0E7FF4FF03332E64B51
:10294000CDE9020103F030F8E44AE54BCDE904019A
:1029500002F0E2FECDE9060102F092FFDB490870C9
:1029600040E1DC48007828287EDCDA48007802F074
:10297000CBFF0022DB4BCDE9040103F015F8CDE9D4
:10298000060102F07DFFD1490870D1480078012886
:1029900023DCD048007802F0B7FF4FF06632D24B0C
:1029A000CDE9040103F000F8CDE9060102F068FF6B
:1029B000C6490870CD48007878B9C648007802F05A
:1029C000A3FF0022C74BCDE9040102F0EDFFCDE9E2
:1029D000060102F055FFBD490870BD480078012886
:1029E00025DDBB480078362821DCB948007802F0A4
:1029F0008BFF0022BB4BCDE9000102F0D5FFCDE9F2
:102A00000401B448007802F07FFF0022B54BCDE905
:102A1000000102F0C9FFCDE90201DDE9042302F063
:102A20007BFECDE9060102F02BFFA8490870A848FB
:102A30000078362829DDA64800786C2825DCA448D3
:102A4000007802F061FF4FF03332A94BCDE900016D
:102A500002F0AAFFCDE904019E48007802F054FF7D
:102A60004FF06632A34B00E00FE0CDE9000102F029
:102A70009BFFCDE90201DDE9042302F04DFECDE923
:102A8000060102F0FDFE914908709248007858282E
:102A90007EDB9048007802F037FF0022914BCDE9B1
:102AA000020102F081FF0022934BCDE9040102F004
:102AB00033FECDE9060102F0E3FE84490870844844
:102AC00000787F282FDB8348007802F01DFF4FF04D
:102AD0006632854BCDE9020102F066FF794A874BE9
:102AE000CDE9040102F018FECDE9060102F0C8FEAE
:102AF000764908707D480078A8B97648007802F0D9
:102B000003FF0022774BCDE9020102F04DFF0022C6
:102B1000794BCDE9040102F0FFFDCDE9060102F099
:102B2000AFFE6A4908706A4800784A2825DB684881
:102B300000787F2821DA6648007802F0E5FE00225E
:102B4000684BCDE9000102F02FFFCDE90401614897
:102B5000007802F0D9FE0022624BCDE9000102F0BC
:102B600023FFCDE90201DDE9042302F0D5FDCDE923
:102B7000060102F085FE55490870554800784A283C
:102B800029DA53480078142825DB5148007800E002
:102B900028E002F0B9FE4FF03332554BCDE9000189
:102BA00002F002FFCDE904014A48007802F0ACFED1
:102BB0004FF066324F4BCDE9000102F0F5FECDE952
:102BC0000201DDE9042302F0A7FDCDE9060102F0D0
:102BD00057FE3E4908703D480078802802DD80207D
:102BE0003C4908700020464908704649087046492B
:102BF00008704649088046480078E8BB424800789B
:102C0000401C414908703E480078082804DA3C48D6
:102C10000078401C3A4908703B4800781E2804DBC5
:102C2000002039490870374908702A48007802F0B6
:102C30006BFE2A4A374BCDE9000102F0B5FECDE923
:102C400004012348007802F05FFE4FF03332224B3C
:102C5000CDE9000102F0A8FECDE90201DDE904237F
:102C600002F05AFDCDE9060102F00AFE174908708C
:102C70002448007860B900E075E02748007838B94A
:102C80002648007820B921480088401C1F49088048
:102C900010480078402849DA0D480078402845DD82
:102CA0000B4800780B490978401A059002F015FE90
:102CB00021F0004100221A4BCDE9060102F072FF1B
:102CC00034D22FE0CDCCCCCCCCCCE43F690000207A
:102CD00048000020150000203333E33F9A9999996A
:102CE000999949400000E03F6666D63F61000020A8
:102CF0003333D33F6666E63F00005040CCCC5440AF
:102D0000FA0000203C0000207D0000202800002068
:102D10002B0000209999D93F20000020510000206D
:102D200000004440FE480078FE490870FC480078E6
:102D3000402818DDFC480078402814DAFA4800786A
:102D4000F7490978401A059002F0C7FD21F00041CB
:102D50000022F64BCDE9060102F024FF03D2F04831
:102D60000078F0490870F2480078012821DBEC482F
:102D7000007802F0C9FD0022EE4BCDE9000102F01F
:102D800013FECDE90401E848007802F0BDFD002201
:102D9000E84BCDE9000102F007FECDE90201DDE9D3
:102DA000042302F0B9FCCDE9060102F069FDDD491A
:102DB0000870E1480078002821DDD948007802F049
:102DC000A3FD0022DB4BCDE9000102F0EDFDCDE9D2
:102DD0000401D548007802F097FD0022D54BCDE9DB
:102DE000000102F0E1FDCDE90201DDE9042302F07A
:102DF00093FCCDE9060102F043FDCA490870CF48B3
:102E00000078012811D1CE48007801280DD1C5489D
:102E100000782C2802DC0220CA490870C1480078DA
:102E2000542802DB0320C7490870C74800780028EF
:102E30007EDD0120C549C8640020C1490870C4492D
:102E40000870C1480078401EBF4908704020B4494E
:102E50000870B5490870B3490870BE4800780890FA
:102E600020E0BD4908980870BC490898801C095C9E
:102E7000BA4A0898105C081A0F280FDB1146089808
:102E8000C01C095C0898401C105C081A0F2805DB60
:102E900011460898085C3C2800DC06E00898401EB3
:102EA000C0B2089008980628DBDA00BFAA4800786C
:102EB000062828D0A8480078089020E0A84908985B
:102EC00008700898801EA549095CA44A0898105CFF
:102ED000081A0F280FDB0898C01E1146095C0898D5
:102EE000401E105C081A0F2805DB11460898085C84
:102EF0003C2800DC06E00898401CC0B20890089806
:102F00007A28DBDD00BF9648007893490978401A9B
:102F10000A2818DB924800788F490978401A32282D
:102F200011DC8F4800788C4909780844079000E04C
:102F300009E000EBD070C0F34700794908700846FB
:102F4000007878490870874800880A282BDB864873
:102F500000798549C97808448349897808448249B9
:102F600049780844804909780844052190FBF1F02C
:102F70007E4908707E4800797D49C97808447C49BB
:102F8000897808447A494978084479490978084495
:102F9000052190FBF1F07749087000207149088005
:102FA00001207549087075480078002807DD7348CE
:102FB0000078401E7149087001206449C864704857
:102FC0000078002807DD6E480078401E6C490870C4
:102FD00001205E49C8646B480078012807DB694816
:102FE0000078401E6749087001205849C864664847
:102FF000007838B164480078401E634908700120A9
:103000005249C86447480078604908706048007AAF
:103010005F4948720846C079087208468079C871CD
:103020000846407988710846007948710846C0789A
:10303000087108468078C87008464078887008464D
:10304000007848703648007808705248007A514934
:1030500048720846C079087208468079C8710846E7
:10306000407988710846007948710846C07808712F
:1030700008468078C870084640788870084600780E
:103080004870294800780870434800784349087020
:103090004348007843490870234800784249087043
:1030A00008460078062801DA062008703E480078B5
:1030B0007A2802DD7A203C4908701B4800780028F5
:1030C00002DC00201849087017480078802802DDCB
:1030D000802015490870124800781E49087008467B
:1030E00000787A2801DB7A2008701A4800780628D0
:1030F00002DC062017490870174800782B49087031
:10310000174800782A49087013480078294981F83F
:1031100000010348007881F80101114800784BE074
:1031200015000020690000204800002000004440F5
:10313000510000200000E03F200000202B00002074
:1031400061000020D4000020780000200000FE4331
:103150004E0000201E000020FB000020380100204F
:10316000FC0000202800002037000020170000206D
:1031700062000020670000203C00002025000020A5
:10318000260000200C0100200B0100206A00002016
:103190002C00002057000020FD0000204B000020E4
:1031A000FE0000204C000020560000201B000020E4
:1031B0001C0000203802002081F802012648007817
:1031C00081F803012548007881F80401244800783B
:1031D00081F805012348007881F80601224800782B
:1031E00081F807012148007881F81601204800780D
:1031F00081F817011F48007881F818011E480078EF
:1032000081F819011D48007881F81B011C480078DD
:1032100081F81D011B48007881F81C011A480078CC
:1032200081F81E0119480088001281F81F01184812
:10323000007818490978084417490978084417495B
:1032400009780844164981F820011648007881F869
:10325000210100BFFDF7DBB916000020200000208F
:10326000670000201700002069000020FD000020FA
:1032700048000020FE000020490000202B00002014
:1032800047000020E80000201D000020DC00002096
:1032900025000020260000200C0100200B0100204A
:1032A000380200205100002070B5002500260024BF
:1032B00024E04148005D00013F49095D40EA2110DA
:1032C0003D4908550846005DCC2101EA80003A4995
:1032D000095D332202EAA10108433749085508462F
:1032E000005DAA2101EA40003349095D552202EA46
:1032F0006101084330490855601CC4B2042CD8DD74
:10330000002408E02C48005DB04202DB2A48065D3C
:103310002546601CC4B2042CF4DD00202649485523
:1033200026480078012819D10846007849780844D1
:103330002149897808442049C97808441E490979F7
:1033400008441F491F4A1278885408461D490978C5
:10335000405C81101A481B4A127881541748007843
:1033600002281AD1144800781349497808441249B0
:10337000897808441049C97808440F4909790844F4
:10338000C1B211480F4A127881540E490978405C45
:1033900080100D490B4A127888540A480078401C66
:1033A00008490870044909480161002201210848C0
:1033B00000F07CF870BD0000160100201B01002009
:1033C000380100201C010020B801002000900040BE
:1033D0000080004010B58CB00446207AADF80000A3
:1033E00000208DF80200607A18B901208DF80300E2
:1033F00002E002208DF803006068029005208DF83D
:103400000400684600F0C8FB20788DF80C0000200E
:103410008DF8140001208DF8150047F23050ADF8FA
:103420000E001F4A6068811A904213D005DC1D49C6
:10343000084438B1402819D108E040290ED080292D
:1034400014D10FE031208DF80D0010E032208DF8FE
:103450000D000CE033208DF80D0008E034208DF8CD
:103460000D0004E035208DF80D0000E000BF00BF26
:10347000012004900C4809900020ADF828000B9022
:103480008DF82A00084806900020ADF81C0008902E
:103490008DF81E0003A800F053F80CB010BD00001A
:1034A00080F00F400010F0BF1000002010B511B1E7
:1034B000012907D100E000BF436A0124944023435F
:1034C000436200E000BF00BF10BD000030B511B185
:1034D000012930D117E0012B0AD1184C04EB42141A
:1034E000A48B44F00405154C04EB4214A58309E0B9
:1034F000124C04EB4214A48B24F004050F4C04EB93
:103500004214A58318E0012B0AD10C4C04EB4214A1
:10351000A48B44F00205094C04EB4214A58309E096
:10352000064C04EB4214A48B24F00205034C04EB7C
:103530004214A58300E000BF00BF30BD00900040F2
:1035400010B504466078022803DB60783C2800DC74
:1035500003E02E2167A001F02FFE208A38B1208AD7
:10356000B0F5807F03D0208AB0F5007F00D103E062
:103570002F2160A001F020FEA08B28B1A08B012894
:1035800002D0A08B022800D103E0302159A001F025
:1035900013FE20780F2800DC03E0312155A001F054
:1035A0000BFE608847F6FF71884200DA03E03221A3
:1035B00050A001F001FE5548C06B40F00200534995
:1035C000C8630846006C40F002000864607800F0B0
:1035D0003F0021784E4A88544E48227800EB421032
:1035E000E1680160A07C4B49227801EB42118880A0
:1035F00000214848227800EB4210C18045482178DC
:1036000000EB4110C088218A4FF4E06202EA0121F8
:1036100008434049227801EB4211C8803D48227896
:1036200000EB42106169C1603A48227800EB421019
:10363000A1690161A07F3749227801EB421188829C
:103640003448217800EB4110C188207F00F007004A
:1036500001433048227800EB4210C1802D48227887
:1036600000EB4210216A81616088C0F30E01294895
:10367000227800EB4210C1826088C0F30E01254819
:10368000227800EB4210C1832248227800EB4210DE
:103690006168816000211F48227800EB421081831D
:1036A000207A01280CD11B48217800EB4110808B37
:1036B00040F008011748227800EB421081830BE0AC
:1036C0001448217800EB4110808B20F0080111484C
:1036D000227800EB42108183617A207800F01CF898
:1036E00020780B49405C40F080002178084A8854DB
:1036F00010BD00002E2E5C5343525C46574C49428D
:103700005C444D415C646D612E63000000800440A8
:10371000001002400090004070B504460D460F2C8A
:1037200000DC03E06F210EA001F046FD0DB1012D7C
:1037300000D103E070210AA001F03EFD012D07D168
:103740000D48C0680121A14008430B49C86006E04C
:103750000948C1680120A04081430748C16070BD8D
:103760002E2E5C5343525C46574C49425C444D41BB
:103770005C646D612E6300000080004001201249EE
:1037800009680870022010490968487003200E4932
:103790000968887004200C490968C87005200A4926
:1037A00009680871802008490968487102200649A3
:1037B00009688871012004490968087216200249C5
:1037C0000968C871704700003401002000B589B055
:1037D0001B491C4801F044FA012200211A4801F05B
:1037E00081FA01220021184801F0CEF905208DF858
:1037F000000001208DF808008DF8090040F2B1307A
:10380000ADF802000D208DF80100012001900E4856
:10381000C01D06900020ADF81C0008908DF81E0019
:103820000A48006803900020ADF8100005900120C0
:103830008DF812006846FFF783FE09B000BD000056
:1038400000C409001D13020000B00E403401002026
:1038500010B54FF0E020006940F004004FF0E02187
:10386000086100F0FDFA084840690849B0FBF1F032
:1038700007490870084600784FF47A7110FB01F090
:103880000449086010BD00002C09002040420F00D0
:10389000200100202401002010B50146002220E074
:1038A000114B1B684FF0E02463610023A3612346A2
:1038B0001B6943F00103236100BF4FF0E023186947
:1038C00000F001031BB100F48033002BF5D04FF062
:1038D000E0231B6923F001034FF0E0242361531C14
:1038E0009AB28A42DCD310BD240100200146104A5E
:1038F00012784A434FF0E0235A6100229A611A4637
:10390000126942F001021A6100BF4FF0E022106913
:1039100000F001021AB100F48032002AF5D04FF015
:10392000E022126922F001024FF0E0231A61704791
:103930002001002000B589B000208DF80000012092
:103940008DF8080000208DF809000520ADF8020070
:103950003B208DF80100012001900E4806900020C8
:10396000ADF81C00089001208DF81E000A48039055
:103970000020ADF8100005908DF812006846FFF7A2
:10398000DFFD0123002219460448FFF79FFD09B01F
:1039900000BD000016010020D0F00F400080004064
:1039A00010B502A001F09EFB10BD0000D2D4CCAB3C
:1039B000CDF8B4EDCEF30D0A0000000003484068D6
:1039C00040F00070014948607047000000000C4062
:1039D0000348406840F000600149486070470000BB
:1039E00000000C402DE9F3410C46002700256E46EF
:1039F0004A490098884262D04949009888425ED07E
:103A00004849009888425AD047490098884256D081
:103A100046490098884252D04549009888424ED085
:103A20004449009888424AD043490098884246D089
:103A300042490098884242D04149009888423ED08D
:103A40004049009888423AD03F490098884236D091
:103A50003E490098884232D03149903900988842D6
:103A60002DD03B490098884229D03A490098884295
:103A700025D039490098884221D038490098884299
:103A80001DD037490098884219D03649009888429D
:103A900015D035490098884211D0344900988842A1
:103AA0000DD03249C1310098884208D03049009881
:103AB000884204D02E49F1390098884200D103E0B1
:103AC000E5212CA001F078FB42F21070844200D86E
:103AD00003E0E62127A001F06FFB307800F00F0033
:103AE00020B1012804D0022806D103E0274D04E0CC
:103AF000274D02E0274D00E000BF00BFA8686043EB
:103B000042F21071B0FBF1F73078C0F3031105F108
:103B10000C0000EBC1004760BDE8FC810081100093
:103B200000030C001082100010040C002083100011
:103B300020050C003084100040C4100050C5100057
:103B400050000C0060C6100060010C0070C710002F
:103B5000010C0C0001400C00110D0C0011410C0077
:103B600002520C0012530C0030060C0040070C00EF
:103B7000020A0C002E2E5C5343525C46574C4942BD
:103B80005C46544D5C66746D2E63000000800340FB
:103B90000090034000800B4070B5044600260025CD
:103BA0009F49A068884212D09D494031A068884250
:103BB0000DD09B498031A068884208D09849C03117
:103BC000A068884203D09749A068884200D103E0EA
:103BD0001E2195A001F0F0FA2088202800DA03E0E9
:103BE0001F2191A001F0E8FAA07810B1A078012877
:103BF00000D103E020218CA001F0DEFAE078B8B11A
:103C0000E078012814D0E078022811D0E078032869
:103C10000ED0E07808280BD0E078092808D0E078AA
:103C20000A2805D0E0780B2802D0E0780C2800D1D3
:103C300003E021217CA001F0BFFA207904280BD0F9
:103C40002079052808D02079062805D02079072872
:103C500002D02079082800D103E0222172A001F0CF
:103C6000ABFAA6686E498031701A8E421BD005DC13
:103C70007448304438B140282DD10CE040281AD087
:103C8000802828D11FE0704D7048806B40F4007090
:103C90006E49886320E06E4D6C48806B40F4806014
:103CA0006A49886318E06B4D6848806B40F4006097
:103CB0006649886310E0684D6448806B40F480502A
:103CC0006249886308E0654D6048806B40F40050AD
:103CD0005E49886300E000BF00BF208855F82000DF
:103CE00020F4E060218845F82100208855F8200064
:103CF00040F48070218845F821002079072802D0FF
:103D00002079082835D17069227801219140084333
:103D10007061208855F8200020F00200218845F8C5
:103D20002100A078012806D1306822780121914035
:103D30000843306005E030682278012191408843D3
:103D400030602079072808D1208855F8200040F0FD
:103D50002000218845F821004DE0207908284AD12B
:103D6000208855F8200020F02000218845F8210007
:103D700041E02079042805D02079052802D0207957
:103D8000062838D1706922780121914088437061FA
:103D90002079042808D1208855F8200020F002005E
:103DA000218845F8210026E02079052810D12088B7
:103DB00055F8200040F00200218845F821002088B5
:103DC00055F8200020F00100218845F8210012E07C
:103DD000207906280FD1208855F8200040F00200F5
:103DE000218845F82100208855F8200040F0010086
:103DF000218845F82100208855F8200020F4702003
:103E0000218845F82100208855F82000E1784FF4FA
:103E1000702202EA01410843218845F8210070BD63
:103E200000F00F4000F10F402E2E5C5343525C46D1
:103E3000574C49425C4750494F5C6770696F2E632D
:103E4000000000000010F0BF00900440008004401B
:103E500000A0044000B0044000C0044000D0044072
:103E6000B748007800F0040010B10120B54948704F
:103E7000B348007800F0020010B10220B149487048
:103E8000AF48007800F0010010B10320AD49487040
:103E9000AB48407800F0800010B10420A949487078
:103EA000A748407800F0400010B10520A5494870AF
:103EB000A348407800F0200010B10620A1494870C6
:103EC0009F48407800F0040010B107209D494870D9
:103ED0009B48407800F0020010B1082099494870D2
:103EE0009748407800F0010010B1092095494870CA
:103EF0009548406AC0F30210082825D2DFE800F098
:103F000004080C1014181C200A208E4908701FE0A9
:103F100014208C4908701BE01E208A49087017E0A5
:103F200028208849087013E03C20864908700FE07B
:103F30004620844908700BE032208249087007E06F
:103F400035208049087003E000207E49087000BFDA
:103F500000BF7D48406A00F00F00801E0D2831D25E
:103F6000DFE800F007300B0F13171B1F233027303B
:103F70002B0020207349888028E0302071498880F8
:103F800024E040206F49888020E050206D498880DF
:103F90001CE051206B49888018E0642069498880C2
:103FA00014E068206749888010E090206549888087
:103FB0000CE0C4206349888008E04FF480706149B8
:103FC000888003E000205F49888000BF00BF5E4812
:103FD000406AC0F3033020B1012806D002280CD17A
:103FE00007E00A20574988700BE00B20554988707C
:103FF00007E00C205349887003E000205149887085
:1040000000BF00BF5048C06CC0F30360072806D053
:10401000092809D00B280CD00F2814D10EE04FF43A
:1040200000304849886012E04FF48020454988609C
:104030000DE04FF400204349886008E04FF4002071
:104040004049886003E000203E49886000BF00BF0F
:104050003D48006D00F4000018B100203949C860E7
:1040600022E03948C06C000F30B1072808D0092879
:104070000BD00F2813D10DE000203249C86012E0A8
:104080004FF400302F49C8600DE04FF480202D49D7
:10409000C86008E04FF480202A49C86003E000208F
:1040A0002849C86000BF00BF28480068C0F303303B
:1040B000052806D0072809D008280CD0092814D1D3
:1040C0000EE04FF400401F49086112E04FF48030C9
:1040D0001C4908610DE04FF4C0301A49086108E03E
:1040E0004FF400301749086103E0002015490861CA
:1040F00000BF00BF16480068124948611248406C72
:10410000C0F30360401C12490968B1FBF0F00D498F
:1041100088610D48406CC0F30350401C0C4909688D
:10412000B1FBF0F00749C8610748406CC0F3034099
:10413000401C07490968B1FBF0F00249086270476A
:1041400000E007402C09002000800440007004407B
:104150003001002000F0B1F800211348FFF742FCC5
:1041600000211248FFF73EFC00211048C130FFF744
:1041700039FC00210E48FFF735FC01200D4988600D
:10418000C8600DA20021084600F06BFA0DA20221C2
:10419000002000F066FA0EA20421002000F061FA6F
:1041A000FCF7A4F900BFFEE730060C0040070C0046
:1041B00011090C000010FE43546865206D656D6F99
:1041C000727900006F7220537461636B730000009A
:1041D0006F766572666C6F777300000010B5002112
:1041E0000B48FFF7FFFB00210A48FFF7FBFB00210C
:1041F0000848C130FFF7F6FB00210748FFF7F2FB44
:10420000012006498860C860FCF770F910BD000005
:1042100030060C0040070C0011090C000010FE4392
:1042200000F04BF800211348FFF7DCFB0021124897
:10423000FFF7D8FB00211048C130FFF7D3FB002166
:104240000E48FFF7CFFB01200D498860C8600DA222
:104250000021084600F005FA0DA20221002000F01E
:1042600000FA0EA20421002000F0FBF9FCF73EF951
:1042700000BFFEE730060C0040070C0011090C00DF
:104280000010FE4354686520436869700000000018
:104290006861766520626967000000006572726F70
:1042A0007200000000F01F020121914042099200BB
:1042B00002F1E022C2F80011704730B5002415E089
:1042C00004F1B001C8B200F0CDF8012000F0CAF846
:1042D000102000F0C7F8002504E0002000F000F9ED
:1042E000681CC5B2802DF8DB601CC4B2082CE7DB6B
:1042F00030BD09E043F2264100BF0A00A1F10103ED
:1043000099B2FAD1421E90B20028F3D17047000052
:1043100010B51C213D4800F07DF81B213B4800F002
:1043200079F81A21394800F075F81921374800F05A
:1043300071F83648001D006840F080503449C1F8DB
:1043400004010846D0F8080140F08060C1F8080177
:104350003220FFF7CEFF2E48D0F8040140F08060F5
:104360002B49C1F80401AE2000F07CF8D52000F004
:1043700079F8802000F076F8A82000F073F83F204C
:1043800000F070F8D32000F06DF8002000F06AF81B
:10439000402000F067F88D2000F064F8142000F051
:1043A00061F8202000F05EF8022000F05BF8A12008
:1043B00000F058F8C82000F055F8DA2000F052F864
:1043C000122000F04FF8812000F04CF8CF2000F0D0
:1043D00049F8D92000F046F8F12000F043F8DB203E
:1043E00000F040F8402000F03DF8A42000F03AF83A
:1043F000A62000F037F8AF2000F034F8FFF75DFF9B
:104400000021084600F019F810BD000000F10F402F
:1044100000F00F403EB505460C46029501208DF890
:10442000020000208DF80300ADF8004008208DF850
:1044300004006846FFF7B0FB3EBD30B504460D46AC
:1044400005F1B001C8B200F00DF8102141EA1410D6
:1044500000F008F804F00F0141F0010000F002F84C
:1044600030BD000008211C4A126842F000721B4B4C
:10447000C3F808211A46D2F8082142F08052C3F846
:10448000082123E000F0800242B1134A121F126893
:1044900042F00062114BC3F8042106E00E4A126894
:1044A00042F000620D4BC3F808210B4A121F12683C
:1044B00042F08052094BC3F804211A46D2F8082171
:1044C00042F08052C3F808214206100E0A00A1F102
:1044D0000103D9B2D6D1704708F10F4000F00F4068
:1044E00008211C4A126842F000721B4BC3F80421D9
:1044F0001A46D2F8082142F08052C3F8082122E07F
:1045000000F080023AB1134A126842F00062124B86
:10451000C3F8042107E00F4A121D126842F000623E
:104520000D4BC3F808210B4A126842F080520A4B27
:10453000C3F804211A46D2F8082142F08052C3F889
:1045400008214206100E0A00A1F10103D9B2D7D109
:104550007047000004F10F4000F00F40F0B5064630
:104560000F461446412C05DB5A2C03DCA4F137001E
:10457000C4B22AE0612C05DB7A2C03DCA4F13500FF
:10458000C4B222E0202C01D124241EE03A2C01D117
:1045900025241AE02D2C01D1262416E02F2C01D140
:1045A000272412E02E2C01D128240EE02C2C01D13E
:1045B00029240AE07E2C01D12A2406E0802C01D196
:1045C000462402E0812C00D14724782E02DD00260B
:1045D000781CC7B2F106080E3946FFF72EFF0025FA
:1045E00007E005EB04110E4A505CFFF779FF681CE9
:1045F000C5B2082DF5DB7A1CD1B2F206100EFFF71A
:104600001CFF002508E005EB04110831044A505C4A
:10461000FFF766FF681CC5B2082DF4DBF0BD000093
:10462000E45D0000F0B505460E461446642094FB98
:10463000F0F100FB11400A2190FBF1F0C7B23A46BD
:1046400031462846FFF78AFF0A2094FBF0F100FB71
:104650001140C7B2691CC8B23A463146FFF77EFF27
:10466000F0BDF0B506460F461546002407E02A5D6A
:104670003119C8B23946FFF771FF601CC4B2285D1A
:104680000028F4D1F0BD000010B5012005490870E4
:1046900005480068401C044908600021012000F022
:1046A00005F810BD130000200800002070B5044676
:1046B0000D4605B903E0C2210CA000F07DFD2CB130
:1046C000012C03D0022C01D0032C00D103E0C32124
:1046D00006A000F071FD0B4800EB0410C06840F02C
:1046E0000101084800EB0410C16070BD2E2E5C5320
:1046F00043525C46574C49425C5049545C70697463
:104700002E6300000071034070B504460E46154646
:1047100006B903E08B2118A000F04EFD2CB1012C4E
:1047200003D0022C01D0032C00D103E08C2112A075
:1047300000F042FD0DB1012D00D103E08D210EA04E
:1047400000F03AFDB6B9012D0AD1114800EB041072
:10475000806840F002010E4800EB0410816009E01F
:104760000B4800EB0410806820F00201084800EBC1
:104770000410816070BD00002E2E5C5343525C46D5
:10478000574C49425C5049545C7069742E63000078
:104790000071034070B504460025207840B12078B0
:1047A000012805D02078022802D02078032800D1E3
:1047B00003E015211EA000F0FFFCFFF751FB22488B
:1047C00080694FF47A71B0FBF1F0616800FB01F58C
:1047D0001E48C06B40F400001C49C8631C480068B8
:1047E00020F002001A4908600846006840F0010005
:1047F00008601848217800EB011005601548217801
:1048000000EB0110C06840F001011248227800EB73
:104810000210C1600F48217800EB0110806840F061
:1048200001010C48227800EB0210816070BD00008D
:104830002E2E5C5343525C46574C49425C504954BF
:104840005C7069742E6300002C0900200080044015
:10485000007003400071034070B504460D461CB162
:10486000052C01D0062C00D103E080219BA000F094
:10487000A3FC122D09D0132D07D0112D05D0102D1A
:1048800003D0092D01D0082D00D103E0812193A090
:1048900000F092FC002C5BD1601E96494864062013
:1048A00095490870002048700846C07820F0E00064
:1048B000C870082D1DD0102D0DD0112D27D1084600
:1048C000C07840F0E000C8708C488A4948648C4841
:1048D0008C49086029E08848C07840F0C0008649CB
:1048E000C8704FF0897083494864874885490860DB
:1048F0001BE08148C07840F0A0007F49C8704FF4A9
:1049000080307C49486481487E4908600DE07A48DF
:10491000C07840F0A0007849C8704FF480307549E5
:1049200048647A487749086000BF00BF0020724998
:104930000871487100BF7048807900F010000028AD
:10494000F9D000BF6C48807900F00C000028F9D144
:10495000062C01D0052C70D14FF0FF30654948641A
:1049600000206B4908706348406800F0FE00614910
:1049700048602420604948709A2008700846C07832
:1049800000F01F00C870032008710020487100BFAC
:104990005948807900F002000028F9D000BF56483D
:1049A000807900F010000028F9D100BF52488079CA
:1049B00000F00C000828F9D1062C03D103204E4941
:1049C000087104E0052C02D118204B490871A5F1AB
:1049D00008000C2855D2DFE800F006105454545457
:1049E00054541B26313B40204349487180024149C1
:1049F00048644648434908604DE048203E494871B4
:104A00004FF089703B49486442483E49086042E0A3
:104A10004C20394948714FF08970364948643A480A
:104A20003849086037E058203349487133483149E4
:104A300048643348334908602DE04CE05A202E4941
:104A400048712E482B49486433482E49086022E0BB
:104A5000062C08D10120284908715A2048712F4896
:104A60002449486409E0052C07D10C20224908712B
:104A70005C20487129481F49486429482149086039
:104A800009E040201C49487180021A4948641F48C7
:104A90001C49086000BF00BF00BF1748807900F0C4
:104AA00020000028F9D000BF1348807900F04000B2
:104AB0000028F9D01A201049087000BF0E488079EC
:104AC00000F00C000C28F9D100BF0B48807900F0F1
:104AD00040000028F9D0FFF7C3F970BD2E2E5C53BB
:104AE00043525C46574C49425C5359535C7379734B
:104AF0002E630000008004400040064000001301C7
:104B000000D8B8053001002000A24A04006CDC0285
:104B1000005006400090D00300E1F50500001701A9
:104B200000C2EB0B4CF220501449C8814DF62810FE
:104B3000C8814FF4E97008804FF488101049486428
:104B4000062010490870002048700846C07800F020
:104B50003F0040F02000C87000200871487100BF7D
:104B60000848807900F010000028F9D000BF0548FF
:104B7000807900F00C000028F9D170470020054032
:104B8000008004400040064070B504460D461646BD
:104B90002DB1012D03D0022D01D0032D00D104E051
:104BA0004FF4967121A000F007FB274884420ED0F5
:104BB000264884420BD02648844208D025488442A7
:104BC00005D02548844202D02448844200D104E024
:104BD00040F22D1115A000F0EFFA0EB1012E00D118
:104BE00004E04FF4977111A000F0E6FA15B1012D21
:104BF00018D10BE0012E04D1E07A40F08000E07281
:104C000003E0E07A20F08000E0720CE0012E04D195
:104C1000E07A40F02000E07203E0E07A20F020002B
:104C2000E07200E000BF00BF70BD00002E2E5C539C
:104C300043525C46574C49425C554152545C756145
:104C400072742E630000000000A0064000B0064011
:104C500000C0064000D0064000A00E4000B00E404C
:104C600033B583B00C4603AD0194039802902878C5
:104C700000F0070006281CD2DFE800F003070B0F46
:104C8000131711481149086017E011480F490860CF
:104C900013E010480D4908600FE00F480B49086009
:104CA0000BE00E480949086007E00D480749086015
:104CB00003E000200549086000BF00BF01A800F024
:104CC00095F805B030BD000000A006402801002086
:104CD00000B0064000C0064000D0064000A00E40D4
:104CE00000B00E4070B504460E4615463248844268
:104CF0000ED0324884420BD03148844208D031482B
:104D0000844205D03048844202D03048844200D1E9
:104D100003E0AD212EA000F04FFA2EB1012E03D0FA
:104D2000022E01D0032E00D103E0AE2128A000F016
:104D300043FA0DB1012D00D103E0AF2124A000F012
:104D40003BFA36B1012E10D0022E1AD0032E30D1EC
:104D500023E0012D04D1E07840F08000E07003E012
:104D6000E07820F08000E07024E0012D04D1E078AC
:104D700040F04000E07003E0E07820F04000E07098
:104D800018E0012D04D1E07840F02000E07003E04D
:104D9000E07820F02000E0700CE0012D04D1E078F4
:104DA00040F01000E07003E0E07820F01000E070C8
:104DB00000E000BF00BF70BD00A0064000B006408C
:104DC00000C0064000D0064000A00E4000B00E40DB
:104DD0002E2E5C5343525C46574C49425C5541521F
:104DE000545C756172742E63000000002DE9F04779
:104DF0000446002500270026261D44F21041606865
:104E0000884234D097496068884230D096496068BB
:104E100088422CD095496068884228D040F21931E8
:104E20006068884223D04CF69901606888421ED0A1
:104E300048F2DA616068884219D08D49606888421A
:104E400015D0894943316068884210D0894960682B
:104E500088420CD088496068884208D081498431F2
:104E60006068884203D085496068884200D103E0C9
:104E7000432183A000F0A0F9307800F00700062855
:104E800034D2DFE800F0030B131B232B8348406B65
:104E900040F4806081494863814D29E07F48406B40
:104EA00040F400607D4948637E4D21E07B48406BC3
:104EB00040F48050794948637B4D19E07748406B56
:104EC00040F4005075494863784D11E07348806A9A
:104ED00040F4806071498862754D09E06F48806ACE
:104EE00040F400606D498862724D01E0002500BF0A
:104EF00000BF3088C0F38210062834D2DFE800F00B
:104F0000030B131B232B6548806B40F4007063492F
:104F10008863694F28E06148806B40F480605F4996
:104F20008863664F20E05D48806B40F400605B4919
:104F30008863634F18E05948806B40F480505749AC
:104F40008863604F10E05548806B40F4005053492F
:104F500088635D4F08E05148806B40F400504F4932
:104F60008863594F00E000BF00BF3068C0F3843051
:104F700057F8200020F4E0603168C1F3843147F82D
:104F800021003068C0F3843057F820003178C1F335
:104F9000C2014FF4E06202EA012108433168C1F323
:104FA000843147F821003088C0F3442057F82000AE
:104FB00020F4E0603188C1F3442147F821003088B3
:104FC000C0F3442057F820003178C1F3C20102EA4F
:104FD000012108433188C1F3442147F82100FEF73D
:104FE0003FFF3A48D0F818902D48854202D02D480E
:104FF000854202D13548D0F8149020680001B9FBF1
:10500000F0F01FFA80F84FEA49002168B0FBF1F098
:10501000A0EB481000F0FF0A2878C8F304210843E9
:10502000287085F80180A87A0AF01F010843A87249
:10503000E87820F00C00E870A87820F01000A87044
:10504000A87820F00200A870687920F0200068712C
:10505000E87840F00C00E87080201D49A1F8840039
:10506000BDE8F087189E030058220400D88E010086
:105070005B9602001B0B01001C3306001D1302008F
:105080002E2E5C5343525C46574C49425C5541526C
:10509000545C756172742E6300000000008004404F
:1050A00000A0064000B0064000C0064000D0064008
:1050B00000A00E4000B00E400090044000A004404C
:1050C00000B0044000C0044000D004402C0900207F
:1050D0005009002000BF027902F08002002AFAD0B5
:1050E000C17170470FB470B505AD00BF08E014B9C9
:1050F00070BC5DF814FB214615480068FFF7EAFF15
:10510000049810F8011B0C4604902529EFD104984F
:1051100010F8014B0490642C01D06C2C03D10A21AF
:10512000286800F0DDFA6F2C01D0782C08D16F2CA4
:1051300001D1082200E010221146286800F0D0FAC0
:10514000732C02D1286800F005F82D1DCEE7000071
:105150002801002000B5034605E0197804480068DE
:10516000FFF7B8FF5B1C18780028F6D100BD0000DF
:105170002801002010B500210B48FEF733FC002168
:105180000A48FEF72FFC00210848C130FEF72AFC30
:1051900000210748FEF726FC012006498860C86008
:1051A000FBF7A4F910BD000030060C0040070C000E
:1051B00011090C000010FE4304460D462246294604
:1051C00002A0FFF78FFF00BFFEE700006173736569
:1051D00072745F6661696C65643A6C696E653A25E4
:1051E000642025730D0A000010B500201B4988605B
:1051F00002201B49087000201A49087001201A4932
:1052000008600020091F08600120FEF76FFB0020E6
:10521000154908600120091F0860FEF767FB01209F
:10522000114908600020091F086000240CE00020DC
:105230000D49086001200860FEF758FB012100209D
:10524000FEF76AFA601CC4B27F2CF0DD012003492E
:10525000886000200249087010BD00000010FE4365
:105260001B0100201C0100202408FE430EB5032072
:10527000ADF8000001208DF8020000208DF8030039
:1052800008208DF804007C4802906846FEF784FCF4
:1052900001207A49C8600220ADF8000001208DF895
:1052A000020000208DF8030008208DF804007248E9
:1052B00002906846FEF770FC012070498860062065
:1052C000ADF8000000208DF802008DF803000820E2
:1052D0008DF804006848403802906846FEF75CFC90
:1052E0000520ADF8000000208DF802008DF80300C5
:1052F00008208DF804006048403802906846FEF7A8
:105300004BFC1320ADF8000000208DF802008DF852
:10531000030008208DF80400574880380290684642
:10532000FEF73AFC0920ADF8000000208DF80200DD
:105330008DF8030008208DF804004F484038029093
:105340006846FEF729FC0820ADF8000000208DF823
:1053500002008DF8030008208DF80400464840380C
:1053600002906846FEF718FC0720ADF80000002008
:105370008DF802008DF8030005208DF804003E48EA
:10538000403002906846FEF707FC0620ADF80000AA
:1053900000208DF802008DF8030005208DF8040030
:1053A0003548403002906846FEF7F6FB0520ADF820
:1053B000000000208DF802008DF8030005208DF814
:1053C00004002D48403002906846FEF7E5FB0420BB
:1053D000ADF8000000208DF802008DF803000520D4
:1053E0008DF804002448403002906846FEF7D4FB54
:1053F0000320ADF8000000208DF802008DF80300B6
:1054000005208DF804001C48403002906846FEF7E5
:10541000C3FB0220ADF8000000208DF802008DF8DB
:10542000030005208DF804001348403002906846C0
:10543000FEF7B2FB0120ADF8000000208DF802005D
:105440008DF8030005208DF804000B4840300290D1
:105450006846FEF7A1FB0020ADF800008DF80200C1
:105460008DF8030005208DF80400034840300290B9
:105470006846FEF791FB0EBD80F00F400010FE4322
:1054800010B500201B49C86001201B49087000208E
:105490001A49087001201A4908600020091F086095
:1054A0000120FEF723FA0020154908600120091F9A
:1054B0000860FEF71BFA0120114908600020091F4F
:1054C000086000240CE000200D49086001200860FD
:1054D000FEF70CFA01210020FEF71EF9601CC4B291
:1054E0007F2CF0DD01200349C860002002490870CC
:1054F00010BD00000010FE431B0100201C01002015
:105500001808FE430EB500208DF8090002208DF822
:1055100000000C4801900A208DF808006846FDF74D
:1055200059FF00208DF8090001208DF80000054882
:105530004030019004208DF808006846FDF74AFFCE
:105540000EBD000040F00F4010B512210520FFF7FE
:1055500083F9FEF7EFF9FEF7DBFEFEF779F900F0CD
:10556000A3F8FFF7CFFFFFF781FEFEF707F9FEF77D
:105570002DF94FF47A70FEF78FF94520FEF792FE71
:105580000020FEF78FFE0D480088012814D1FEF799
:1055900094FE10E00A48007801280CD10020084948
:1055A0000870FFF76DFFFFF71FFEFBF71BF800F019
:1055B00009F800F04FF8EDE7002010BD00000020D2
:1055C0001300002070B5002134E01E4D6D5CC5F164
:1055D000FF03DD1703EBD5656A111A4E765CC6F141
:1055E000FF03DE1703EBD6667611A3EB4615EE1725
:1055F00005EB9676C6F38704002017E0904204DDA1
:10560000FF23114D05EBC0156B54904205D1FF23CC
:10561000A3400D4D05EBC0156B54904204DA0023F6
:10562000094D05EBC0156B54431CD8B20728E5DDC6
:105630004B1CD9B27F29C8DD0025044B044E3678B7
:105640009D5570BD380100205C030020DC06002061
:105650001500002070B5002411E021460020FEF75F
:10566000ECFE042507E00D4901EBC411485DFEF78F
:1056700037FF681CC5B27C2DF5DD601CC4B2072C59
:10568000EBDD0748027802210020FEF7CBFF05483A
:10569000027800210846FEF7C5FF70BD5C030020BC
:1056A00048000020150000201CB501208DF80000E6
:1056B0000A2001906846FFF76DF80122002110468C
:1056C000FFF722F8452000F01F0201219140034A14
:1056D000430942F8231000BF1CBD000080E100E038
:1056E000F0B504460D46B4FBF5F028B1B4FBF5F671
:1056F00029463046FFF7F4FFB4FBF5F005FB1047F1
:1057000003480068C15D03480068FFF7E3FCF0BD93
:105710002C0100202801002010B591EA030F48BF9A
:1057200083F0004300F17C82841A71EB030C05D2F4
:10573000121943EB0C03001B61EB0C01DFF824E1B1
:105740004FEA1154A4EB135C1EEA430F18BF9EEA04
:10575000445F73D023EA0E03DCF1200E21EA0451EA
:1057600043F4801332D322FA0CFE10EB0E0023FA1E
:105770000CFE41EB0E01CCF1200E03FA0EFE10EBF5
:105780000E0051F10001B1F5801FCCF1200E32D294
:1057900001EB045112FA0EF2BDE8104058BF7047F9
:1057A000401C38BF5FEA420218BF7047002814BF90
:1057B00020F0010041F100014FEA410313F5001F01
:1057C00038BF7047A1F1C04100F0E6B9012A43EBB0
:1057D0000302ACF1200CDCF11F0E32BF4FF0000EC3
:1057E00023FA0CF310EB030041EB0451B4EB115F0F
:1057F000D0D0A1EB045101F5801149085FEA3000D7
:1058000001EB04510ED350F1000038BF12FA0EFE26
:1058100008D1BDE81040C9E7401C38BF5FEA42022A
:10582000CAD1C3E7BDE810404FEA410313F5001F9A
:1058300038BF7047A1F1C04100F0AEB99EEA445FA5
:1058400008D011EA5E0FBDE8104004BF01F000412E
:1058500000207047BDE8104070B500F04FF900BF60
:1058600064FBBE3E0000E0FF491058BFC1F140415B
:105870005B1058BFC3F140438B42EFF30080704789
:105880004FEA1153A3F58063D3F11E03A8BFD3F1F0
:10589000200C08DB4FF0004242EAC12252EA50528B
:1058A00032FA03F0704709420BD4102BC4BF00201A
:1058B000704703F5787CBCF1FF3F05D04FF0FF3017
:1058C00070474FF00000704770B500F017F900BF47
:1058D0004992248000207047F0E710F0004248BF52
:1058E0004042B0FA80F310FA03F10AD0C3F11D036D
:1058F00003F580634FEA415002EB035202EBD121E2
:1059000070474FF000007047B0FA80F310FA03F1CF
:105910000AD0C3F11D0303F580634FEA41504FEAFB
:10592000035202EBD12170474FF000007047000096
:1059300051EA030C17D41CF5801F58BFBCF5801F1B
:1059400000F10680994218BF704708BF9042704727
:1059500007D711F5801F58BF13F5801F19D499423E
:105960007047894270471CF5801F08D5BCF5801F21
:10597000F7D58B4218BF704708BF824270474FF47B
:10598000001C1CEB410F38BF1CEB430F01D28B42B4
:10599000704770B500F0B2F8922449004FF0005102
:1059A0004FF08053FFF760BFDFF848C170B51CEAC5
:1059B000111E1EBF1CEA13159EEA0C0F95EA0C0F70
:1059C00000F06F8081EA030423EA4C134EEAD47E90
:1059D00021EA4C1141F4801143F48013AE44A1FB41
:1059E000024CA0FB0365AEF17F7E361955EB0C052A
:1059F000A1FB034C4CF10003A0FB021C16EB0C06B0
:105A0000654153F10003094218BF46F0010613F443
:105A1000007F0BD14FEA03314FEA0530340341EAEE
:105A2000155140EA16506FF003020AE04FEAC32115
:105A30004FEAC520F40241EA555140EA56506FF052
:105A4000020202EB2E4201EB025585EACE710AD02A
:105A50005FEA440C18BF24F0004450F1000041F10B
:105A6000000120EAD47040F2FE7C624500D270BD95
:105A7000A84214BF4FF080444FF04044002E08BFAE
:105A80000024BEF1806FA8BFA1F1C041BDE8704005
:105A900080F282804FF0000001F1C04101F000412E
:105AA00070479EEA0C0F0CEA131518BF95EA0C0F0D
:105AB00006D04FF0000081EA030E0EF0004170BDE9
:105AC00000F01CF88900013E00F007B800F009B8AA
:105AD0004FEA430C5FEA5C5C08D081EA030100F006
:105AE0005BB84FEA410C5FEA5C5CF6D14FF0000016
:105AF000014970470000FF070000F87F0EF1020E19
:105B00002EF0030E5EF8046B364205D4012A43EBF7
:105B1000030515F5001F12D8012841EB010C1CF5F7
:105B2000001F0CD80ED14FEAD17C15F5001F0CEBED
:105B30004C0C0CF1020C08BF4CEBD37C04E04FF092
:105B4000080C01E04FEAD37C0CEB4C0526FA05F675
:105B500006F00706B6F1040C06D20EEB860CBDE883
:105B600070404CF0010C6047DFE80CF0090B0202BA
:105B70004FF000414FF00000A1F5002170BD194623
:105B80001046012851EB010418BFD4F5001484BF5E
:105B9000002001F0004170BD0808A0F500114FEA97
:105BA0003101704753EA010C17D41CF5801F58BF10
:105BB000BCF5801F00F106808B4218BF704708BFFC
:105BC0008242704707D713F5801F58BF11F5801F19
:105BD00019D48B4270479B4270471CF5801F08D533
:105BE000BCF5801FF7D5994218BF704708BF904297
:105BF00070474FF4001C1CEB430F38BF1CEB410FE8
:105C000001D2994270470FB40CBC03BCFFF7C1BE70
:105C100010B591EA030F48BF83F000433FF584AD10
:105C2000841A71EB030C07D212198CF0004C43EB71
:105C30000C03001B61EB0C01DFF8A4E14FEA1154E7
:105C4000A4EB135C1EEA430F18BF9EEA445F00F00A
:105C5000B08023EA6E03524221EA0451C3EB6E0383
:105C600038BF5B1EDCF1200E25D322FA0CFE10EBB0
:105C70000E0043FA0CFE41EB0E01CCF1200E03FAAC
:105C80000EFE10EB0E0051F10001CCF1200E29D4D4
:105C900012FA0EF201EB0451BDE8104058BF7047F4
:105CA000401C1CBFB2F1004F704700280CBF491CBC
:105CB00020F00100704712EB020E43EB030218BF05
:105CC0004FF0010E4EEA4202ACF1200CDCF11E0E48
:105CD00054D943FA0CFE10EB0E0051F1FF31CCF118
:105CE0001E0ED5D50EF1010E12FA0EFE404141EB0B
:105CF000010101EB445C5FEA5C5C10D910EBDE70E3
:105D000001EB045138BFBEF1004FBDE8104018BF91
:105D1000704700280CBF491C20F00100704730D2AA
