:020000040000FA
:1000000048B6FF1F51060000590600005B060000BD
:100010005D0600005F0600006106000000000000B1
:100020000000000000000000000000006306000067
:100030006506000000000000670600006906000079
:100040006B0600006B0600006B0600006B060000EC
:100050006B0600006B0600006B0600006B060000DC
:100060006B0600006B0600006B0600006B060000CC
:100070006B0600006B0600006B0600006B060000BC
:100080006B0600006B0600006B0600006B060000AC
:100090006B0600006B0600006B0600006B0600009C
:1000A0006B0600006B0600006B0600006B0600008C
:1000B0006B0600006B0600006B0600006B0600007C
:1000C0006B0600006B0600006B0600006B0600006C
:1000D0006B0600006B0600006B0600006B0600005C
:1000E0006B0600006B0600006B0600006B0600004C
:1000F0006B0600006B0600006B0600006B0600003C
:100100006B0600006B0600006B0600006B0600002B
:100110006B060000790800006B0600006B0600000B
:100120006B0600006B0600006B0600006B0600000B
:100130006B0600006B0600006B0600006B060000FB
:100140006B0600006B0600006B0600006B060000EB
:10015000970800006B0600006B0600006B060000AD
:100160006B0600006B0600006B0600006B060000CB
:100170005D2D00006B2D0000792D00006B06000046
:100180006B0600006B0600006B060000C50800004F
:100190006B0600006B0600006B0600006B0600009B
:1001A000A90800006B0600006B0600006B0600004B
:1001B0006B0600006B0600006B0600006B0600007B
:1001C0006B0600006B0600006B0600006B0600006B
:1001D0006B0600006B0600006B0600006B0600005B
:1001E0006B0600006B0600006B0600006B0600004B
:10040000FFFFFFFFFFFFFFFFFFFFFFFFFEFFFFFFFD
:1004100000F002F800F03AF80AA090E8000C8244DC
:100420008344AAF10107DA4501D100F02FF8AFF2B9
:10043000090EBAE80F0013F0010F18BFFB1A43F0C2
:1004400001031847C85B0000E85B0000103A24BFB6
:1004500078C878C1FAD8520724BF30C830C144BF29
:1004600004680C607047000000230024002500266B
:10047000103A28BF78C1FBD8520728BF30C148BF07
:100480000B6070471FB51FBD10B510BD04F0E0FA3A
:100490001146FFF7F7FF00F0F9F804F0FEFA03B495
:1004A000FFF7F2FF03BC04F003FB0000C0BA704783
:1004B0004CF220506149C8814DF62810C8814FF494
:1004C000E97008804FF488105D49486406205D4952
:1004D0000870002048700846C07800F03F0040F0E7
:1004E0002000C87000200871487100BF554880790D
:1004F00000F010000028F9D000BF5248807900F0C9
:100500000C000028F9D170474E4A127802F0C00260
:10051000002A67D14B4A527902F04002002A51D199
:10052000484A127802F00402C2B9454A526802F001
:1005300001020AB9444801E04FF40040414A1278F0
:10054000C2F3C20301229A40D1B2B0FBF1F03D4A9E
:10055000527802F030021AB1400901E04FF4004035
:10056000384AD27802F0E00202F01F0343BB521176
:10057000082A25D2DFE802F004080C1014181C2009
:1005800000EB8002D0011CE000EB8002100218E0BA
:10059000C0EB0012D00114E000EB8002500210E02A
:1005A0004FF4377250430CE04FF4B762504308E009
:1005B00040F69502504304E040F67132504300E0AB
:1005C00000BF30E01F4A127902F01F02511C1E4A80
:1005D000B2FBF1F01B4A527902F01F0202F118013E
:1005E000484320E0174A127802F0C002402A09D19D
:1005F000144A527802F0010212B94FF4004012E09E
:10060000114810E00F4A127802F0C002802A09D186
:100610000B4A526802F001020AB90B4803E04FF49A
:10062000004000E07047064A526C012303EB12724F
:10063000B0FBF2F2054B1A6000BFF3E70020054063
:10064000008004400040064000093D000080FF1F7C
:100650000948804709480047FEE7FEE7FEE7FEE756
:10066000FEE7FEE7FEE7FEE7FEE7FEE70448054992
:10067000034A054B70470000B1040000110400005C
:1006800048B2FF1F48B6FF1F48B2FF1F1CB5002429
:100690001221052000F0BAFA4FF4E13144F2104083
:1006A00002F0C4FC02F0F6FE00F0D6FC03F0C4F841
:1006B00003F052F903F0CAFC03F088FF00208DF824
:1006C00000000A200190684601F07EF80122002116
:1006D000084601F032F9442000F01F020121914048
:1006E0004209920002F1E022C2F8001100BF03F0BB
:1006F000AEFD58B901203B4948643BA002F095FE8D
:1007000001220021084603F0E1FF02E03CA002F0D4
:100710008CFE03F0F2FD5BE03F480078012805D134
:1007200003F0E7FC044600203B49087034B1012C7B
:1007300005D0022C18D0032C40D12AE03FE003F072
:1007400001FE312035490875084603F025FE2028B2
:1007500003D133A002F069FE02E034A002F065FE8E
:1007600003F0CBFD00242AE003F0ECFD32202B49FE
:100770000875084603F010FE202803D12EA002F0D1
:1007800054FE02E029A002F050FE03F0B6FD002462
:1007900015E003F0D7FD332020490875084603F023
:1007A000FBFD202803D124A002F03FFE02E01FA0A1
:1007B00002F03BFE03F0A1FD002400E000BF00BFFB
:1007C000204803F014FE18B91E491FA002F02DFEA8
:1007D000A2E704460D462246294620A002F025FE47
:1007E00000BFFEE70010FE434E5245463234303122
:1007F00020B3F5CABCBBAFB3C9B9A60D0A0000004F
:100800004E5245463234303120B3F5CABCBBAFCA74
:10081000A7B0DC0D0A0000002480FF1F0480FF1F2A
:10082000B3C9B9A6B7A2CBCD0D0A0000B7A2CBCDF4
:10083000CAA7B0DC0D0A0000B7A2CBCDB3C9B9A6D8
:100840000D0A00004C80FF1FBDD3CAD5B5BDCAFD3F
:10085000BEDDCAFDBEDD3A25730D0A006173736506
:1008600072745F6661696C65643A6C696E653A259D
:10087000642025730D0A000008B5214802F07CFDB4
:1008800069461F4802F0A1FD20B19DF800101C48E8
:1008900002F0E8FC08BD10B501201A4908700021DB
:1008A000084601F0A4F810BD10B51748006808B953
:1008B000012000E00020144908600921134800F0DD
:1008C000A7FD10BD10B500240521114801F0BAFEA6
:1008D0000446012C0DD10F48008850B90E48806C99
:1008E00008B9012000E000200B4988640BA002F049
:1008F0009CFD08480480064801F0B1FE10BD0000D0
:1009000000A00E402480FF1F0418FE4340F00F405B
:10091000005004402680FF1F0010FE43545349201E
:10092000456E746572496E74200D0A00FE480078A9
:1009300000F0040010B10120FC494870FA4800782A
:1009400000F0020010B10220F8494870F648007823
:1009500000F0010010B10320F4494870F2484078DB
:1009600000F0800010B10420F0494870EE48407853
:1009700000F0400010B10520EC494870EA4840788A
:1009800000F0200010B10620E8494870E6484078A1
:1009900000F0040010B10720E4494870E2484078B4
:1009A00000F0020010B10820E0494870DE484078AD
:1009B00000F0010010B10920DC494870DC48406AB1
:1009C000C0F30210082825D2DFE800F004080C105C
:1009D00014181C200A20D54908701FE01420D349A0
:1009E00008701BE01E20D149087017E02820CF496D
:1009F000087013E03C20CD4908700FE04620CB4939
:100A000008700BE03220C949087007E03520C7495B
:100A1000087003E00020C549087000BF00BFC4484B
:100A2000406A00F00F00801E0D2831D2DFE800F090
:100A300007300B0F13171B1F233027302B002020EC
:100A4000BA49888028E03020B849888024E04020D6
:100A5000B649888020E05020B44988801CE05120AD
:100A6000B249888018E06420B049888014E068208A
:100A7000AE49888010E09020AC4988800CE0C4200A
:100A8000AA49888008E04FF48070A849888003E074
:100A90000020A649888000BF00BFA548406AC0F377
:100AA000033020B1012806D002280CD107E00A202B
:100AB0009E4988700BE00B209C49887007E00C2051
:100AC0009A49887003E000209849887000BF00BFF1
:100AD0009748C06CC0F30360072806D0092809D0E6
:100AE0000B280CD00F2814D10EE04FF400308F49A2
:100AF000886012E04FF480208C4988600DE04FF44C
:100B000000208A49886008E04FF400208749886007
:100B100003E000208549886000BF00BF8448006D65
:100B200000F4000018B100208049C86022E080482D
:100B3000C06C000F30B1072808D009280BD00F284F
:100B400013D10DE000207949C86012E04FF4003065
:100B50007649C8600DE04FF480207449C86008E011
:100B60004FF480207149C86003E000206F49C860DD
:100B700000BF00BF6F480068C0F30330052806D0EF
:100B8000072809D008280CD0092814D10EE04FF40A
:100B900000406649086112E04FF480306349086103
:100BA0000DE04FF4C0306149086108E04FF40030B7
:100BB0005E49086103E000205C49086100BF00BF96
:100BC0005D480068594948615948406CC0F303606A
:100BD000401C59490968B1FBF0F0544988615448F8
:100BE000406CC0F30350401C53490968B1FBF0F05E
:100BF0004E49C8614E48406CC0F30340401C4E490A
:100C00000968B1FBF0F049490862704770B50446C5
:100C10000D461CB1052C01D0062C00D103E080212B
:100C200046A0FFF7D6FD122D09D0132D07D0112DA8
:100C300005D0102D03D0092D01D0082D00D103E0DF
:100C400081213EA0FFF7C5FD002C5BD1601E384915
:100C5000486406203F490870002048700846C07864
:100C600020F0E000C870082D1DD0102D0DD0112DE2
:100C700027D10846C07840F0E000C87036482C49BB
:100C8000486436482C49086029E03248C07840F072
:100C9000C0003049C8704FF0897025494864304819
:100CA000254908601BE02B48C07840F0A000294986
:100CB000C8704FF480301E4948642A481E490860B5
:100CC0000DE02448C07840F0A0002249C8704FF4DD
:100CD00080301749486423481749086000BF00BFA7
:100CE00000201C490871487100BF1A48807900F043
:100CF00010000028F9D000BF1648807900F00C00E1
:100D00000028F9D1062C01D0052C73D14FF0FF300B
:100D1000074948640020144908700548406800F0FD
:100D2000FE000349486021E000E007406C80FF1F9F
:100D300000800440007004400080FF1F2E2E5C5392
:100D400052435C46574C49425C5359535C73797328
:100D50002E630000004006400000130100D8B805D3
:100D600000A24A04006CDC02005006402420AC497A
:100D700048709A2008700846C07800F01F00C870BC
:100D8000032008710020487100BFA548807900F059
:100D900002000028F9D000BFA148807900F01000BF
:100DA0000028F9D100BF9E48807900F00C00082887
:100DB000F9D1062C03D103209949087104E0052CD0
:100DC00002D1182096490871A5F108000C2855D2C7
:100DD000DFE800F006115454545454541C27313B9E
:100DE00040208F49487180028E4948648E488F495F
:100DF00008604DE06CE04820894948714FF08970E7
:100E0000884948648A488949086041E04C208449FF
:100E100048714FF089708349486486488349086067
:100E200036E058207E49487183487E4948648348AB
:100E30007E4908602CE05A20794948717E487949FA
:100E400048647F487949086022E0062C08D10120D7
:100E5000734908715A2048717A487249486409E018
:100E6000052C07D10C206E4908715C20487175482B
:100E70006C49486474486D49086009E0402068493D
:100E8000487180026749486467486849086000BF44
:100E900000BF00BF6248807900F020000028F9D030
:100EA00000BF5F48807900F040000028F9D01A2088
:100EB0005B49087000BF5A48807900F00C000C288C
:100EC000F9D100BF5648807900F040000028F9D0E1
:100ED000FFF72CFD70BD2DE9F05F07460C46154667
:100EE0001E46072C07D0062C05D0052C03D0042C59
:100EF00001D0032C00D105E040F20D11AFF2C41077
:100F0000FFF767FC102D00D205E04FF48771AFF2B8
:100F1000D410FFF75EFC102E00D205E040F20F1156
:100F2000AFF2E810FFF755FC00BF04F00701474A95
:100F300010684FF6FF021040454A024342EA012082
:100F4000424A106000BF38462346AC46B04603F024
:100F50000702C2F1070BBBF1040F02D94FF0040BDB
:100F600001E0C2F1070BDA4602F1040BBBF1070FF7
:100F700002D24FF0000B01E0A2F1030BD9464FF073
:100F8000010B0BFA0AFBABF1010B0BEA0C0B0BFA92
:100F900009FB4FF0010E0EFA09FEAEF1010E0EEA4A
:100FA000080E4BEA0E0100BF00280ADA0A074FEAD2
:100FB000126C264A0C3200F00F031B1F02F803C00C
:100FC00003E00A07130E234A135400BFBDE8F09F45
:100FD00000BFBFF34F8F1D48006800F4E0601C495C
:100FE0000843001D19490860BFF34F8F00BF00BFC1
:100FF000FEE762B6704772B6704710B5044604F05B
:10100000030000B905E040F23D11AFF2D020FFF738
:10101000E0FB0E48001F046010BDF0207047000088
:101020000040064000800440006CDC020080FF1F8E
:101030000090D00300A24A040000130100D8B805B4
:1010400000E1F5050000170100C2EB0B0CED00E01C
:101050000000FA0500E400E010B54FF0E020006960
:1010600040F004004FF0E0210861FFF75FFC2D48DD
:1010700040692D49B0FBF1F02C4908700846007812
:101080004FF47A7110FB01F02949086010BD014648
:10109000264A12784A434FF0E0235A6100229A61AF
:1010A0001A46126942F001021A6100BF4FF0E022B5
:1010B000106900F001021AB100F48032002AF5D064
:1010C0004FF0E022126922F001024FF0E0231A6192
:1010D000704710B50146002220E0154B1B684FF009
:1010E000E02463610023A36123461B6943F00103ED
:1010F000236100BF4FF0E023186900F001031BB12A
:1011000000F48033002BF5D04FF0E0231B6923F06F
:1011100001034FF0E0242361531C9AB28A42DCD3CE
:1011200010BD00006C80FF1F40420F002880FF1F91
:101130002C80FF1F70B5044600260025FE49A068DC
:10114000884212D0FC494031A06888420DD0FA494B
:101150008031A068884208D0F749C031A068884231
:1011600003D0F649A068884200D103E01E21F4A014
:10117000FFF72FFB2088202800DA03E01F21F0A0D2
:10118000FFF727FBA07810B1A078012800D103E079
:101190002021EBA0FFF71DFBE078B8B1E078012833
:1011A00014D0E078022811D0E07803280ED0E0783F
:1011B00008280BD0E078092808D0E0780A2805D064
:1011C000E0780B2802D0E0780C2800D103E0212140
:1011D000DBA0FFF7FEFA207904280BD02079052840
:1011E00008D02079062805D02079072802D0207958
:1011F000082800D103E02221D1A0FFF7EAFAA6686F
:10120000CD498031701A8E421BD005DCD348304462
:1012100038B140282DD10CE040281AD0802828D1A0
:101220001FE0CF4DCF48806B40F40070CD498863FC
:1012300020E0CD4DCB48806B40F48060C949886385
:1012400018E0CA4DC748806B40F40060C549886308
:1012500010E0C74DC348806B40F48050C14988639B
:1012600008E0C44DBF48806B40F40050BD4988631E
:1012700000E000BF00BF208855F8200020F4E060A7
:10128000218845F82100208855F8200040F480701E
:10129000218845F821002079072802D020790828E4
:1012A00035D170692278012191400843706120880E
:1012B00055F8200020F00200218845F82100A07890
:1012C000012806D13068227801219140084330601E
:1012D00005E0306822780121914088433060207910
:1012E000072808D1208855F8200040F020002188E8
:1012F00045F821004DE0207908284AD1208855F88A
:10130000200020F02000218845F8210041E02079CC
:10131000042805D02079052802D02079062838D164
:1013200070692278012191408843706120790428F6
:1013300008D1208855F8200020F00200218845F8C7
:10134000210026E02079052810D1208855F82000BA
:1013500040F00200218845F82100208855F820003F
:1013600020F00100218845F8210012E020790628AC
:101370000FD1208855F8200040F00200218845F860
:101380002100208855F8200040F00100218845F810
:101390002100208855F8200020F47020218845F88D
:1013A0002100208855F82000E1784FF4702202EAED
:1013B00001410843218845F8210070BD10B502465F
:1013C00000235D4C8034101BA2420FD005DC634823
:1013D000104438B140280FD106E0402808D08028BA
:1013E0000AD107E05E4B08E05F4B06E05F4B04E08C
:1013F0005F4B02E05F4B00E000BF00BFD3F8A000EE
:1014000001248C40204008B1012010BD0020FCE7E1
:1014100010B50022484C8034031BA0421BD005DCD1
:101420004E4B03443BB1402B2DD10CE0402B1AD046
:10143000802B28D11FE04A4A4A4B9B6B43F4007330
:10144000484CA36320E0484A464B9B6B43F48063BF
:10145000444CA36318E0454A424B9B6B43F4006342
:10146000404CA36310E0424A3E4B9B6B43F48053D5
:101470003C4CA36308E03F4A3A4B9B6B43F4005358
:10148000384CA36300E000BF00BFD2F8A0300124B5
:101490008C402343C2F8A03010BD0021C17004214C
:1014A0000171704770B504460D46164622488442C5
:1014B0000ED02148403084420AD01F4880308442F8
:1014C00006D01E484038844202D01C48844200D1D5
:1014D00003E0BF211AA0FFF77CF9202D00DA03E01A
:1014E000C02117A0FFF775F90EB1012E00D103E05E
:1014F000C12113A0FFF76DF92EB160680121A94049
:101500000843606004E0A0680121A9400843A0608E
:1015100070BD70B504460D46074884422FD006487A
:10152000403084422BD004488030844227D0034886
:101530004038844223D01FE000F00F4000F10F40FC
:101540002E2E5C5352435C46574C49425C475049EF
:101550004F5C6770696F2E63000000000010F0BFE1
:10156000009004400080044000A0044000B004400B
:1015700000C0044000D004409148844200D104E0FF
:10158000DC21AFF24400FFF724F9202D00DA04E05B
:10159000DD21AFF25400FFF71CF960680121A9407A
:1015A0000843606070BD70B504460D4685488442AE
:1015B0000ED08448403084420AD08148803884422A
:1015C00006D07F484038844202D07D48844200D112
:1015D00004E0F021AFF29800FFF7FBF8202D00DACD
:1015E00004E0F121AFF2A800FFF7F3F8A0680121B1
:1015F000A9400843A06070BD70B504460D4671480F
:1016000084420ED06F48403084420AD06C48803803
:10161000844206D06A484038844202D068488442F6
:1016200000D105E040F20511AFF2EC00FFF7D1F870
:10163000202D00DA05E04FF48371AFF2FC00FFF7D4
:10164000C8F8E0680121A9400843E06070BD70B5AA
:1016500004460D465B4884420ED05A4840308442CE
:101660000AD057488038844206D0554840388442D2
:1016700002D05348844200D105E04FF48D71AFF29F
:101680004010FFF7A6F8256070BD70B504460D4602
:1016900000264C4884420ED04A48403084420AD04A
:1016A00047488038844206D045484038844202D0BA
:1016B0004348844200D105E04FF49771AFF28010A7
:1016C000FFF787F8202D00DA05E040F22F11AFF286
:1016D0009010FFF77EF82068E84000F0010008B1A4
:1016E000012600E00026304670BD10B5044635489E
:1016F00084420ED03348403084420AD0304880388B
:10170000844206D02E484038844202D02C4884427D
:1017100000D105E040F24911AFF2DC10FFF759F8B3
:10172000206880B210BD70B504460D4600262548DD
:1017300084420ED02348403084420AD0204880386A
:10174000844206D01E484038844202D01C4884425D
:1017500000D105E04FF4AF71AFF21C20FFF739F86C
:10176000202D00DA05E040F25F11AFF22C20FFF7E8
:1017700030F82069E84000F0010008B1012600E0DF
:101780000026304670BD10B504460E4884420ED087
:101790000C48403084420AD009488038844206D040
:1017A00007484038844202D00548844200D105E011
:1017B00040F27911AFF27820FFF70BF8206910BDE5
:1017C00000F10F4000F00F4070B50446002520786E
:1017D00040B12078012805D02078022802D0207856
:1017E000032800D103E0152191A0FEF7F2FFFFF7D7
:1017F0009DF8954880694FF47A71B0FBF1F061680B
:1018000000FB01F59148C06B40F400008F49C863AC
:101810008F48006820F002008D4908600846006883
:1018200040F0010008608B48217800EB0110056052
:101830008848217800EB0110C06840F0010185481C
:10184000227800EB0210C1608248217800EB011081
:10185000806840F001017F48227800EB021081602F
:1018600070BD10B504462CB1012C03D0022C01D060
:10187000032C00D103E030216DA0FEF7AAFF7548CC
:1018800000EB0410006810BD10B504462CB1012C0B
:1018900003D0022C01D0032C00D103E0412164A02D
:1018A000FEF797FF6B4800EB0410406810BD70B561
:1018B00004460D462CB1012C03D0022C01D0032C80
:1018C00000D103E053215AA0FEF783FF614800EBEB
:1018D0000410056070BD10B504462CB1012C03D076
:1018E000022C01D0032C00D103E0642150A0FEF7AC
:1018F00070FF584800EB0410806840F00101554823
:1019000000EB0410816010BD10B504462CB1012C11
:1019100003D0022C01D0032C00D103E0752144A098
:10192000FEF757FF4B4800EB0410806820F00101E0
:10193000484800EB0410816010BD70B504460E46A7
:10194000154606B903E08B2139A0FEF742FF2CB102
:10195000012C03D0022C01D0032C00D103E08C21F8
:1019600033A0FEF736FF0DB1012D00D103E08D212C
:101970002FA0FEF72EFFB6B9012D0AD1354800EB96
:101980000410806840F00201324800EB04108160CE
:1019900009E0304800EB0410806820F002012D4877
:1019A00000EB0410816070BD70B504460D4605B9AA
:1019B00003E0A3211EA0FEF70CFF2CB1012C03D0E5
:1019C000022C01D0032C00D103E0A42118A0FEF7C3
:1019D00000FF55B91F4800EB0410C06800F001007B
:1019E00008B1012070BD0020FCE70020FAE770B5C7
:1019F00004460D4605B903E0C2210DA0FEF7E9FE3D
:101A00002CB1012C03D0022C01D0032C00D103E017
:101A1000C32107A0FEF7DDFE0E4800EB0410C068EE
:101A200040F001010B4800EB0410C16070BD0000E4
:101A30002E2E5C5352435C46574C49425C504954ED
:101A40005C7069742E6300006C80FF1F008004408E
:101A50000070034000710340082101720921818157
:101A6000012181720021C1724172C18170472DE94B
:101A7000F041044600250027264604F10408FB49EE
:101A80002068884213D0FA49206888420FD0F9496B
:101A9000206888420BD0F8492068884207D0F7496F
:101AA0002068884203D0F6492068884200D103E0CC
:101AB0002821F4A0FEF78DFE40F608616068884298
:101AC00027D06068B0F5527F23D06068B0F5127FF0
:101AD0001FD06068B0F5A47F1BD06068482818D07C
:101AE00040F629216068884213D040F629116068C9
:101AF00088420ED040F289516068884209D040F295
:101B000089616068884204D041F22A416068884255
:101B100000D103E02921DBA0FEF75BFEA08900B322
:101B2000A08901281DD0A08902281AD0A0890328E5
:101B300017D0A089042814D0A089052811D0A08925
:101B400006280ED0A08907280BD0A089082808D025
:101B5000A089092805D0A0890A2802D0A0890B28CD
:101B600000D103E02A21C7A0FEF733FEA07A0128A6
:101B700002D0A07A022800D103E02B21C1A0FEF7F9
:101B800028FEE07A10B1E07A012800D103E02C2190
:101B9000BCA0FEF71EFE607A10B1607A022800D168
:101BA00003E02D21B7A0FEF714FEE08910B1E08913
:101BB000012800D103E02E21B2A0FEF70AFE307802
:101BC00000F0030020B101280AD0022818D10FE04C
:101BD000B248C06B40F48050B049C863B04D10E0CB
:101BE000AE48C06B40F40050AC49C863AD4D08E04E
:101BF000AA48006B40F48050A8490863AA4D00E051
:101C000000BF00BF3078C0F3421005282CD2DFE8B7
:101C100000F0030B131B2300A048806B40F40070FE
:101C20009E498863A14F20E09C48806B40F480600F
:101C30009A4988639E4F18E09848806B40F4006092
:101C4000964988639B4F10E09448806B40F4805025
:101C500092498863984F08E09048806B40F40050A8
:101C60008E498863954F00E000BF00BF3088C0F305
:101C7000052057F8200020F4E0603188C1F30521E9
:101C800047F821003068C0F3055057F8200020F4D1
:101C9000E0603168C1F3055147F821003068C0F3B6
:101CA000853057F8200020F4E0603168C1F38531B9
:101CB00047F821003088C0F3052057F8200031781C
:101CC000C1F382014FF4E06202EA01210843318846
:101CD000C1F3052147F821003068C0F3055057F8DB
:101CE00020003178C1F3820102EA01210843316802
:101CF000C1F3055147F821003068C0F3853057F82B
:101D000020003178C1F3820102EA012108433168E1
:101D1000C1F3853147F8210098F80000C0F3421064
:101D200005282CD2DFE800F0030B131B23005B48CF
:101D3000806B40F40070594988635C4F20E057483D
:101D4000806B40F4806055498863594F18E05348D0
:101D5000806B40F4006051498863564F10E04F4853
:101D6000806B40F480504D498863534F08E04B48E6
:101D7000806B40F4005049498863504F00E000BF39
:101D800000BFB8F80000C0F3052057F8200020F489
:101D9000E060B8F80010C1F3052147F82100B8F859
:101DA0000000C0F3052057F8200098F80010C1F398
:101DB00082014FF4E06202EA01210843B8F8001002
:101DC000C1F3052147F82100A07A012804D1286831
:101DD00040F00040286003E0286820F000402860C0
:101DE00037482860207A401E4FF0F04101EAC06079
:101DF00040F0004028612869217B01F00F01084371
:101E00002861E07A20B9286920F00071296103E097
:101E1000286940F000712961607A20B9286920F0B2
:101E20008061296103E0286940F080612961E089CF
:101E300020B9286920F08071296103E0286940F009
:101E4000807129611F48E862286820F0010028603D
:101E5000BDE8F0812DE9F7430E4615464FF0000826
:101E600000246F460DB1012D2ED132E0080F140170
:101E7000488571006881300089423000290B1401C7
:101E80002A9575012E2E5C5352435C46574C4942AD
:101E90005C5350495C7370692E63000000800440FD
:101EA00000C0024000D0024000C00A400090044040
:101EB00000A0044000B0044000C0044000D0044032
:101EC000013C3F8000000A9AB521AFF24800FEF7BE
:101ED00080FC40F608610098884227D00098B0F551
:101EE000527F23D00098B0F5127F1FD00098B0F534
:101EF000A47F1BD00098482818D040F629210098CC
:101F0000884213D040F62911009888420ED040F242
:101F100089510098884209D040F28961009888422E
:101F200004D041F22A410098884200D104E0B62151
:101F3000AFF2B000FEF74DFC387800F0030020B19E
:101F4000012804D0022806D103E0D54C04E0D54C8A
:101F500002E0D54C00E000BF00BF00BFE06A00F027
:101F600000700028FAD04FF0004000EAC57040F041
:101F700080503968C1F38532012191404FF47C12C1
:101F800002EA01410843B1B20843606300BFE06A5E
:101F900000F000400028FAD0E06A40F00040E06223
:101FA00000BFE06A00F400300028FAD0A06B00F017
:101FB000FF08E06A40F40030E0624046BDE8FE837E
:101FC00070B504460E461546B548844205D0B5485E
:101FD000844202D0B448844200D104E0E421AFF24C
:101FE0005C10FEF7F6FB46B1012E06D0022E04D09F
:101FF000042E02D001D0052E00D104E0E521AFF27D
:102000007C10FEF7E6FB0DB1012D00D104E0E621C6
:10201000AFF29010FEF7DDFB062E4CD2DFE806F0A3
:10202000030F1B27333F012D04D1206B40F080505C
:10203000206303E0206B20F0805020633CE0012D02
:1020400004D1206B40F00070206303E0206B20F08F
:102050000070206330E0012D04D1206B40F000407F
:10206000206303E0206B20F00040206324E0012D7A
:1020700004D1206B40F00060206303E0206B20F06F
:102080000060206318E0012D04D1206B40F4003083
:10209000206303E0206B20F4003020630CE0012D6E
:1020A00004D1206B40F40020206303E0206B20F477
:1020B0000020206300E000BF00BF70BD70B5054682
:1020C0000E467748854205D07648854202D076484C
:1020D000854200D105E04FF48771AFF25820FEF73A
:1020E00078FB46B1012E06D0022E04D0042E02D079
:1020F00001D0052E00D105E040F20F11AFF27C2097
:10210000FEF767FB062E34D2DFE806F0030B131B45
:10211000232BE86A00F0805008B1012400E000247D
:1021200028E0E86A00F0007008B1012400E0002413
:1021300020E0E86A00F0004008B1012400E000243B
:1021400018E0E86A00F0006008B1012400E0002413
:1021500010E0E86A00F4003008B1012400E0002437
:1021600008E0E86A00F4002008B1012400E000243F
:1021700000E000BF00BF204670BD70B504460D46AC
:102180004748844205D04748844202D046488442AA
:1021900000D105E04FF49C71AFF21830FEF719FB47
:1021A00045B1012D06D0022D04D0042D02D001D05E
:1021B000052D00D105E040F23911AFF23830FEF7BD
:1021C00008FB062D22D2DFE805F003080D12171CCC
:1021D000E06A40F08050E06219E0E06A40F0007090
:1021E000E06214E0E06A40F00040E0620FE0E06A84
:1021F00040F00060E0620AE0E06A40F40030E06233
:1022000005E0E06A40F40020E06200E000BF00BFAB
:1022100070BD70B504460E4615462148844205D06F
:102220002048844202D02048844200D105E04FF487
:10223000B171AFF2B030FEF7CCFA0EB1012E00D181
:1022400005E040F26311AFF2C430FEF7C2FA0DB1FF
:10225000012D00D105E04FF4B271AFF2D830FEF796
:10226000B8FA16B1012E18D10BE0012D04D1206B64
:1022700040F08070206303E0206B20F080702063CA
:102280000CE0012D04D1206B40F48030206303E08A
:10229000206B20F48030206300E000BF00BF70BDE1
:1022A00000C0024000D0024000C00A4001460020A9
:1022B000102973D2DFE801F0080C131820283035FC
:1022C0003D424A4F575C6469EF4A126890B266E03B
:1022D000ED4A12684FF6FF7303EA12405FE0EA4AE4
:1022E000121D126890B25AE0E74A121D12684FF6AA
:1022F000FF7303EA124052E0E34A083212684FF6D5
:10230000FF7303EA12404AE0DF4A083212684FF6D0
:10231000FF7303EA124042E0DB4A0C32126890B2CB
:102320003DE0D94A0C3212684FF6FF7303EA1240BF
:1023300035E0D54A1032126890B230E0D24A1032FD
:1023400012684FF6FF7303EA124028E0CE4A1432B7
:10235000126890B223E0CC4A143212684FF6FF7331
:1023600003EA12401BE0C84A1832126890B216E025
:10237000C54A183212684FF6FF7303EA12400EE0A6
:10238000C14A1C32126890B209E0BF4A1C3212687E
:102390004FF6FF7303EA124001E0FFE700BF00BF02
:1023A000704770B50646B948006840F08000B749EC
:1023B00008600846006840F48070086000BFB348B9
:1023C000006800F400400028F9D0002501E0681CF6
:1023D00085B241F288308542F9DB3046FFF766FF6F
:1023E00084B2A4F57A7104F57A7061F31F40A649AE
:1023F000203141F82600A548006820F08000A3495C
:10240000086070BDF0B50646A04C00273546A048D0
:10241000806B40F020009E4988632888C0F3C2206A
:1024200005282CD2DFE800F0030B131B2300994F83
:102430009748806B40F40070954988631FE0964F81
:102440009348806B40F480609149886317E0934F14
:102450008F48806B40F400608D4988630FE0904F97
:102460008B48806B40F480508949886307E08D4F2A
:102470008748806B40F400508549886300BF00BFE7
:102480002868C0F3853057F8200020F4E060296800
:10249000C1F3853147F821002868C0F3853057F82B
:1024A00020002988C1F302214FF4E06202EA0121F1
:1024B00008432968C1F3853147F82100206840F4BA
:1024C00047002060606820F478006060606840F435
:1024D00078006060606820F078406060606840F07C
:1024E00078406060606820F4E0206060606840F4DC
:1024F000E020606060686060206820F080002060FC
:1025000000BF206800F400700128FAD05F4880689E
:102510002978C1F385020121914008435B49886015
:10252000206840F0800020602978C1F38500FFF723
:1025300038FF206840F002002060206840F08000F2
:102540002060307930B95148006840F010004F49A0
:10255000086005E04D48006820F010004B49086015
:10256000F0BD31B1012905D002290FD003291AD1BC
:102570000DE000BF012A04D1036843F0400303606B
:1025800003E0036823F0400303600DE000BF012A6D
:1025900004D1036843F02003036003E0036823F0E1
:1025A0002003036000E000BF00BF70470246002028
:1025B00031B101290CD0022912D0032920D117E012
:1025C000136803F400430BB1012000E0002018E081
:1025D000136803F480430BB1012000E0002010E0F9
:1025E000136803F400530BB1012000E0002008E061
:1025F000136803F480530BB1012000E0002000E0D9
:1026000000BF00BF704731B1012909D002290CD0A9
:10261000032914D10EE0026842F4004202600FE088
:10262000026842F4804202600AE0026842F400520A
:10263000026005E0026842F48052026000E000BFE0
:1026400000BF704703461148C06882B242FA01F0E9
:1026500000F0010008B1012070470020FCE701688C
:1026600041F480410160016841F40041016001686A
:1026700041F400510160016841F4805101604FF064
:10268000FF31C16070470000005104400050044019
:10269000008004400090044000A0044000B00440CA
:1026A00000C0044000D00440FA4800E0401C00F0A4
:1026B0000F02002AFAD1F84A1060F84800E0401CE6
:1026C00000F00F02002AFAD1F54A10600022F24B06
:1026D0001B685A80F04B1B681A801822EE4B1B684F
:1026E0009A60F04800E0401C00F00F02002AFAD186
:1026F000002121E08022EA4B1B6803EB41131A8082
:102700000022E74B1B6803EB41135A8002BAE44BEB
:102710001B6803EB41135A6000F5BE600022E04BDA
:102720001B6803EB41131A614FF40042DC4B1B683A
:1027300003EB41139A60491C0829DBD3D84A12687D
:10274000B2F8E02042F02002D54B1B68A3F8E0204D
:102750000022D54B1A60704770B503464FF0FF3129
:10276000002212E09C5C00250CE004F0010001F066
:102770000106704018B14908CC48414000E04908C2
:1027800064106D1C082DF0DB521C062AEADB880E53
:1027900070BD30B5044620780006617840EA0140FB
:1027A000A17840EA0120E1780843C1490860207916
:1027B0000006617940EA0140BD49E439C1F8E8000A
:1027C0002046FFF7C9FF0546202D0CDBB848343002
:1027D0000068A5F1200101228A401043B449E43980
:1027E000C1F8180109E0B248383000680121A94059
:1027F0000843AF49E439C1F81C0130BD30B5034688
:102800000C464FF40000AA4DE43D68604FF078603C
:1028100000EAC35040F0C0404FF4F80505EA844593
:10282000284340F40030A24DE43D2864002107E035
:102830009F48E438406800F4000000B103E0491C00
:102840009C488142F4D300BF9A48814201D10120C3
:1028500030BD4FF40000964DE43D68602846006CA2
:1028600010800020F4E730B503460C464FF400001A
:102870008F4DE43D68604FF0786000EAC35040F04F
:10288000A0404FF4F80505EA8445284340F40030A1
:1028900095B22843864DE43D2864002107E0844832
:1028A000E438406800F4000000B103E0491C8148AE
:1028B0008142F4D300BF7F48814201D1012030BD65
:1028C0004FF400007A4DE43D68600020F7E710B552
:1028D000FEF72CF8784880694FF47A71B0FBF1F07C
:1028E000B0FBF1F0C4B26000052190FBF1F0401C98
:1028F0007E2101EA40006E49E439486410BD38B5D4
:10290000054600246D48C06A40F001006B49C8626A
:1029100000206B490860FFF7C7FE6848806B40F4F1
:102920000070664988630846806B40F48060886365
:102930000846806B40F4006088630846806B40F472
:10294000805088630846806B40F4005088635D487F
:10295000407820F004005B49487001205449E43974
:1029600048620020009004E0BDF80000401C80B2E6
:102970000090BDF800006428F6DBFFF7A8FF4C20AC
:1029800000F0FFF94D2000F0FCF94E2000F0F9F9BD
:102990004FF480604C49086048604C4908634863C4
:1029A0008863C8630864486400BF0A20FEF791FB8F
:1029B000601C84B2B4F5FA7F01DD012038BD4FF60A
:1029C000FF7000906A4602210120FFF717FFBDF853
:1029D00000004FF6FF718842E7D0BDF800103CA020
:1029E00000F023FD6A4603210120FFF707FFBDF831
:1029F00000103CA000F019FD6A4605210120FFF7F8
:102A0000FDFEBDF800103CA000F00FFD6A46052158
:102A10000120FFF7F3FEBDF800103CA000F005FD1B
:102A20006A4610210120FFF7E9FEBDF800103CA026
:102A300000F0FBFC6A4611210120FFF7DFFEBDF824
:102A400000103CA000F0F1FC6A4612210120FFF7C3
:102A5000D5FEBDF800103BA000F0E7FC4FF490520B
:102A600000210120FFF7FFFE6A4600210120FFF749
:102A7000C5FEBDF8001037A000F0D7FC00BF0A204B
:102A8000FEF727FB601C84B2B4F5FA7F6ADD0120F3
:102A900094E767E09080FF1F3080FF1FC080FF1F1A
:102AA0003480FF1FD081FF1F3880FF1F2083B8EDC7
:102AB000E4000C40FFFF01006C80FF1F0080044019
:102AC00000D000400040064000A0044000900440B8
:102AD0005048595F504859494452313D3078255843
:102AE0000D0A00005048595F504859494452323D40
:102AF000307825580D0A00005048595F414E4C501F
:102B000041523D307825580D0A0000005048595F69
:102B1000414E4C5041524E503D307825580D0A00E0
:102B20005048595F5048595354533D307825580DFB
:102B30000A0000005048595F4D4943523D30782506
:102B4000580D0A005048595F4D4953523D30782581
:102B5000580D0A005048595F424D43523D30782588
:102B6000580D0A006A4601210846FFF747FEBDF8E6
:102B7000000000F02000002881D0002000906A466C
:102B80001F210120FFF73AFE002083490860834996
:102B9000C1F81801804908310860091F08602868D9
:102BA000FFF7F7FD7E487D498431086000207B49AE
:102BB000C1F8C400BDF8000000F0100088B17748EB
:102BC0008430006820F00200C1F884000846D0F884
:102BD000C40040F00400C1F8C40072A000F025FC5D
:102BE00011E06E488430006840F002006B49C1F883
:102BF00084000846D0F8C40020F00400C1F8C400E6
:102C00006BA000F012FCBDF8000000F0040038B129
:102C100062488430006840F400706049C1F8840064
:102C200010205E4948624FF4F8505B496C310860EF
:102C3000624800685949C1F88001614800685649F6
:102C4000683108604FF0FF30544948605D48886043
:102C50000846406A40F0020048624FF08070086108
:102C60000020ABE608B5002000906A460121084626
:102C7000FFF7C4FDBDF8000000F0040008B101201A
:102C800008BD0020FCE770B504460D4600BF4C4867
:102C90000068007800F080000028F8D120BA484988
:102CA000096848602846FDF701FC454909684880E5
:102CB000002043490968086160204149096888602B
:102CC000AC203F49096808804FF080703349486163
:102CD00070BD70B50446002500BF384800683A4909
:102CE000096800EB4110007800F08000A0BB334978
:102CF0000968354A126801EB42114888FDF7D6FB96
:102D000085B22E480068304A126800EB42104068D5
:102D100001BA2A46204601F021FE284800682A49C7
:102D2000096800EB4110008840F0800023490968E1
:102D3000254A126801EB4211088023480068401CB4
:102D40002149086008460068082801D3002008606F
:102D50004FF0807011490861284670BD0F484068E7
:102D600040F000600D49486070470C48406840F0F2
:102D700000700A494860704710B514A000F055FB78
:102D800010BD00F01F02012191404209920002F1A2
:102D9000E022C2F8001170471C010C4000000C40FA
:102DA0000441F005C8ABCBABB9A40D0A000000008C
:102DB000B0EBCBABB9A40D0A000000003480FF1FBC
:102DC0003080FF1F0000786B3880FF1FD2D4CCAB5F
:102DD000CDF8B4EDCEF30D0A000000002DE9F04768
:102DE00005460024002700262E1D44F21041686885
:102DF000884230D0F949686888422CD0F849686820
:102E0000884228D0F7496868884224D040F21931B6
:102E1000686888421FD04CF69901686888421AD0C9
:102E200048F2DA616868884215D0EF4968688842DC
:102E300011D0EB494331686888420CD0EB4968688F
:102E4000884208D0EA496868884204D0E34984315E
:102E50006868884200D103E04021E6A0FDF7B9FC94
:102E6000307800F0070005282CD2DFE800F0030BD3
:102E7000131B2300E648406B40F48060E44948633C
:102E8000E44C21E0E248406B40F40060E0494863D4
:102E9000E14C19E0DE48406B40F48050DC49486367
:102EA000DE4C11E0DA48406B40F40050D8494863EA
:102EB000DB4C09E0D648806A40F48060D4498862DF
:102EC000D84C01E0002400BF00BF3088C0F382105E
:102ED00005282CD2DFE800F0030B131B2300CC489D
:102EE000806B40F40070CA498863CF4F20E0C84827
:102EF000806B40F48060C6498863CC4F18E0C448BA
:102F0000806B40F40060C2498863C94F10E0C0483C
:102F1000806B40F48050BE498863C64F08E0BC48CF
:102F2000806B40F40050BA498863C34F00E000BF93
:102F300000BF3068C0F3843057F8200020F4E06010
:102F40003168C1F3843147F821003068C0F3843020
:102F500057F820003178C1F3C2014FF4E06202EA71
:102F6000012108433168C1F3843147F821003088DA
:102F7000C0F3442057F8200020F4E0603188C1F30A
:102F8000442147F821003088C0F3442057F820003E
:102F90003178C1F3C20102EA012108433188C1F34B
:102FA000442147F82100FDF7C1FCA448D0F818904F
:102FB0009848844202D09848844202D19F48D0F871
:102FC000149028680001B9FBF0F01FFA80F84FEA6E
:102FD00049002968B0FBF1F0A0EB481000F0FF0AAF
:102FE0002078C8F304210843207084F80180A07A77
:102FF0000AF01F010843A072E07820F00C00E07096
:10300000A07820F01000A070A07820F00200A0703E
:10301000607920F020006071E07840F00C00E070F2
:1030200080208749A1F88400BDE8F08733B583B0DC
:103030000C4603AD019403980290287800F0070035
:10304000052818D2DFE800F003070B0F13007148C2
:103050007C49086013E070487A4908600FE06F48C7
:10306000784908600BE06E487649086007E06D48D3
:103070007449086003E000207249086000BF00BF87
:1030800001A8FFF7ABFE05B030BD70B504460E4693
:103090001546604884420BD05F48844208D05F48A0
:1030A000844205D05E48844202D05E48844200D10A
:1030B00003E0A2214FA0FDF78CFB2EB1012E03D01F
:1030C000022E01D0032E00D103E0A32149A0FDF779
:1030D00080FB0DB1012D00D103E0A42145A0FDF737
:1030E00078FB36B1012E10D0022E1AD0032E30D12B
:1030F00023E0012D04D1E07840F08000E07003E08F
:10310000E07820F08000E07024E0012D04D1E07828
:1031100040F04000E07003E0E07820F04000E07014
:1031200018E0012D04D1E07840F02000E07003E0C9
:10313000E07820F02000E0700CE0012D04D1E07870
:1031400040F01000E07003E0E07820F01000E07044
:1031500000E000BF00BF70BD70B504460E462D48AC
:1031600084420BD02C48844208D02C48844205D09D
:103170002B48844202D02B48844200D103E0C7216F
:103180001CA0FDF726FB2EB1012E03D0022E01D08C
:10319000032E00D103E0C82116A0FDF71AFB36B1BB
:1031A000012E0CD0022E12D0032E57D14EE02079E2
:1031B00000F0800008B1012500E000254FE02079F3
:1031C00000F0400008B1012500E0002547E020792B
:1031D00000F0200008B1012537E035E0189E03001B
:1031E00058220400D88E01005B9602001B0B0100E0
:1031F0001C3306002E2E5C5352435C46574C49420A
:103200005C554152545C756172742E63000000007D
:103210000080044000A0064000B0064000C0064008
:1032200000D0064000A00E400090044000A00440E2
:1032300000B0044000C0044000D004406C80FF1F78
:1032400060B1FF1F3C80FF1F002508E0207900F0DF
:10325000100008B1012500E0002500E000BF00BF1C
:10326000284670BD00BF027902F08002002AFAD021
:10327000C171704770B504460E461546D948844260
:103280000BD0D948844208D0D848844205D0D848C9
:10329000844202D0D748844200D105E040F20111B7
:1032A000AFF2B000FDF795FA2A463146D24801F058
:1032B00055FBD14880F880500020CF4981F881002B
:1032C00081F88200E07A20F08000E072E07840F03F
:1032D0008000E07070BD70B504460D4616462DB1F5
:1032E000012D03D0022D01D0032D00D105E040F2C5
:1032F0002111AFF20010FDF76CFABA4884420BD0EE
:10330000B948844208D0B948844205D0B8488442BC
:1033100002D0B848844200D105E04FF49171AFF279
:103320002C10FDF756FA0EB1012E00D105E040F247
:103330002311AFF24010FDF74CFA15B1012D18D151
:103340000BE0012E04D1E07A40F08000E07203E04F
:10335000E07A20F08000E0720CE0012E04D1E07AE7
:1033600040F02000E07203E0E07A20F02000E072FC
:1033700000E000BF00BF70BD017901F0800119B30A
:10338000C17801F08001F9B19B4991F88210D9B957
:10339000994991F8812091F88110491C964B83F846
:1033A00081101946895CC171194691F881101A463D
:1033B00092F88020914207DB01211A4682F88210A0
:1033C000C17821F08001C17070470246107900F089
:1033D000200018B1D0790870012070470020FCE768
:1033E00000B5034605E0197884480068FFF73AFF06
:1033F0005B1C18780028F6D100BDF0B504460D46D8
:10340000B4FBF5F028B1B4FBF5F629463046FFF7DA
:10341000F4FFB4FBF5F005FB104779480068C15D87
:1034200076480068FFF71EFFF0BD0FB470B505AD1C
:1034300000BF08E014B970BC5DF814FB21466F486A
:103440000068FFF70FFF049810F8011B0C4604906A
:103450002529EFD1049810F8014B0490642C01D079
:103460006C2C03D10A212868FFF7C7FF6F2C01D00D
:10347000782C08D16F2C01D1082200E010221146CF
:103480002868FFF7BAFF732C02D12868FFF7A8FF5E
:103490002D1DCEE770B5FDF7C0FD0446214659A0AD
:1034A000FFF7C3FF5D4840780A282AD2DFE800F022
:1034B0002905090D1115191D212559A0FFF7B5FF83
:1034C0001FE05CA0FFF7B1FF1BE061A0FFF7ADFFBD
:1034D00017E063A0FFF7A9FF13E066A0FFF7A5FFC1
:1034E0000FE06AA0FFF7A1FF0BE06EA0FFF79DFFC2
:1034F00007E072A0FFF799FF03E077A0FFF795FFC1
:1035000000BF00BF4548007828281AD006DC0A28EA
:103510000BD014280DD01E2823D10EE0322814D051
:10352000352816D03C281CD117E06FA0FFF77DFF8F
:103530001BE071A0FFF779FF17E073A0FFF775FF9D
:1035400013E075A0FFF771FF0FE077A0FFF76DFFA5
:103550000BE079A0FFF769FF07E07BA0FFF765FFAD
:1035600003E07DA0FFF761FF00BF00BF2B4881880B
:1035700083A0FFF75AFF294880780A2190FBF1F2D7
:1035800001FB12042548807890FBF1F5224629467C
:103590007EA0FFF74AFF21488068810A81A0FFF7DB
:1035A00044FF1E48C068810A83A0FFF73EFF1B4806
:1035B0000069810A86A0FFF738FF1848416989A091
:1035C000FFF733FF154881698BA0FFF72EFF1348E3
:1035D000C1698EA0FFF729FF1048016A91A0FFF78B
:1035E00024FF70BD00A0064000B0064000C00640A9
:1035F00000D0064000A00E4060B1FF1F3C80FF1FBE
:103600004080FF1F43485F4B36302046575F56656A
:103610007273696F6E3A25640D0A00006C80FF1F9B
:10362000536F6674776172652052657365740D0A15
:1036300000000000436F7265204C6F636B75702053
:103640004576656E742052657365740D0A0000003E
:103650004A5441472052657365740D0A000000000A
:10366000506F7765722D6F6E2052657365740D0A09
:103670000000000045787465726E616C2050696EC0
:103680002052657365740D0A000000005761746371
:1036900068646F6728434F50292052657365740D25
:1036A0000A0000004C6F7373206F6620436C6F63D9
:1036B0006B2052657365740D0A0000004C6F772D06
:1036C000766F6C746167652044657465637420521D
:1036D000657365740D0A00004C4C57552052657394
:1036E00065740D0A0000000046616D696C793A4B03
:1036F00031300D0A0000000046616D696C793A4B6B
:1037000032300D0A0000000046616D696C793A4B59
:1037100033300D0A0000000046616D696C793A4B48
:1037200034300D0A0000000046616D696C793A4B37
:1037300035300D0A0000000046616D696C793A4B26
:1037400035330D0A0000000046616D696C793A4B13
:1037500036300D0A000000000A556E7265636F670F
:103760006E697A6564204B696E6574697320666161
:103770006D696C79206465766963652E0A000000C6
:1037800050696E436E743A25640D0A0053696C6982
:10379000636F6E52657649443A25642E25640D0A9E
:1037A0000000000050466C6173682053697A653AE6
:1037B0002025644B420D0A00466C65784E564D201C
:1037C00053697A653A2025644B420D0A00000000D7
:1037D00052414D2053697A65203A25644B420D0AC7
:1037E00000000000436F7265436C6F636B3A2025E5
:1037F00064487A0D0A000000427573436C6F636B76
:103800003A202564487A0D0A00000000466C65786D
:10381000427573436C6F636B3A202564487A0D0AD6
:1038200000000000466C617368436C6F636B3A2064
:103830002564487A0D0A00000EB51020ADF800008E
:1038400000208DF802008DF8030008208DF8040098
:103850001B4802906846FDF76DFC1120ADF8000092
:1038600000208DF802008DF8030008208DF8040078
:10387000134802906846FDF75DFC1220ADF8000089
:1038800000208DF802008DF8030008208DF8040058
:103890000B4802906846FDF74DFC0120ADF8000092
:1038A00000208DF802008DF8030008208DF8040038
:1038B0000348403002906846FDF73CFC0EBD000016
:1038C00080F00F4010B504460020FE490863012235
:1038D000214640F60860FEF7BDFA10BD10B504465B
:1038E0000120F84908630122214640F60860FEF7EE
:1038F000B1FA10BD10B504462012FFF7EFFFE0B299
:10390000FFF7ECFF10BD10B52920FFF7DBFF10BD5E
:1039100010B52820FFF7D6FF10BD10B52120FFF706
:10392000D1FF10BD10B52020FFF7CCFF10BD70B542
:10393000054600249F2300227F21104601F0BFF896
:1039400001F0E3F800BF03E02846FFF7D3FF641C53
:10395000B4F5A04FF8D370BD10B588B000240D2089
:10396000ADF8040000208DF806008DF8070008204F
:103970008DF80800D448039001A8FDF7DBFB0C206C
:10398000ADF8040000208DF806008DF8070008202F
:103990008DF80800CC48039001A8FDF7CBFBCB487D
:1039A000049040F60860059008208DF8180000206B
:1039B000ADF81C0001208DF81A0000208DF81B00C6
:1039C0008DF81900ADF81E0004A8FEF750F800208D
:1039D000BC49486300BF00E0641C4EF6602084428E
:1039E000FAD30120B7494863002400E0641C4EF676
:1039F00060208442FAD31120FFF764FF002400E026
:103A0000641C4EF660208442FAD33A20FFF75AFF36
:103A10005520FFF763FF2620FFF754FF0420FFF730
:103A20005DFFF220FFF74EFF0120FFF757FFE02078
:103A3000FFF748FF3F20FFF751FF2520FFF74EFF1C
:103A40001C20FFF74BFF1E20FFF748FF2020FFF749
:103A500045FF1220FFF742FF2A20FFF73FFF90208B
:103A6000FFF73CFF2420FFF739FF1120FFF736FF57
:103A70000020FFF733FF0020FFF730FF0020FFF7A3
:103A80002DFF0020FFF72AFF0020FFF727FFE1208E
:103A9000FFF718FF2020FFF721FF2020FFF71EFF70
:103AA0002020FFF71BFF2020FFF718FF0520FFF75E
:103AB00015FF0020FFF712FF1520FFF70FFFA720CB
:103AC000FFF70CFF3D20FFF709FF1820FFF706FF67
:103AD0002520FFF703FF2A20FFF700FF2B20FFF729
:103AE000FDFE2B20FFF7FAFE3A20FFF7F7FEB1208C
:103AF000FFF7E8FE0820FFF7F1FE0820FFF7EEFED3
:103B0000B420FFF7DFFE0720FFF7E8FEC020FFF735
:103B1000D9FE0A20FFF7E2FE0220FFF7DFFEC120F8
:103B2000FFF7D0FE0220FFF7D9FEC520FFF7CAFE3F
:103B30004F20FFF7D3FE5A20FFF7D0FEC720FFF734
:103B4000C1FE4020FFF7CAFE2A20FFF7BBFE00207F
:103B5000FFF7C4FE0020FFF7C1FE0020FFF7BEFE06
:103B60007F20FFF7BBFE2B20FFF7ACFE0020FFF706
:103B7000B5FE0020FFF7B2FE0020FFF7AFFE9F204A
:103B8000FFF7ACFE3620FFF79DFEC020FFF7A6FE34
:103B9000B720FFF797FE0020FFF7A0FE2920FFF7D0
:103BA00091FE2C20FFF78EFE49480088FFF7BFFEEC
:103BB00008B010BD70B505460C46601C83B2681C89
:103BC00081B22246284600F07AFF00F09EFF41486D
:103BD0000088FFF78FFE70BD2DE9F04706460C46C2
:103BE00015461F46DDF820803B46224629463046D2
:103BF00000F065FF00F089FF381B401CA91B491C21
:103C000000FB01F902E04046FFF774FE5FEA09009D
:103C1000A9F10109F7D19F2300227F21104600F06E
:103C20004EFFBDE8F0872DE9FF4F85B081468A46FB
:103C30000020049003900798A0EB09050898A0EBDA
:103C40000A06CDF80890CDF804A0002D01DD01276B
:103C500005E00DB9002702E04FF0FF376D42002E5E
:103C600002DD4FF0010806E016B94FF0000802E04F
:103C70004FF0FF387642B54201DD2C4600E0344675
:103C80004FF0000B2CE0019A91B2029A90B2FFF72C
:103C900091FF0498284404900398304403900498BA
:103CA000A04205DD0498001B04900298384402905D
:103CB0000398A04205DD0398001B0390019840443F
:103CC000019009E00000FE4300F00F40080F1401CE
:103CD0004680FF1F4480FF1F0BF101001FFA80FB8D
:103CE000601C8345CFDD09B0BDE8F08F2DE9F041C0
:103CF00004460D4616461F462B46324629462046A8
:103D0000FFF791FF3B46224629462046FFF78BFFEF
:103D10003B46324639462046FFF785FF3B46324652
:103D200029463046FFF77FFFBDE8F0812DE9F047D7
:103D300006460F469046002445460320A0EB48095E
:103D400048E03A1B91B2721B90B2FFF733FF3A1B67
:103D500091B2721990B2FFF72DFF7A1991B2321B0E
:103D600090B2FFF727FF3A1B91B2721B90B2FFF798
:103D700021FF7A1B91B2321B90B2FFF71BFF3A1959
:103D800091B2721990B2FFF715FF7A1B91B23219F6
:103D900090B2FFF70FFF7A1991B2321990B2FFF784
:103DA00009FF3A1991B2721B90B2FFF703FF641C2E
:103DB000B9F1000F03DAA000801D814404E0601B0C
:103DC00080000A3081446D1E7A1991B2321990B286
:103DD000FFF7F0FEAC42B4DDBDE8F0872DE9F84F07
:103DE0008246894616461F469248C55D05EBD57149
:103DF0004910C1F18001514503DBC5F1A0014945DE
:103E000001DABDE8F88F05EBD5700AEB6000401EC3
:103E100081B209EB0500401E83B24A465046009528
:103E200000F04DFE00F071FEA6F12000C6B20A9827
:103E3000B0BB002431E03FB906EB46007E4901EB00
:103E4000800010F804B00CE0012F05D17B4800EB96
:103E5000061010F804B004E0794800EB061010F8E2
:103E600004B04FF0000811E00BF0010020B17548DC
:103E70000088FFF73FFD03E073480088FFF73AFD35
:103E80004FEA6B0B08F1010000F0FF0805EBD5715C
:103E9000B8EB610FE8DB601CC4B2AC42CBDB35E0B1
:103EA000FFE7002430E03FB906EB4600624901EB32
:103EB000800010F804B00CE0012F05D15F4800EB42
:103EC000061010F804B004E05D4800EB061010F88E
:103ED00004B04FF0000810E04BFA08F000F00100C9
:103EE00038B109EB040291B20AEB080290B2FFF775
:103EF00061FE08F1010000F0FF0805EBD571B8EB99
:103F0000610FE9DB601CC4B2AC42CCDB9F23002212
:103F10007F21104600F0D3FD00BF72E710B50246C6
:103F2000012000E050430B00A1F10104E1B2F9D1FE
:103F300010BD2DE9FF4F83B0074691461D46DDF8C1
:103F400040A0002002903B4810F80A60002438E0AE
:103F5000281B401EC1B20A20FFF7E0FFB9FBF0F0BA
:103F60000A21B0FBF1F201FB12080298B0B9681EF9
:103F7000A04213DDB8F1000F0ED10020B34606EBCE
:103F8000DB71491001FB0471009088B25346202276
:103F90000499FFF723FF12E0012002900020B346AE
:103FA00006EBDB71491001FB0471009088B208F147
:103FB0003001CAB253460499FFF710FF00BF601CDE
:103FC000C4B2AC42C4DB07B0BDE8F08FF8B505461B
:103FD0000E4614462AE01749087800EBD0714910C4
:103FE000C1F18001A94204DA00251248007830446A
:103FF00086B210480078C0F1A000B04206DA002076
:104000000546064610480088FFF791FC0120009005
:104010002278002331462846FFF7E0FE054908785C
:1040200000EBD07105EB61018DB2641C2078002893
:10403000D1D1F8BD144B0000174B00008B4F00008E
:104040007B5500004480FF1F4680FF1F0EB50920EE
:10405000ADF8000000208DF802008DF80300052067
:104060008DF804003A4802906846FDF763F80EBDEB
:1040700038480068C0B2704700B50022FFF7F8FF6B
:1040800001463548007830B101280AD0022815D001
:1040900003282BD125E0012902D101202E4B1870D5
:1040A00024E0012906D100202C4B187002202A4B55
:1040B000187002E00020284B187017E021B9012287
:1040C0000020254B18700BE024480078401CC0B23B
:1040D000224B1870642803DD032203201E4B187046
:1040E00004E011B900201C4B187000BF00BF10463F
:1040F00000BD70B500250024FFF7BEFF0446184838
:10410000007810B101281FD10AE0012C06D100204F
:104110001449087001201249087000E0254613E098
:10412000012C04D1022500200D4908700BE00D4838
:104130000078401CC0B20B490870192803DD012526
:1041400000200749087000BF00BF284670BD00006E
:1041500040F00F40240AFE434980FF1F4880FF1FA4
:104160004B80FF1F4A80FF1F70B5044600250122C7
:10417000214640F60860FDF76DFEC5B2284670BDC9
:1041800070B505460C460020A64988632846FFF70F
:10419000EBFF06462046FFF7E7FF0120A1498863B1
:1041A000304670BD2DE9F04107460C46154600200B
:1041B0009C4988633846FFF7D7FF8046002605E014
:1041C00014F8010BFFF7D0FF701CC6B2AE42F7DB4C
:1041D0000120944988634046BDE8F0812DE9F04113
:1041E00007460D46164600208E4988633846FFF77D
:1041F000BBFF8046002405E00020FFF7B5FF2855EF
:10420000601CC4B2B442F7DB012086498863404693
:10421000BDE8F0811CB584A103C9CDE900010522E8
:1042200069463020FFF7BEFF052269461020FFF7E0
:10423000D5FF002407E01DF80400A52801D00120C7
:104240001CBD601CC4B2052CF5DB0020F8E700B5EE
:1042500087B00820ADF8000001208DF80200002092
:104260008DF8030008208DF804007148029068461C
:10427000FCF760FF0920ADF8000001208DF8020076
:1042800000208DF8030006208DF804006848029095
:104290006846FCF74FFF6748039040F608600490BB
:1042A00008208DF814000720ADF8180001208DF8C3
:1042B000160000208DF817008DF81500ADF81A00D3
:1042C00003A8FDF7D4FB0E20ADF8000001208DF807
:1042D000020000208DF8030008208DF804005448E7
:1042E00002906846FCF726FF00204E490862012034
:1042F0008863FFF78FFF07B000BD10B50020494964
:10430000086205224C492A20FFF74CFF0121212099
:10431000FFF736FF01212220FFF732FF2821252059
:10432000FFF72EFF20213120FFF72AFF0F21262043
:10433000FFF726FF0F212020FFF722FF0120394938
:10434000086210BD10B500203649086205223B49BD
:104350003020FFF727FF052237492A20FFF722FFE9
:1043600001212120FFF70CFF01212220FFF708FF88
:104370001A212420FFF704FF28212520FFF700FF42
:104380000F212620FFF7FCFE0E212020FFF7F8FE6C
:1043900001202449086210BD70B50546002021495E
:1043A000086220222946A020FFF7FCFE01201D49BB
:1043B000086200BF224800680028FBD1FF210720C7
:1043C000FFF7DEFE044621462720FFF7D9FE04F062
:1043D000100028B1FF21E120FFF7D2FE102070BDB0
:1043E00004F0200008B12020F9E7FF20F7E770B5BE
:1043F0000446FF210720FFF7C3FE05462946272074
:10440000FFF7BEFE05F0400050B12022214661209A
:10441000FFF7E4FEFF21E220FFF7B2FE002070BDAF
:104420000120FCE70000FE43A5A5A5A5A50000000E
:1044300000F00F40080F1401705B00006B5B000080
:104440002402FE430821FE4A126842F00072FD4B2E
:10445000C3F804211A46D2F8082142F08052C3F86A
:10446000082122E000F080023AB1F54A126842F0D9
:104470000062F44BC3F8042107E0F14A121D1268F0
:1044800042F00062EF4BC3F80821ED4A126842F097
:104490008052EC4BC3F804211A46D2F8082142F0AE
:1044A0008052C3F808214206100E0A00A1F1010350
:1044B000D9B2D7D170470821E14A121D126842F0E3
:1044C0000072E04BC3F808211A46D2F8082142F0E6
:1044D0008052C3F8082122E000F080023AB1D84AA5
:1044E000126842F00062D74BC3F8042107E0D44AB7
:1044F000121D126842F00062D24BC3F80821D04A64
:10450000126842F08052CF4BC3F804211A46D2F809
:10451000082142F08052C3F808214206100E0A001A
:10452000A1F10103D9B2D7D1704730B504460D4689
:1045300005F1B001C8B2FFF7BEFF102141EA141027
:10454000FFF7B9FF04F00F0141F00100FFF7B3FFDF
:1045500030BD30B5002415E004F1B001C8B2FFF75A
:10456000AAFF0120FFF7A7FF1020FFF7A4FF0025F7
:1045700004E00020FFF766FF681CC5B2802DF8DB61
:10458000601CC4B2082CE7DB30BD09E043F22641D1
:1045900000BF0A00A1F1010399B2FAD1421E90B204
:1045A0000028F3D170473EB505460C460295012020
:1045B0008DF8020000208DF80300ADF800400820BF
:1045C0008DF804006846FCF7B5FD3EBD10B51C2112
:1045D0009B48001FFFF7E7FF1B219948001FFFF7CB
:1045E000E2FF1A219648001FFFF7DDFF19219448CA
:1045F000001FFFF7D8FF9248006840F080509149B3
:10460000C1F804010846D0F8080140F08060C1F804
:1046100008013220FFF7B9FF8A48D0F8040140F0C2
:1046200080608849C1F80401AE20FFF744FFD5201F
:10463000FFF741FF8020FFF73EFFA820FFF73BFF79
:104640003F20FFF738FFD320FFF735FF0020FFF7AB
:1046500032FF4020FFF72FFF8D20FFF72CFF1420A3
:10466000FFF729FF2020FFF726FF0220FFF723FF97
:10467000A120FFF720FFC820FFF71DFFDA20FFF77A
:104680001AFF1220FFF717FF8120FFF714FFCF203A
:10469000FFF711FFD920FFF70EFFF120FFF70BFF07
:1046A000DB20FFF708FF4020FFF705FFA420FFF7FE
:1046B00002FFA620FFF7FFFEAF20FFF7FCFEFFF78B
:1046C00048FF00210846FFF730FF10BDF0B5064651
:1046D0000F461446412C05DB5A2C03DCA4F13700AD
:1046E000C4B22AE0612C05DB7A2C03DCA4F135008E
:1046F000C4B222E0202C01D124241EE03A2C01D1A6
:1047000025241AE02D2C01D1262416E02F2C01D1CE
:10471000272412E02E2C01D128240EE02C2C01D1CC
:1047200029240AE07E2C01D12A2406E0802C01D124
:10473000462402E0812C00D14724782E02DD002699
:10474000781CC7B2F106080E3946FFF7EEFE0025C9
:1047500007E005EB04113C4A505CFFF773FE681C50
:10476000C5B2082DF5DB7A1CD1B2F206100EFFF7A8
:10477000DCFE002508E005EB04110831324A505CEC
:10478000FFF760FE681CC5B2082DF4DBF0BDF0B584
:1047900006460F461546002407E02A5D3119C8B2C7
:1047A0003946FFF793FF601CC4B2285D0028F4D19E
:1047B000F0BDF0B505460E461446642094FBF0F0BB
:1047C000C7B23A4631462846FFF780FF642094FB83
:1047D000F0F100FB11400A2190FBF1F0C7B2691C17
:1047E000C8B23A463146FFF771FF0A2094FBF0F158
:1047F00000FB1140C7B2A91CC8B23A463146FFF7C8
:1048000065FFF0BDF0B505460E4614464FF47A70CC
:1048100094FBF0F0C7B23A4631462846FFF756FF00
:104820004FF47A7094FBF0F100FB1140642190FB8F
:10483000F1F0C7B2691CC8B23A46314606E0000042
:1048400004F10F4000F00F40755B0000FFF73EFFE2
:10485000642094FBF0F100FB11400A2190FBF1F081
:10486000C7B2A91CC8B23A463146FFF72FFF0A204B
:1048700094FBF0F100FB1140C7B2E91CC8B23A4604
:104880003146FFF723FFF0BDF0B505460E4614464E
:1048900042F2107094FBF0F0C7B23A463146284617
:1048A000FFF714FF42F2107094FBF0F100FB11408F
:1048B0004FF47A7190FBF1F0C7B2691CC8B23A4666
:1048C0003146FFF703FF4FF47A7094FBF0F100FBE1
:1048D0001140642190FBF1F0C7B2A91CC8B23A465E
:1048E0003146FFF7F3FE642094FBF0F100FB11402A
:1048F0000A2190FBF1F0C7B2E91CC8B23A46314632
:10490000FFF7E4FE0A2094FBF0F100FB1140C7B270
:10491000291DC8B23A463146FFF7D8FEF0BDF0B5C2
:1049200005460E461446642094FBF0F100FB11404E
:104930000A2190FBF1F0C7B23A4631462846FFF70C
:10494000C5FE0A2094FBF0F100FB1140C7B2691CC0
:10495000C8B23A463146FFF7B9FEF0BD032A40F22D
:10496000308010F0030C00F0158011F8013BBCF111
:10497000020F624498BF11F801CB00F8013B38BF29
:1049800011F8013BA2F1040298BF00F801CB38BF37
:1049900000F8013B11F0030300F02880083AC0F052
:1049A000088051F8043B083A51F804CBA0E80810FD
:1049B000F5E7121D5CBF51F8043B40F8043BAFF330
:1049C0000080D20724BF11F8013B11F801CB48BF8A
:1049D00011F8012B24BF00F8013B00F801CB48BFC0
:1049E00000F8012B704770477047704710B5203AA8
:1049F000C0F00B80B1E81850203AA0E81850B1E898
:104A00001850A0E81850BFF4F5AF5FEA027C24BF4D
:104A1000B1E81850A0E8185044BF18C918C0BDE844
:104A200010405FEA827C24BF51F8043B40F8043B0D
:104A300008BF7047D20728BF31F8023B48BF11F8C2
:104A4000012B28BF20F8023B48BF00F8012B70471C
:104A5000754600F029F8AE4605006946534620F039
:104A60000700854618B020B5FBF700FEBDE82040E2
:104A70004FF000064FF000074FF000084FF0000B1A
:104A800021F00701AC46ACE8C009ACE8C009ACE8CD
:104A9000C009ACE8C0098D4670470446AFF30080FA
:104AA0002046FBF7FCFC000000487047E8B1FF1F00
:104AB00001491820ABBEFEE72600020070472DE931
:104AC000F04104460D4616461F462A20FEF7FAFE20
:104AD0002012FEF703FFE0B2FEF700FF2812FEF7F8
:104AE000FDFEE8B2FEF7FAFE2B20FEF7EBFE3012D9
:104AF000FEF7F4FEF0B2FEF7F1FE3812FEF7EEFE1E
:104B0000F8B2FEF7EBFEBDE8F08110B52C20FEF701
:104B1000D9FE10BD0C1010000000000000000000C5
:104B20000000000000040404040404000400000069
:104B3000140A0A0000000000000000000014143FE6
:104B4000140A3F0A0A000000041E1505060C14157D
:104B50000F0400000012150D0A142C2A1200000088
:104B600000040A0A1E1515093600000002020100A1
:104B700000000000000000002010080808080808D5
:104B800010200000020408080808080804020000B9
:104B9000000004150E0E15040000000000040404BB
:104BA0001F040404000000000000000000000000DA
:104BB00002020100000000001F00000000000000D1
:104BC00000000000000000000200000010080808BB
:104BD0000404020202010000000E11111111111152
:104BE0000E00000000040604040404040E0000008B
:104BF000000E1111080402011F000000000E111028
:104C00000C1010110E00000000080C0A0A091E0802
:104C100018000000001F01010F1010110E0000000D
:104C2000000E09010F1111110E000000001F0908EC
:104C30000404040404000000000E11110E111111EF
:104C40000E000000000E1111111E10120E000000C7
:104C5000000000040000000004000000000000004C
:104C600004000000040400002010080402040810DE
:104C7000200000000000001F00001F0000000000D6
:104C8000020408102010080402000000000E111198
:104C90000804040004000000000E111915151D0180
:104CA0001E0000000004040C0A0A1E12330000005B
:104CB000000F12120E1212120F000000001E11013E
:104CC000010101110E000000000F12121212121247
:104CD0000F000000001F120A0E0A02121F0000003F
:104CE000001F120A0E0A020207000000001C120137
:104CF000013911120C000000003312121E121212A0
:104D000033000000001F0404040404041F0000001A
:104D1000003E080808080808090700000037120AC2
:104D2000060A0A12370000000007020202020222ED
:104D30003F000000001B1B1B1B1515151500000074
:104D4000003B1216161A1A1217000000000E11115D
:104D5000111111110E000000000F12120E020202BA
:104D600007000000000E1111111117190E18000094
:104D7000000F12120E0A121237000000001E11015D
:104D8000060810110F000000001F1504040404049D
:104D90000E00000000331212121212120C0000005A
:104DA000003312120A0A0C04040000000015151545
:104DB0000E0A0A0A0A000000001B0A0A04040A0A72
:104DC0001B000000001B0A0A040404040E0000007B
:104DD000001F0908040402121F0000001C04040440
:104DE00004040404041C000002020204040808086D
:104DF000100000000E08080808080808080E000047
:104E0000040A000000000000000000000000000094
:104E10000000000000003F0004000000000000004F
:104E200000000000000000000C121C123C000000FA
:104E3000000302020E1212120E0000000000000019
:104E40001C1202021C000000001810101C1212128A
:104E50003C000000000000000C121E021C000000BC
:104E6000003804041E0404041E00000000000000BA
:104E70003C120C021E221C00000302020E1212122F
:104E80003700000000040000060404040E000000C7
:104E9000000800000C0808080808070000030202C8
:104EA0003A0A0E1237000000000704040404040448
:104EB0001F000000000000000F1515151500000070
:104EC000000000000F121212370000000000000066
:104ED0000C1212120C000000000000000F1212123F
:104EE0000E020700000000001C1212121C103800F5
:104EF000000000001B060202070000000000000086
:104F00001E020C101E000000000004040E04040425
:104F100018000000000000001B1212123C000000EC
:104F20000000000037120A0C04000000000000001E
:104F300015150E0A0A000000000000001B0A040AF2
:104F40001B0000000000000037120A0C04040300DC
:104F5000000000001E0804041E00000018080808D5
:104F600004080808081800080808080808080808BD
:104F700008080800060404040804040404060002E7
:104F800025180000000000000000000000000000E4
:104F90000000000000000000000000000000080801
:104FA000080808080800001818000000486C2412BF
:104FB00000000000000000000000000000002424A9
:104FC000247F1212127F12121200000000081C2A05
:104FD0002A0A0C1828282A2A1C0808000000222562
:104FE0001515152A585454542200000000000C12C4
:104FF00012120A76252911916E000000060604039C
:105000000000000000000000000000004020101020
:1050100008080808080810102040000002040808CA
:105020001010101010100808040200000000000802
:10503000086B1C1C6B080800000000000000000842
:105040000808087F080808080000000000000000A9
:10505000000000000000000606040300000000003D
:10506000000000FE00000000000000000000000042
:105070000000000000000006060000000080404024
:105080002020101008080404020200000000182468
:105090004242424242424224180000000000080EF0
:1050A00008080808080808083E00000000003C4204
:1050B00042422020100804427E00000000003C42D2
:1050C00042201820404042221C00000000002030F6
:1050D00028242422227E20207800000000007E0266
:1050E00002021A26404042221C0000000000382420
:1050F00002021A26424242241800000000007E22CA
:1051000022101008080808080800000000003C42AF
:1051100042422418244242423C000000000018246D
:1051200042424264584040241C000000000000003D
:10513000001818000000001818000000000000000F
:1051400000000800000000000808040000004020E3
:1051500010080402040810204000000000000000B5
:10516000007F0000007F000000000000000002043B
:1051700008102040201008040200000000003C42FB
:1051800042464020101000181800000000001C22A9
:105190005A555555552D42221C00000000000808A4
:1051A000181414243C224242E700000000001F2291
:1051B00022221E22424242221F00000000007C42A6
:1051C00042010101010142221C00000000001F22D7
:1051D00042424242424242221F00000000003F423F
:1051E00012121E12120242423F00000000003F4213
:1051F00012121E12120202020700000000003C22DE
:1052000022010101712122221C0000000000E7425E
:105210004242427E42424242E700000000003E0815
:1052200008080808080808083E00000000007C1074
:10523000101010101010101010110F000000772225
:10524000120A0E0A12122222770000000000070242
:1052500002020202020202427F00000000007736D2
:105260003636362A2A2A2A2A6B0000000000E34636
:10527000464A4A52525262624700000000001C2215
:1052800041414141414141221C00000000003F4298
:105290004242423E020202020700000000001C22BD
:1052A00041414141414D53321C60000000003F42EA
:1052B00042423E1212222242C700000000007C42FD
:1052C00042020418204042423E00000000007F4994
:1052D00008080808080808081C0000000000E74249
:1052E00042424242424242423C0000000000E74249
:1052F00042222424141418080800000000006B49FE
:105300004949495555362222220000000000E74253
:105310002424181818242442E700000000007722F3
:1053200022141408080808081C00000000007E2150
:1053300020101008040442423F00000078080808CA
:105340000808080808080808087800000002020495
:105350000408080810102020204040001E101010E3
:105360001010101010101010101E00003844000013
:10537000000000000000000000000000000000002D
:1053800000000000000000000000FF000608000010
:10539000000000000000000000000000000000000D
:1053A00000003C4278444242FC000000000003023E
:1053B00002021A26424242261A00000000000000A3
:1053C000000038440202024438000000000060403F
:1053D0004040784442424264D8000000000000008F
:1053E00000003C427E0202423C0000000000F088C7
:1053F00008087E08080808083E00000000000000B9
:1054000000007C22221C023C42423C0000000302BD
:1054100002023A4642424242E700000000000C0C01
:1054200000000E08080808083E00000000003030A8
:10543000000038202020202020221E00000003022F
:10544000020272120A1612227700000000000E08F3
:1054500008080808080808083E00000000000000CE
:1054600000007F9292929292B7000000000000002C
:1054700000003B4642424242E700000000000000BC
:1054800000003C42424242423C000000000000005A
:1054900000001B26424242221E02070000000000BC
:1054A00000007844424242447840E000000000009E
:1054B0000000774C040404041F00000000000000FA
:1054C00000007C42023C40423E0000000000000020
:1054D00008083E0808080808300000000000000026
:1054E0000000634242424262DC0000000000000013
:1054F0000000E74224241408080000000000000017
:105500000000EB4949555522220000000000000030
:1055100000007624181818246E0000000000000017
:105520000000E742242414180808070000000000C7
:1055300000007E22100808447E000000C0202020C9
:10554000202010202020202020C00010101010103B
:10555000101010101010101010101000060808087D
:1055600008081008080808080806000C32C20000E5
:10557000000000000000000000000000000000002B
:105580000000000000000000000000000000000318
:105590000303030303030003000000000000001BDB
:1055A0001B1B0000000000000000000000000000C5
:1055B0009898FFCC66FF3333000000000000000C19
:1055C0007E0D0D0D7FCCCC3F0C0C000000000000C8
:1055D000672D371818ECB6E6000000000000000048
:1055E0001C363ECEFB7171DF00000000000000069B
:1055F0000606000000000000000000000000000C93
:105600000E0603030303030306060C00000000015B
:105610000303060606060606030301000000000653
:105620003F0F190000000000000000000000000013
:10563000000C0C3F3F0C0C000000000000000000BC
:10564000000000000000000607030000000000004A
:10565000000000003E3E00000000000000000000CE
:105660000000000000000006000000000000000034
:105670003018180C060303010000000000000000B1
:105680003E6263636363223E00000000000000008E
:105690000C0F0F0C0C0C0C3F000000000000000071
:1056A0003E6360381E07037F00000000000000001A
:1056B0003E6360306860633E000000000000000050
:1056C0003038343231FF303000000000000000007C
:1056D0007F03033F6360731E0000000000000000B2
:1056E0001C0E063F6363633E0000000000000000E4
:1056F000FF603018180C0E060000000000000000CB
:105700003F6363627F63633E0000000000000000AF
:105710003E7363637E30180E00000000000000003E
:105720000000060600000606000000000000000061
:10573000000006060000000607030000000000004D
:10574000000030180E1C30000000000000000000B7
:10575000001F1F00001F1F000000000000000000CD
:105760000000061C381C06000000000000000000BD
:105770000F31301C0600060600000000000000FC8F
:105780008633394D6DF90386FC00000000000000EF
:10579000406070D8DCFE878300000000000000003D
:1057A0001F7363637FC3E37F0000000000000000FD
:1057B0007C6603030101613E000000000000000060
:1057C0000F3B63C3C3C3633F000000000000000041
:1057D0007F03037F0303037E00000000000000003E
:1057E0007F03037F030303030000000000000000A9
:1057F0003C660301F9E1711F000000000000000099
:10580000838383FF83838383000000000000000004
:105810003F0C0C0C0C0C0C3F0000000000000000C2
:10582000FE303030303033331C0000000000000008
:10583000C3633B1F0F1F73E3000000000000000064
:10584000030303030303037F0000000000000000C4
:10585000C6C6E7EFBFBD3919000000000000000018
:1058600083878F9FBBF3E3830000000000000000EC
:10587000FC8703010101837C0000000000000000A0
:105880000F1919190F0101010000000000000000AC
:10589000FC0603010131F7FC0000000000000000DD
:1058A0001F3363731F3B63C3000000000000000050
:1058B0007C07037EC0C0E13F000000000000000044
:1058C000FF18181818181818000000000000000031
:1058D000C3C3C3C3C363663C0000000000000000F4
:1058E000C363663634141C0800000000000000008A
:1058F000616373F7DEDE8C8C0000000000000000A6
:1059000081C76E383C6EC7810000000000000000B7
:10591000C1E3663C38181C0C0000000000000000C9
:10592000FF70381C0E0703FF000000000000000F8E
:10593000030303030303030303030F00000000003A
:105940000303060C0C18183030000000000000079C
:1059500006060606060606060606070000000018EC
:105960003C66000000000000000000000000000095
:10597000000000000000000000FF00000000000127
:10598000030600000000000000000000000000000E
:1059900000001E333131313F0000000000000003E1
:1059A00003031F333333331F0000000000000000E7
:1059B00000001E030101011F000000000000003074
:1059C00030303F313131313F000000000000000035
:1059D00000003E390701033F000000000000003CCA
:1059E00006063F0606060606060000000000000048
:1059F00000000E1919191D1F181C0F0000000003CC
:105A000003033F373333333300000000000000004E
:105A10000300030303030303000000000000000071
:105A20000C000C0C0C0C0C0C0C0D07000000000101
:105A30000101311D0F1F393100000000000000037B
:105A4000030303030303030300000000000000003E
:105A50000000FD9B9999999900000000000000004A
:105A600000000F1B191919190000000000000000A8
:105A700000000F19191919070000000000000000AC
:105A800000000F191919190F010101000000000091
:105A900000001F1B1919191F18181800000000001A
:105AA00000001F1B010101010000000000000000B8
:105AB00000001F01071E180F00000000000000007A
:105AC00006061F060606060600000000000000008D
:105AD000000019191919191F00000000000000002A
:105AE0000000313B1B0F0E0600000000000000000C
:105AF00000009999DDF777330000000000000000F6
:105B00000000333B0E0E1B310000000000000000BF
:105B100000006173373E1C0C0C06060000000000FC
:105B200000003F381C0E073F000000000000000C82
:105B30000E0603030303030306060C000000000621
:105B40000606060606060606060606000000000112
:105B50000303060606060606030301000000000014
:105B60000000676D39000000000000344310100190
:105B7000344310100100E010080810E000000F107E
:105B80002020100F00001010F8000000000020205E
:105B90003F202000000070080808887000003028AE
:105BA0002422213000003008888848300000182066
:105BB0002020110E000000C02010F8000000070493
:105BC00024243F240000F8088888080800001921D0
:105BD0002020110E0000E0108888180000000F112E
:105BE0002020110E0000380808C838080000000006
:105BF0003F000000000070880808887000001C2228
:105C00002121221C0000E010080810E000000031F3
:105C10002222110F000000C038E0000000203C23C9
:105C2000020227382008F8888888700000203F206A
:105C30002020110E00C0300808080838000718207E
:105C4000202010080008F808080810E000203F2075
:105C50002020100F0008F88888E8081000203F2056
:105C6000202320180008F88888E8081000203F202A
:105C70000003000000C030080808380000071820A2
:105C800020221E020008F808000008F808203F2122
:105C90000101213F20000808F8080800000020202A
:105CA0003F2020000000000808F8080800C080809D
:105CB000807F00000008F888C028180800203F20D6
:105CC000012638200008F8080000000000203F20CE
:105CD000202020300008F8F800F8F80800203F00E5
:105CE0003F003F200008F830C00008F808203F209F
