:020000040000FA
:1000000000B6FF1F51060000590600005B06000005
:100010005D0600005F0600006106000000000000B1
:100020000000000000000000000000006306000067
:100030006506000000000000670600006906000079
:100040006B0600006B0600006B0600006B060000EC
:100050006B0600006B0600006B0600006B060000DC
:100060006B0600006B0600006B0600006B060000CC
:100070006B0600006B0600006B0600006B060000BC
:100080006B0600006B0600006B0600006B060000AC
:100090006B0600006B0600006B0600006B0600009C
:1000A0006B0600006B0600006B0600006B0600008C
:1000B0006B0600006B0600006B0600006B0600007C
:1000C0006B0600006B0600006B0600006B0600006C
:1000D0006B0600006B0600006B0600006B0600005C
:1000E0006B0600006B0600006B0600006B0600004C
:1000F0006B0600006B0600006B0600006B0600003C
:100100006B0600006B0600006B0600006B0600002B
:100110006B0600006B0600006B0600006B0600001B
:100120006B0600006B0600006B0600006B0600000B
:100130006B0600006B0600006B0600006B060000FB
:100140006B0600006B0600006B0600006B060000EB
:10015000D90700006B0600006B0600006B0600006C
:100160006B0600006B0600006B0600006B060000CB
:10017000E92E0000F72E0000052F00006B0600009E
:100180006B0600006B0600006B0600006B060000AB
:100190006B0600006B0600006B0600006B0600009B
:1001A0006B0600006B0600006B0600006B0600008B
:1001B0006B0600006B0600006B0600006B0600007B
:10040000FFFFFFFFFFFFFFFFFFFFFFFFFEFFFFFFFD
:1004100000F002F800F03AF80AA090E8000C8244DC
:100420008344AAF10107DA4501D100F02FF8AFF2B9
:10043000090EBAE80F0013F0010F18BFFB1A43F0C2
:10044000010318471046000030460000103A24BF50
:1004500078C878C1FAD8520724BF30C830C144BF29
:1004600004680C607047000000230024002500266B
:10047000103A28BF78C1FBD8520728BF30C148BF07
:100480000B6070471FB51FBD10B510BD03F0A0FE77
:100490001146FFF7F7FF00F0F9F803F0BEFE03B4D2
:1004A000FFF7F2FF03BC03F0C3FE0000C0BA7047C1
:1004B0004CF220506149C8814DF62810C8814FF494
:1004C000E97008804FF488105D49486406205D4952
:1004D0000870002048700846C07800F03F0040F0E7
:1004E0002000C87000200871487100BF554880790D
:1004F00000F010000028F9D000BF5248807900F0C9
:100500000C000028F9D170474E4A127802F0C00260
:10051000002A67D14B4A527902F04002002A51D199
:10052000484A127802F00402C2B9454A526802F001
:1005300001020AB9444801E04FF40040414A1278F0
:10054000C2F3C20301229A40D1B2B0FBF1F03D4A9E
:10055000527802F030021AB1400901E04FF4004035
:10056000384AD27802F0E00202F01F0343BB521176
:10057000082A25D2DFE802F004080C1014181C2009
:1005800000EB8002D0011CE000EB8002100218E0BA
:10059000C0EB0012D00114E000EB8002500210E02A
:1005A0004FF4377250430CE04FF4B762504308E009
:1005B00040F69502504304E040F67132504300E0AB
:1005C00000BF30E01F4A127902F01F02511C1E4A80
:1005D000B2FBF1F01B4A527902F01F0202F118013E
:1005E000484320E0174A127802F0C002402A09D19D
:1005F000144A527802F0010212B94FF4004012E09E
:10060000114810E00F4A127802F0C002802A09D186
:100610000B4A526802F001020AB90B4803E04FF49A
:10062000004000E07047064A526C012303EB12724F
:10063000B0FBF2F2054B1A6000BFF3E70020054063
:10064000008004400040064000093D000080FF1F7C
:100650000948804709480047FEE7FEE7FEE7FEE756
:10066000FEE7FEE7FEE7FEE7FEE7FEE70448054992
:10067000034A054B70470000B1040000110400005C
:1006800000B2FF1F00B6FF1F00B2FF1F8CB0002496
:1006900000BF00BF00BF1221052000F0E1FA4FF4B7
:1006A000E131434802F088FD02F0BAFF00F0FEFCA1
:1006B00003F04CFA3F48059001208DF80E00002011
:1006C0008DF80F001B20ADF80C0006208DF81000EF
:1006D00003A801F01DFC1C20ADF80C0003A801F0DC
:1006E00017FC4FF47A7006903348079000208DF87D
:1006F000240042F21070089006A801F09FF9002033
:100700008DF809008DF800002A48803001900520FE
:100710008DF80800684600F0B7F800208DF8280032
:100720000A200B900AA801F03DFF37E01C21214868
:1007300001F0E7FEB0B93C2000F0F5FC1C211D489B
:1007400001F0DFFE70B904F5FA7442F21070B4FBE8
:10075000F0F100FB114400BF1C21164801F0D1FE4E
:100760000028F9D01B21134801F0CBFEB0B93C2082
:1007700000F0D9FC1B210F4801F0C3FE70B9A4F5AD
:10078000FA7442F21070B4FBF0F100FB114400BFA8
:100790001B21084801F0B5FE0028F9D0C6E7044641
:1007A0000D462246294605A002F005FF00BFFEE7E0
:1007B000189E030000F00F4011410C006173736537
:1007C00072745F6661696C65643A6C696E653A253E
:1007D000642025730D0A000010B5002000F0BBF85E
:1007E00016490870012000F0B6F815490870134842
:1007F000017814A002F0DFFE1148017817A002F082
:10080000DAFE0021084601F0E0FF1A480078642172
:1008100090FBF1F01849087018A20221084603F075
:100820007BFB154802780421084603F087FB11483A
:100830000178144801F07CF810BD00000480FF1F0F
:100840000580FF1F444D41434E545F4348305F567F
:10085000616C75653A25642000000000444D4143F9
:100860004E545F4348315F56616C75653A25640D9F
:100870000A0000000780FF1F0680FF1F7370656578
:100880006400000011410C0010B58EB00446002039
:100890000D90207AADF8040000208DF80600607AF3
:1008A00018B901208DF8070002E002208DF807003A
:1008B0006068039005208DF8080001A801F028FB6E
:1008C00020788DF8100000208DF8180001208DF898
:1008D000190047F23050ADF81200274A6068811ABB
:1008E000904213D005DC2549084438B1402819D17D
:1008F00008E040290ED0802914D10FE031208DF876
:10090000110010E032208DF811000CE033208DF83A
:10091000110008E034208DF8110004E035208DF836
:10092000110000E000BF00BF012005900DA80A9053
:100930000020ADF82C000C908DF82E000DA807902B
:100940000020ADF8200009908DF8220004A800F0E6
:100950004DFC0EB010BD70B504460025204600F0D9
:100960004CFD054647F23051204600F02CFD47F281
:100970003050401B80B270BD80F00F400010F0BFBF
:10098000FE48007800F0040010B10120FC494870D6
:10099000FA48007800F0020010B10220F8494870CF
:1009A000F648007800F0010010B10320F4494870C7
:1009B000F248407800F0800010B10420F0494870FF
:1009C000EE48407800F0400010B10520EC49487036
:1009D000EA48407800F0200010B10620E84948704D
:1009E000E648407800F0040010B10720E449487060
:1009F000E248407800F0020010B10820E049487059
:100A0000DE48407800F0010010B10920DC49487050
:100A1000DC48406AC0F30210082825D2DFE800F065
:100A200004080C1014181C200A20D54908701FE077
:100A30001420D34908701BE01E20D149087017E02C
:100A40002820CF49087013E03C20CD4908700FE002
:100A50004620CB4908700BE03220C949087007E0F6
:100A60003520C749087003E00020C549087000BF61
:100A700000BFC448406A00F00F00801E0D2831D22C
:100A8000DFE800F007300B0F13171B1F2330273050
:100A90002B002020BA49888028E03020B84988807F
:100AA00024E04020B649888020E05020B449888066
:100AB0001CE05120B249888018E06420B049888049
:100AC00014E06820AE49888010E09020AC4988800E
:100AD0000CE0C420AA49888008E04FF48070A8493F
:100AE000888003E00020A649888000BF00BFA54899
:100AF000406AC0F3033020B1012806D002280CD18F
:100B000007E00A209E4988700BE00B209C49887002
:100B100007E00C209A49887003E00020984988700B
:100B200000BF00BF9748C06CC0F30360072806D021
:100B3000092809D00B280CD00F2814D10EE04FF44F
:100B400000308F49886012E04FF480208C49886023
:100B50000DE04FF400208A49886008E04FF400203F
:100B60008749886003E000208549886000BF00BF96
:100B70008448006D00F4000018B100208049C8606E
:100B800022E08048C06C000F30B1072808D0092847
:100B90000BD00F2813D10DE000207949C86012E076
:100BA0004FF400307649C8600DE04FF4802074495E
:100BB000C86008E04FF480207149C86003E000205D
:100BC0006F49C86000BF00BF6F480068C0F30330C2
:100BD000052806D0072809D008280CD0092814D1E8
:100BE0000EE04FF400406649086112E04FF4803097
:100BF000634908610DE04FF4C0306149086108E0C5
:100C00004FF400305E49086103E000205C49086150
:100C100000BF00BF5D480068594948615948406CB1
:100C2000C0F30360401C59490968B1FBF0F0544916
:100C300088615448406CC0F30350401C5349096814
:100C4000B1FBF0F04E49C8614E48406CC0F3034020
:100C5000401C4E490968B1FBF0F0494908627047F1
:100C600070B504460D461CB1052C01D0062C00D1F0
:100C700003E0802146A0FFF792FD122D09D0132D2D
:100C800007D0112D05D0102D03D0092D01D0082D2E
:100C900000D103E081213EA0FFF781FD002C5BD154
:100CA000601E3849486406203F490870002048709B
:100CB0000846C07820F0E000C870082D1DD0102D27
:100CC0000DD0112D27D10846C07840F0E000C87043
:100CD00036482C49486436482C49086029E0324897
:100CE000C07840F0C0003049C8704FF08970254985
:100CF00048643048254908601BE02B48C07840F024
:100D0000A0002949C8704FF480301E4948642A4821
:100D10001E4908600DE02448C07840F0A000224938
:100D2000C8704FF480301749486423481749086059
:100D300000BF00BF00201C490871487100BF1A485D
:100D4000807900F010000028F9D000BF16488079A3
:100D500000F00C000028F9D1062C01D0052C73D12D
:100D60004FF0FF30074948640020144908700548D7
:100D7000406800F0FE000349486021E000E00740C1
:100D80002480FF1F00800440007004400080FF1F8B
:100D90002E2E5C5352435C46574C49425C53595388
:100DA0005C7379732E63000000400640000013015D
:100DB00000D8B80500A24A04006CDC0200500640CE
:100DC0002420AC4948709A2008700846C07800F08A
:100DD0001F00C870032008710020487100BFA5489B
:100DE000807900F002000028F9D000BFA148807986
:100DF00000F010000028F9D100BF9E48807900F073
:100E00000C000828F9D1062C03D103209949087158
:100E100004E0052C02D1182096490871A5F10800BC
:100E20000C2855D2DFE800F00611545454545454A1
:100E30001C27313B40208F49487180028E4948640D
:100E40008E488F4908604DE06CE048208949487120
:100E50004FF08970884948648A488949086041E0B0
:100E60004C20844948714FF0897083494864864812
:100E70008349086036E058207E49487183487E499E
:100E8000486483487E4908602CE05A2079494871BB
:100E90007E48794948647F487949086022E0062CF9
:100EA00008D10120734908715A2048717A48724963
:100EB000486409E0052C07D10C206E4908715C20BC
:100EC000487175486C49486474486D49086009E088
:100ED000402068494871800267494864674868490A
:100EE000086000BF00BF00BF6248807900F02000AA
:100EF0000028F9D000BF5F48807900F0400000284A
:100F0000F9D01A205B49087000BF5A48807900F078
:100F10000C000C28F9D100BF5648807900F0400041
:100F20000028F9D0FFF72CFD70BD2DE9F05F0746D2
:100F30000C4615461E46072C07D0062C05D0052C5E
:100F400003D0042C01D0032C00D105E040F20D1198
:100F5000AFF2C410FFF723FC102D00D205E04FF4D0
:100F60008771AFF2D410FFF71AFC102E00D205E003
:100F700040F20F11AFF2E810FFF711FC00BF04F0D0
:100F80000701474A10684FF6FF021040454A0243E6
:100F900042EA0120424A106000BF38462346AC4670
:100FA000B04603F00702C2F1070BBBF1040F02D9F0
:100FB0004FF0040B01E0C2F1070BDA4602F1040B1B
:100FC000BBF1070F02D24FF0000B01E0A2F1030BBF
:100FD000D9464FF0010B0BFA0AFBABF1010B0BEA00
:100FE0000C0B0BFA09FB4FF0010E0EFA09FEAEF1E5
:100FF000010E0EEA080E4BEA0E0100BF00280ADAC5
:101000000A074FEA126C264A0C3200F00F031B1F2E
:1010100002F803C003E00A07130E234A135400BF6B
:10102000BDE8F09F00BFBFF34F8F1D48006800F47C
:10103000E0601C490843001D19490860BFF34F8F49
:1010400000BF00BFFEE762B6704772B6704710B5CA
:10105000044604F0030000B905E040F23D11AFF290
:10106000D020FFF79CFB0E48001F046010BDF0204D
:10107000704700000040064000800440006CDC0225
:101080000080FF1F0090D00300A24A04000013015B
:1010900000D8B80500E1F5050000170100C2EB0B10
:1010A0000CED00E00000FA0500E400E010B54FF0A0
:1010B000E020006940F004004FF0E0210861FFF7F4
:1010C0005FFC2D4840692D49B0FBF1F02C490870B8
:1010D000084600784FF47A7110FB01F02949086046
:1010E00010BD0146264A12784A434FF0E0235A6168
:1010F00000229A611A46126942F001021A6100BF89
:101100004FF0E022106900F001021AB100F48032C1
:10111000002AF5D04FF0E022126922F001024FF0D0
:10112000E0231A61704710B50146002220E0154BFC
:101130001B684FF0E02463610023A36123461B6911
:1011400043F00103236100BF4FF0E023186900F072
:1011500001031BB100F48033002BF5D04FF0E023E6
:101160001B6923F001034FF0E0242361531C9AB262
:101170008A42DCD310BD00002480FF1F40420F00D4
:101180000880FF1F0C80FF1F002101700172417257
:1011900041708161818301628177C1600182416117
:1011A0008174704770B504460D460F2C00DC03E0D7
:1011B0006F21C8A0FFF7F3FA0DB1012D00D103E0B4
:1011C0007021C4A0FFF7EBFA012D07D1C748C06812
:1011D0000121A1400843C549C86006E0C348C16871
:1011E0000120A0408143C148C16070BD10B50446D4
:1011F0006078022803DB60783C2800DC03E02E21C5
:10120000B4A0FFF7CCFA208A38B1208AB0F5807FED
:1012100003D0208AB0F5007F00D103E02F21ADA0DC
:10122000FFF7BDFAA08B28B1A08B012802D0A08BBC
:10123000022800D103E03021A6A0FFF7B0FA207801
:101240000F2800DC03E03121A2A0FFF7A8FA608894
:1012500047F6FF71884200DA03E032219DA0FFF7D4
:101260009EFAA348C06B40F00200A149C86308463B
:10127000006C40F002000864607800F03F002178C4
:101280009C4A88549C48227800EB4210E168016037
:10129000A07C9949227801EB421188800021964870
:1012A000227800EB4210C1809348217800EB411076
:1012B000C088218A4FF4E06202EA012108438E4986
:1012C000227801EB4211C8808B48227800EB421053
:1012D0006169C1608848227800EB4210A169016110
:1012E000A07F8549227801EB4211888282482178CB
:1012F00000EB4110C188207F00F0070001437E48C9
:10130000227800EB4210C1807B48227800EB42102B
:10131000216A81616088C0F30E017748227800EB72
:101320004210C1826088C0F30E017348227800EB3E
:101330004210C1837048227800EB421061688160DE
:1013400000216D48227800EB42108183207A012829
:101350000CD16948217800EB4110808B40F00801E6
:101360006548227800EB421081830BE062482178C7
:1013700000EB4110808B20F008015F48227800EBE1
:1013800042108183617A2078FFF70CFF2078594959
:10139000405C40F080002178564A885410BD10B55A
:1013A00004460F2C00DC03E087214AA0FFF7F7F981
:1013B000514800EB4410808B00F0800008B1012000
:1013C00010BD0020FCE770B504460D460F2C00DC74
:1013D00003E09D213FA0FFF7E2F947F6FF70854249
:1013E00000DA03E09E213BA0FFF7D9F9C5F30E0117
:1013F000414800EB4410C18270BD10B504460F2C6B
:1014000000DC03E0AC2133A0FFF7C9F93A4800EB58
:101410004410C08AC0F30E0010BD30B511B10129CF
:1014200030D117E0012B0AD1334C04EB4214A48BCA
:1014300044F00405304C04EB4214A58309E02E4C23
:1014400004EB4214A48B24F004052B4C04EB42144F
:10145000A58318E0012B0AD1274C04EB4214A48B7E
:1014600044F00205244C04EB4214A58309E0224C0D
:1014700004EB4214A48B24F002051F4C04EB42142D
:10148000A58300E000BF00BF30BD10B503460020BB
:1014900011B101290CD100E000BF174C04EB42143C
:1014A000A48B04F080040CB1012000E0002000E0D7
:1014B00000BF00BF10BD10B511B1012907D100E078
:1014C00000BF436A012494402343436200E000BF0D
:1014D00000BF10BD2E2E5C5352435C46574C494210
:1014E0005C444D415C646D612E63000000800040EF
:1014F00000800440001002400090004030B50246D9
:1015000000200021111D0B7803F00F0323B1012BE4
:1015100004D0022B06D103E0FE4804E0FE4802E0BE
:10152000FE4800E000BF00BF137B33B1012B64D045
:10153000022B7DD0032B7CD158E1436D43F0040393
:101540004365436D23F001034365D0F8803023F0F9
:101550000103C0F88030036823F0200303600024F7
:101560000B78C3F3031500F10C0343F835400B78F7
:10157000C3F3031400F10C0353F8343043F0280490
:101580000B78C3F3031500F10C0343F835400B78D7
:10159000C3F30313082B2DD2DFE803F004050E0F6D
:1015A0001819222300BF436E23F004034366436EE1
:1015B00023F0010343661EE000BF436E23F4806303
:1015C0004366436E23F48073436614E000BF436EAA
:1015D00023F480234366436E23F4803343660AE09A
:1015E00000BF436E23F080634366436E23F0807335
:1015F000436600E000BF00BF98E1436D43F0040381
:101600004365436D23F001034365D0F8803023F038
:101610000103C0F88030036843F020030360002416
:101620000B78C3F3031500F10C0343F8354001E0D8
:1016300046E07AE10B78C3F3031400F10C0353F88E
:10164000343043F028040B78C3F3031500F10C0386
:1016500043F835400B78C3F30313082B2DD2DFE892
:1016600003F004050E0F1819222300BF436E23F068
:1016700004034366436E23F0010343661EE000BF8C
:10168000436E23F480634366436E23F480734366A2
:1016900014E000BF436E23F480234366436E23F4BB
:1016A000803343660AE000BF436E23F080634366E5
:1016B000436E23F08073436600E000BF00BF35E156
:1016C000436D43F004034365436D43F001034365F9
:1016D000D0F8803023F00103C0F88030036823F095
:1016E0002003036003238365836D43F080038365D8
:1016F00000240B78C3F3031500F10C0343F83540C5
:101700000B78C3F3031400F10C0353F8343043F0A7
:1017100028040B78C3F3031500F10C0343F835409C
:101720000B78C3F30313082B5DD2DFE803F0040545
:101730001A1B3031464700BF436E23F00403436653
:10174000436E43F001034366436E23F00203436696
:10175000436E43F020034366436E23F01003436659
:1017600042E000BF436E23F480634366436E43F45C
:1017700080734366436E23F400734366436E43F401
:1017800000534366436E23F4805343662CE000BF4E
:10179000436E23F480234366436E43F480334366F1
:1017A000436E23F400334366436E43F400134366F1
:1017B000436E23F48013436616E000BF436E23F0AC
:1017C00080634366436E43F080734366436E23F049
:1017D00000734366436E43F000534366436E23F049
:1017E0008053436600E000BF00BF00BF436D43F07D
:1017F00004034365436D43F001034365D0F8803033
:1018000023F00103C0F88030036823F02003036055
:101810008523836603238365836D43F0800383659B
:1018200000240B78C3F3031500F10C0343F8354093
:101830000B78C3F3031400F10C0353F8343043F076
:1018400028040B78C3F3031500F10C0343F835406B
:101850000B78C3F30313082B64D2DFE803F004050D
:101860001A1B3031464700BF436E23F00403436622
:10187000436E43F001034366436E43F00203436645
:10188000436E43F020034366436E43F01003436608
:1018900049E000BF436E23F480634366436E43F424
:1018A00080734366436E43F400734366436E43F4B0
:1018B00000534366436E43F48053436633E000BFF6
:1018C000436E23F480234366436E43F480334366C0
:1018D000436E43F400334366436E43F400134366A0
:1018E000436E43F4801343661DE000BF436E23F054
:1018F00080634366436E43F080734366436E43F0F8
:1019000000734366436E43F000534366436E43F0F7
:10191000805305E0008003400090034000800B40AE
:10192000436600E000BF00BF00BF00BF00BF30BD86
:101930002DE9F3410C46002700256E46F849009832
:1019400088424CD0F7490098884248D0F649009820
:10195000884244D0F5490098884240D0F449009824
:1019600088423CD0F3490098884238D0F249009828
:10197000884234D0F1490098884230D0F04900982C
:1019800088422CD0EF490098884228D0EE49009830
:10199000884224D0ED490098884220D0EC49009834
:1019A00088421CD0DF4990390098884217D0E94915
:1019B0000098884213D0E849009888420FD0E74940
:1019C000009888420BD0E6490098884207D0E54944
:1019D0000098884203D0E4490098884200D103E08F
:1019E000E521E2A0FEF7DBFE42F21070844200D84F
:1019F00003E0E621DDA0FEF7D2FE307800F00F0014
:101A000020B1012804D0022806D103E0DD4D04E016
:101A1000DD4D02E0DD4D00E000BF00BFA86860437F
:101A200042F21071B0FBF1F73078C0F3031105F109
:101A30000C0000EBC1004760BDE8FC812DE9F047D8
:101A400004460025A846261DB549606888424CD04A
:101A5000B4496068884248D0B3496068884244D03D
:101A6000B2496068884240D0B149606888423CD041
:101A7000B0496068884238D0AF496068884234D045
:101A8000AE496068884230D0AD49606888422CD049
:101A9000AC496068884228D0AB496068884224D04D
:101AA000AA496068884220D0A949606888421CD051
:101AB0009C4990396068884217D0A649606888427E
:101AC00013D0A549606888420FD0A4496068884255
:101AD0000BD0A3496068884207D0A2496068884259
:101AE00003D0A1496068884200D104E040F20711A8
:101AF0009EA0FEF754FE207B40B1207B012805D03C
:101B0000207B022802D0207B032800D104E04FF480
:101B1000847196A0FEF743FE42F21071A0688842DD
:101B200000D804E040F2091190A0FEF738FE3078AA
:101B300000F00F0020B101280AD0022818D10FE0D0
:101B40009348C06B40F080709149C8638D4D10E0A0
:101B50008F48C06B40F000708D49C8638A4D08E023
:101B60008B48006B40F0807089490863874D00E026
:101B700000BF00BF3068C0F38330052831D2DFE8F2
:101B800000F0030C151E2700DFF808828048806BE8
:101B900040F400707E49886323E0DFF8FC817C48D4
:101BA000806B40F480607A4988631AE0DFF8EC814A
:101BB0007748806B40F400607549886311E0DFF876
:101BC000E0817348806B40F480507149886308E07D
:101BD000DFF8D0816E48806B40F400506C49886318
:101BE00000BF00BF3088C0F3052058F8200020F463
:101BF000E0603188C1F3052148F821003088C0F346
:101C0000052058F820003168C1F383414FF4E062A9
:101C100002EA012108433188C1F3052148F8210077
:101C2000614880692168B0FBF1F04FF6FF71B0FBAD
:101C3000F1F0C7B2042F00DB04270121B94020686E
:101C4000484359498969B1FBF0F9286820F0180028
:101C50002860286820F007002860286807F007013E
:101C600041F0080108432860C5F808900020E864A6
:101C70006860814601E009F101094C488145FAD3C9
:101C80002046FFF73BFCD4E90101FFF751FEBDE818
:101C9000F08770B504460D4616463A48844205D092
:101CA0003948844202D03948844200D104E040F2ED
:101CB000E9112EA0FEF773FD0EB1012E00D104E054
:101CC0004FF4F57129A0FEF76AFD0B2D7BD2DFE8FA
:101CD00005F012131415161718197A7A0600012E3A
:101CE00004D1206840F04000206003E0206820F02C
:101CF0004000206068E000BF00BF00BF00BF00BF21
:101D000000BF00BF012E53D104F10C0050F8350084
:101D100040F0400104F10C0040F8351052E052E070
:101D20000081100000030C001082100010040C0051
:101D30002083100020050C003084100040C41000E7
:101D400050C5100050000C0060C6100060010C006F
:101D500070C71000010C0C0001400C00110D0C00AC
:101D600011410C0002520C0012530C002E2E5C5339
:101D700052435C46574C49425C46544D5C66746D18
:101D80002E630000008003400090034000800B4061
:101D9000008004400090044000A0044000B00440D3
:101DA00000C0044000D004402480FF1F801A0600B9
:101DB00004F10C0050F8350020F0400104F10C0053
:101DC00040F8351000E000BF00BF70BD70B505469B
:101DD0000C464C48854205D04B48854202D04B48C2
:101DE000854200D105E040F21721AFF28000FEF7F6
:101DF000D6FC0A2C0FD074B1012C0CD0022C0AD0C6
:101E0000032C08D0042C06D0052C04D0062C02D0BC
:101E1000072C00D004B905E04FF40671AFF2B4000E
:101E2000FEF7BDFC0B2C21D2DFE804F00E0F1011E1
:101E30001213141520200600286800F0800008B155
:101E4000012600E0002611E000BF00BF00BF00BF78
:101E500000BF00BF00BF05F10C0050F8340000F0D7
:101E6000800008B1012600E0002600BF00BF304618
:101E700070BD70B505460C4600262248854205D047
:101E80002148854202D02148854200D105E04FF427
:101E90001171AFF22810FEF782FC0A2C0FD074B13A
:101EA000012C0CD0022C0AD0032C08D0042C06D014
:101EB000052C04D0062C02D0072C00D004B905E074
:101EC00040F24521AFF25C10FEF769FC00BF0B2C1D
:101ED00015D2DFE804F008090A0B0C0D0E0F1414DC
:101EE00006002E680BE000BF00BF00BF00BF00BFB0
:101EF00000BF00BF05F10C0050F8346000BF00BF08
:101F000070BD0000008003400090034000800B4043
:101F100070B5044600260025FE49A068884212D00C
:101F2000FC494031A06888420DD0FA498031A06850
:101F3000884208D0F749C031A068884203D0F649EA
:101F4000A068884200D103E01E21F4A0FEF727FC20
:101F50002088202800DA03E01F21F0A0FEF71FFCF4
:101F6000A07810B1A078012800D103E02021EBA0D7
:101F7000FEF715FCE078B8B1E078012814D0E078DD
:101F8000022811D0E07803280ED0E07808280BD082
:101F9000E078092808D0E0780A2805D0E0780B28F6
:101FA00002D0E0780C2800D103E02121DBA0FEF76D
:101FB000F6FB207904280BD02079052808D0207959
:101FC000062805D02079072802D02079082800D1DA
:101FD00003E02221D1A0FEF7E2FBA668CD498031C3
:101FE000701A8E421BD005DCD348304438B14028EB
:101FF0002DD10CE040281AD0802828D11FE0CF4DE9
:10200000CF48806B40F40070CD49886320E0CD4D0F
:10201000CB48806B40F48060C949886318E0CA4DA2
:10202000C748806B40F40060C549886310E0C74D25
:10203000C348806B40F48050C149886308E0C44DB8
:10204000BF48806B40F40050BD49886300E000BF8A
:1020500000BF208855F8200020F4E060218845F872
:102060002100208855F8200040F48070218845F830
:1020700021002079072802D02079082835D17069FD
:1020800022780121914008437061208855F8200092
:1020900020F00200218845F82100A078012806D10F
:1020A00030682278012191400843306005E03068B3
:1020B000227801219140884330602079072808D197
:1020C000208855F8200040F02000218845F82100A4
:1020D0004DE0207908284AD1208855F8200020F0CA
:1020E0002000218845F8210041E02079042805D00E
:1020F0002079052802D02079062838D17069227805
:1021000001219140884370612079042808D12088FA
:1021100055F8200020F00200218845F8210026E033
:102120002079052810D1208855F8200040F00200C1
:10213000218845F82100208855F8200020F0010072
:10214000218845F8210012E0207906280FD1208847
:1021500055F8200040F00200218845F82100208831
:1021600055F8200040F00100218845F82100208822
:1021700055F8200020F47020218845F8210020889F
:1021800055F82000E1784FF4702202EA014108433B
:10219000218845F8210070BD10B5024600235D4C32
:1021A0008034101BA2420FD005DC6348104438B1C4
:1021B00040280FD106E0402808D080280AD107E047
:1021C0005E4B08E05F4B06E05F4B04E05F4B02E0D4
:1021D0005F4B00E000BF00BFD3F8A00001248C409B
:1021E000204008B1012010BD0020FCE710B50022FE
:1021F000484C8034031BA0421BD005DC4E4B0344EB
:102200003BB1402B2DD10CE0402B1AD0802B28D194
:102210001FE04A4A4A4B9B6B43F40073484CA3634C
:1022200020E0484A464B9B6B43F48063444CA363D5
:1022300018E0454A424B9B6B43F40063404CA36358
:1022400010E0424A3E4B9B6B43F480533C4CA363EB
:1022500008E03F4A3A4B9B6B43F40053384CA3636E
:1022600000E000BF00BFD2F8A03001248C4023431F
:10227000C2F8A03010BD0021C17004210171704767
:1022800070B504460D461646224884420ED02148B9
:10229000403084420AD01F488030844206D01E4815
:1022A0004038844202D01C48844200D103E0BF2160
:1022B0001AA0FEF774FA202D00DA03E0C02117A05F
:1022C000FEF76DFA0EB1012E00D103E0C12113A07B
:1022D000FEF765FA2EB160680121A94008436060ED
:1022E00004E0A0680121A9400843A06070BD70B55A
:1022F00004460D46074884422FD0064840308442A9
:102300002BD004488030844227D003484038844290
:1023100023D01FE000F00F4000F10F402E2E5C5341
:1023200052435C46574C49425C4750494F5C67708A
:10233000696F2E63000000000010F0BF00900440A1
:102340000080044000A0044000B0044000C00440ED
:1023500000D004409148844200D104E0DC21AFF277
:102360004400FEF71CFA202D00DA04E0DD21AFF274
:102370005400FEF714FA60680121A9400843606028
:1023800070BD70B504460D46854884420ED0844821
:10239000403084420AD081488038844206D07F4849
:1023A0004038844202D07D48844200D104E0F021CC
:1023B000AFF29800FEF7F3F9202D00DA04E0F121E6
:1023C000AFF2A800FEF7EBF9A0680121A94008438D
:1023D000A06070BD70B504460D46714884420ED0B1
:1023E0006F48403084420AD06C488038844206D01E
:1023F0006A484038844202D06848844200D105E0EF
:1024000040F20511AFF2EC00FEF7C9F9202D00DA19
:1024100005E04FF48371AFF2FC00FEF7C0F9E0680D
:102420000121A9400843E06070BD70B504460D4627
:102430005B4884420ED05A48403084420AD0574804
:102440008038844206D055484038844202D05348F0
:10245000844200D105E04FF48D71AFF24010FEF7D9
:102460009EF9256070BD70B504460D4600264C48A7
:1024700084420ED04A48403084420AD047488038CF
:10248000844206D045484038844202D043488442C2
:1024900000D105E04FF49771AFF28010FEF77FF99D
:1024A000202D00DA05E040F22F11AFF29010FEF778
:1024B00076F92068E84000F0010008B1012600E04C
:1024C0000026304670BD10B50446354884420ED013
:1024D0003348403084420AD030488038844206D0A5
:1024E0002E484038844202D02C48844200D105E076
:1024F00040F24911AFF2DC10FEF751F9206880B2CA
:1025000010BD70B504460D460026254884420ED005
:102510002348403084420AD020488038844206D084
:102520001E484038844202D01C48844200D105E055
:102530004FF4AF71AFF21C20FEF731F9202D00DA15
:1025400005E040F25F11AFF22C20FEF728F9206978
:10255000E84000F0010008B1012600E00026304606
:1025600070BD10B504460E4884420ED00C48403071
:1025700084420AD009488038844206D0074840384F
:10258000844202D00548844200D105E040F279112E
:10259000AFF27820FEF703F9206910BD00F10F407B
:1025A00000F00F4070B504460025207840B1207837
:1025B000012805D02078022802D02078032800D1F5
:1025C00003E0152191A0FEF7EAF8FEF7D9F9954846
:1025D00080694FF47A71B0FBF1F0616800FB01F59E
:1025E0009148C06B40F400008F49C8638F48006871
:1025F00020F002008D4908600846006840F00100A4
:1026000008608B48217800EB01100560884821782C
:1026100000EB0110C06840F001018548227800EB12
:102620000210C1608248217800EB0110806840F000
:1026300001017F48227800EB0210816070BD10B567
:1026400004462CB1012C03D0022C01D0032C00D164
:1026500003E030216DA0FEF7A2F8754800EB0410EE
:10266000006810BD10B504462CB1012C03D0022C1B
:1026700001D0032C00D103E0412164A0FEF78FF8C4
:102680006B4800EB0410406810BD70B504460D4661
:102690002CB1012C03D0022C01D0032C00D103E07B
:1026A00053215AA0FEF77BF8614800EB0410056047
:1026B00070BD10B504462CB1012C03D0022C01D002
:1026C000032C00D103E0642150A0FEF768F85848BD
:1026D00000EB0410806840F00101554800EB041045
:1026E000816010BD10B504462CB1012C03D0022C22
:1026F00001D0032C00D103E0752144A0FEF74FF870
:102700004B4800EB0410806820F00101484800EBC2
:102710000410816010BD70B504460E46154606B91A
:1027200003E08B2139A0FEF73AF82CB1012C03D03D
:10273000022C01D0032C00D103E08C2133A0FEF742
:102740002EF80DB1012D00D103E08D212FA0FEF751
:1027500026F8B6B9012D0AD1354800EB041080687F
:1027600040F00201324800EB0410816009E030487B
:1027700000EB0410806820F002012D4800EB0410EB
:10278000816070BD70B504460D4605B903E0A32114
:102790001EA0FEF704F82CB1012C03D0022C01D0AE
:1027A000032C00D103E0A42118A0FDF7F8FF55B9D0
:1027B0001F4800EB0410C06800F0010008B10120C0
:1027C00070BD0020FCE70020FAE770B504460D4616
:1027D00005B903E0C2210DA0FDF7E1FF2CB1012CEA
:1027E00003D0022C01D0032C00D103E0C32107A0A9
:1027F000FDF7D5FF0E4800EB0410C06840F0010162
:102800000B4800EB0410C16070BD00002E2E5C531D
:1028100052435C46574C49425C5049545C70697461
:102820002E6300002480FF1F0080044000700340DE
:1028300000710340FA4800E0401C00F00F02002A3B
:10284000FAD1F84A1060F84800E0401C00F00F028E
:10285000002AFAD1F54A10600022F24B1B685A8018
:10286000F04B1B681A801822EE4B1B689A60F048E8
:1028700000E0401C00F00F02002AFAD1002121E004
:102880008022EA4B1B6803EB41131A800022E74BBE
:102890001B6803EB41135A8002BAE44B1B6803EB3D
:1028A00041135A6000F5BE600022E04B1B6803EB49
:1028B00041131A614FF40042DC4B1B6803EB4113D8
:1028C0009A60491C0829DBD3D84A1268B2F8E02084
:1028D00042F02002D54B1B68A3F8E0200022D54B24
:1028E0001A60704770B503464FF0FF31002212E0C6
:1028F0009C5C00250CE004F0010001F00106704032
:1029000018B14908CC48414000E0490864106D1CEA
:10291000082DF0DB521C062AEADB880E70BD30B5AC
:10292000044620780006617840EA0140A17840EA38
:102930000120E1780843C1490860207900066179E7
:1029400040EA0140BD49E439C1F8E8002046FFF7FC
:10295000C9FF0546202D0CDBB84834300068A5F1CE
:10296000200101228A401043B449E439C1F818011A
:1029700009E0B248383000680121A9400843AF4956
:10298000E439C1F81C0130BD30B503460C464FF4A4
:102990000000AA4DE43D68604FF0786000EAC35043
:1029A00040F0C0404FF4F80505EA8445284340F460
:1029B0000030A24DE43D2864002107E09F48E43840
:1029C000406800F4000000B103E0491C9C488142CB
:1029D000F4D300BF9A48814201D1012030BD4FF4A9
:1029E0000000964DE43D68602846006C1080002091
:1029F000F4E730B503460C464FF400008F4DE43D3C
:102A000068604FF0786000EAC35040F0A0404FF497
:102A1000F80505EA8445284340F4003095B2284380
:102A2000864DE43D2864002107E08448E43840688E
:102A300000F4000000B103E0491C81488142F4D356
:102A400000BF7F48814201D1012030BD4FF400001A
:102A50007A4DE43D68600020F7E710B5FDF790FF80
:102A6000784880694FF47A71B0FBF1F0B0FBF1F077
:102A7000C4B26000052190FBF1F0401C7E2101EA08
:102A800040006E49E439486410BD38B5054600245D
:102A90006D48C06A40F001006B49C86200206B4974
:102AA0000860FFF7C7FE6848806B40F40070664915
:102AB00088630846806B40F4806088630846806BBA
:102AC00040F4006088630846806B40F4805088635F
:102AD0000846806B40F4005088635D48407820F0E1
:102AE00004005B49487001205449E43948620020E1
:102AF000009004E0BDF80000401C80B20090BDF8DA
:102B000000006428F6DBFFF7A8FF4C2000F0FFF977
:102B10004D2000F0FCF94E2000F0F9F94FF48060F0
:102B20004C49086048604C49086348638863C8633F
:102B30000864486400BF0A20FEF7F5FA601C84B2FE
:102B4000B4F5FA7F01DD012038BD4FF6FF7000902B
:102B50006A4602210120FFF717FFBDF800004FF67B
:102B6000FF718842E7D0BDF800103CA000F023FDC3
:102B70006A4603210120FFF707FFBDF800103CA0C3
:102B800000F019FD6A4605210120FFF7FDFEBDF8A2
:102B900000103CA000F00FFD6A4605210120FFF760
:102BA000F3FEBDF800103CA000F005FD6A461021C0
:102BB0000120FFF7E9FEBDF800103CA000F0FBFC8F
:102BC0006A4611210120FFF7DFFEBDF800103CA08E
:102BD00000F0F1FC6A4612210120FFF7D5FEBDF896
:102BE00000103BA000F0E7FC4FF4905200210120C0
:102BF000FFF7FFFE6A4600210120FFF7C5FEBDF882
:102C0000001037A000F0D7FC00BF0A20FEF78BFAB7
:102C1000601C84B2B4F5FA7F6ADD012094E767E0B6
:102C20004880FF1F1080FF1F7880FF1F1480FF1F48
:102C30008881FF1F1880FF1F2083B8EDE4000C403F
:102C4000FFFF01002480FF1F0080044000D00040EF
:102C50000040064000A00440009004405048595FE6
:102C6000504859494452313D307825580D0A0000EA
:102C70005048595F504859494452323D30782558A0
:102C80000D0A00005048595F414E4C5041523D30B2
:102C90007825580D0A0000005048595F414E4C50AD
:102CA00041524E503D307825580D0A005048595F2A
:102CB0005048595354533D307825580D0A000000B0
:102CC0005048595F4D4943523D307825580D0A0010
:102CD0005048595F4D4953523D307825580D0A00F0
:102CE0005048595F424D43523D307825580D0A00F7
:102CF0006A4601210846FFF747FEBDF8000000F0D4
:102D00002000002881D0002000906A461F21012069
:102D1000FFF73AFE0020834908608349C1F8180193
:102D2000804908310860091F08602868FFF7F7FD2F
:102D30007E487D498431086000207B49C1F8C40089
:102D4000BDF8000000F0100088B1774884300068BA
:102D500020F00200C1F884000846D0F8C40040F01A
:102D60000400C1F8C40072A000F025FC11E06E4818
:102D70008430006840F002006B49C1F884000846C6
:102D8000D0F8C40020F00400C1F8C4006BA000F02B
:102D900012FCBDF8000000F0040038B16248843035
:102DA000006840F400706049C1F8840010205E495A
:102DB00048624FF4F8505B496C3108606248006823
:102DC0005949C1F880016148006856496831086076
:102DD0004FF0FF30544948605D4888600846406ABB
:102DE00040F0020048624FF0807008610020ABE6BE
:102DF00008B5002000906A4601210846FFF7C4FD8F
:102E0000BDF8000000F0040008B1012008BD00205A
:102E1000FCE770B504460D4600BF4C4800680078DA
:102E200000F080000028F8D120BA484909684860BD
:102E30002846FDF73BFB4549096848800020434987
:102E4000096808616020414909688860AC203F49F1
:102E5000096808804FF080703349486170BD70B5D3
:102E60000446002500BF384800683A49096800EB6D
:102E70004110007800F08000A0BB33490968354A52
:102E8000126801EB42114888FDF710FB85B22E480D
:102E90000068304A126800EB4210406801BA2A46C6
:102EA000204601F01BF9284800682A49096800EB10
:102EB0004110008840F0800023490968254A1268C3
:102EC00001EB4211088023480068401C214908603A
:102ED00008460068082801D3002008604FF0807081
:102EE00011490861284670BD0F48406840F00060F5
:102EF0000D49486070470C48406840F000700A492E
:102F00004860704710B514A000F055FB10BD00F0EC
:102F10001F02012191404209920002F1E022C2F811
:102F2000001170471C010C4000000C400441F005EA
:102F3000C8ABCBABB9A40D0A00000000B0EBCBAB23
:102F4000B9A40D0A000000001480FF1F1080FF1FAD
:102F50000000786B1880FF1FD2D4CCABCDF8B4ED55
:102F6000CEF30D0A000000002DE9F04705460024CD
:102F7000002700262E1D44F210416868884230D098
:102F8000F949686888422CD0F8496868884228D096
:102F9000F7496868884224D040F21931686888424D
:102FA0001FD04CF69901686888421AD048F2DA615D
:102FB0006868884215D0EF496868884211D0EB49AB
:102FC0004331686888420CD0EB496868884208D071
:102FD000EA496868884204D0E349843168688842D5
:102FE00000D103E04021E6A0FDF7D9FB307800F0E6
:102FF000070005282CD2DFE800F0030B131B230089
:10300000E648406B40F48060E4494863E44C21E0CA
:10301000E248406B40F40060E0494863E14C19E04D
:10302000DE48406B40F48050DC494863DE4C11E0E0
:10303000DA48406B40F40050D8494863DB4C09E063
:10304000D648806A40F48060D4498862D84C01E058
:10305000002400BF00BF3088C0F3821005282CD2A6
:10306000DFE800F0030B131B2300CC48806B40F417
:103070000070CA498863CF4F20E0C848806B40F495
:103080008060C6498863CC4F18E0C448806B40F428
:103090000060C2498863C94F10E0C048806B40F4AB
:1030A0008050BE498863C64F08E0BC48806B40F43E
:1030B0000050BA498863C34F00E000BF00BF3068CA
:1030C000C0F3843057F8200020F4E0603168C1F389
:1030D000843147F821003068C0F3843057F820006D
:1030E0003178C1F3C2014FF4E06202EA01210843E2
:1030F0003168C1F3843147F821003088C0F344209F
:1031000057F8200020F4E0603188C1F3442147F8EB
:1031100021003088C0F3442057F820003178C1F3F3
:10312000C20102EA012108433188C1F3442147F872
:103130002100FDF725FCA448D0F818909848844257
:1031400002D09848844202D19F48D0F81490286851
:103150000001B9FBF0F01FFA80F84FEA4900296836
:10316000B0FBF1F0A0EB481000F0FF0A2078C8F3A4
:1031700004210843207084F80180A07A0AF01F011E
:103180000843A072E07820F00C00E070A07820F0F6
:103190001000A070A07820F00200A070607920F0EC
:1031A00020006071E07840F00C00E07080208749DA
:1031B000A1F88400BDE8F08733B583B00C4603ADB9
:1031C000019403980290287800F00700052818D28F
:1031D000DFE800F003070B0F130071487C4908601B
:1031E00013E070487A4908600FE06F48784908603A
:1031F0000BE06E487649086007E06D487449086046
:1032000003E000207249086000BF00BF01A8FFF77B
:10321000ABFE05B030BD70B504460E46154660489D
:1032200084420BD05F48844208D05F48844205D076
:103230005E48844202D05E48844200D103E0A2216D
:103240004FA0FDF7ACFA2EB1012E03D0022E01D013
:10325000032E00D103E0A32149A0FDF7A0FA0DB190
:10326000012D00D103E0A42145A0FDF798FA36B165
:10327000012E10D0022E1AD0032E30D123E0012DC2
:1032800004D1E07840F08000E07003E0E07820F0C6
:103290008000E07024E0012D04D1E07840F040008F
:1032A000E07003E0E07820F04000E07018E0012DCD
:1032B00004D1E07840F02000E07003E0E07820F0F6
:1032C0002000E0700CE0012D04D1E07840F0100007
:1032D000E07003E0E07820F01000E07000E000BF54
:1032E00000BF70BD70B504460E462D4884420BD019
:1032F0002C48844208D02C48844205D02B48844274
:1033000002D02B48844200D103E0C7211CA0FDF766
:1033100046FA2EB1012E03D0022E01D0032E00D189
:1033200003E0C82116A0FDF73AFA36B1012E0CD001
:10333000022E12D0032E57D14EE0207900F08000EB
:1033400008B1012500E000254FE0207900F04000A1
:1033500008B1012500E0002547E0207900F02000B9
:1033600008B1012537E035E0189E0300582204001B
:10337000D88E01005B9602001B0B01001C33060077
:103380002E2E5C5352435C46574C49425C55415289
:10339000545C756172742E6300000000008004406C
:1033A00000A0064000B0064000C0064000D0064025
:1033B00000A00E400090044000A0044000B0044073
:1033C00000C0044000D004402480FF1F18B1FF1F3C
:1033D0001C80FF1F002508E0207900F0100008B1D4
:1033E000012500E0002500E000BF00BF284670BDB9
:1033F00000BF027902F08002002AFAD0C171704742
:1034000070B504460E461546D94884420BD0D948BB
:10341000844208D0D848844205D0D848844202D09B
:10342000D748844200D105E040F20111AFF2B0006C
:10343000FDF7B5F92A463146D24800F04FFED14893
:1034400080F880500020CF4981F8810081F8820007
:10345000E07A20F08000E072E07840F08000E070D8
:1034600070BD70B504460D4616462DB1012D03D032
:10347000022D01D0032D00D105E040F22111AFF261
:103480000010FDF78CF9BA4884420BD0B948844249
:1034900008D0B948844205D0B848844202D0B84820
:1034A000844200D105E04FF49171AFF22C10FDF78A
:1034B00076F90EB1012E00D105E040F22311AFF2F2
:1034C0004010FDF76CF915B1012D18D10BE0012E5C
:1034D00004D1E07A40F08000E07203E0E07A20F06E
:1034E0008000E0720CE0012E04D1E07A40F0200070
:1034F000E07203E0E07A20F02000E07200E000BF1C
:1035000000BF70BD017901F0800119B3C17801F0ED
:103510008001F9B19B4991F88210D9B9994991F884
:10352000812091F88110491C964B83F8811019462F
:10353000895CC171194691F881101A4692F8802071
:10354000914207DB01211A4682F88210C17821F0EE
:103550008001C17070470246107900F0200018B158
:10356000D0790870012070470020FCE700B50346C1
:1035700005E0197884480068FFF73AFF5B1C18786B
:103580000028F6D100BDF0B504460D46B4FBF5F0B9
:1035900028B1B4FBF5F629463046FFF7F4FFB4FB3B
:1035A000F5F005FB104779480068C15D7648006872
:1035B000FFF71EFFF0BD0FB470B505AD00BF08E00A
:1035C00014B970BC5DF814FB21466F480068FFF722
:1035D0000FFF049810F8011B0C4604902529EFD129
:1035E000049810F8014B0490642C01D06C2C03D18A
:1035F0000A212868FFF7C7FF6F2C01D0782C08D16B
:103600006F2C01D1082200E0102211462868FFF734
:10361000BAFF732C02D12868FFF7A8FF2D1DCEE753
:1036200070B5FDF724FD0446214659A0FFF7C3FFFE
:103630005D4840780A282AD2DFE800F02905090D04
:103640001115191D212559A0FFF7B5FF1FE05CA03A
:10365000FFF7B1FF1BE061A0FFF7ADFF17E063A02C
:10366000FFF7A9FF13E066A0FFF7A5FF0FE06AA030
:10367000FFF7A1FF0BE06EA0FFF79DFF07E072A030
:10368000FFF799FF03E077A0FFF795FF00BF00BFAA
:103690004548007828281AD006DC0A280BD01428C0
:1036A0000DD01E2823D10EE0322814D0352816D094
:1036B0003C281CD117E06FA0FFF77DFF1BE071A035
:1036C000FFF779FF17E073A0FFF775FF13E075A010
:1036D000FFF771FF0FE077A0FFF76DFF0BE079A018
:1036E000FFF769FF07E07BA0FFF765FF03E07DA020
:1036F000FFF761FF00BF00BF2B48818883A0FFF761
:103700005AFF294880780A2190FBF1F201FB12044C
:103710002548807890FBF1F5224629467EA0FFF7E8
:103720004AFF21488068810A81A0FFF744FF1E48B4
:10373000C068810A83A0FFF73EFF1B480069810A29
:1037400086A0FFF738FF1848416989A0FFF733FFCB
:10375000154881698BA0FFF72EFF1348C1698EA021
:10376000FFF729FF1048016A91A0FFF724FF70BD01
:1037700000A0064000B0064000C0064000D0064051
:1037800000A00E4018B1FF1F1C80FF1F2080FF1FEC
:1037900043485F4B36302046575F56657273696FFA
:1037A0006E3A25640D0A00002480FF1F536F667473
:1037B000776172652052657365740D0A0000000020
:1037C000436F7265204C6F636B7570204576656E34
:1037D000742052657365740D0A0000004A54414715
:1037E0002052657365740D0A00000000506F776504
:1037F000722D6F6E2052657365740D0A0000000013
:1038000045787465726E616C2050696E20526573E4
:1038100065740D0A000000005761746368646F6787
:1038200028434F50292052657365740D0A0000002B
:103830004C6F7373206F6620436C6F636B2052650F
:103840007365740D0A0000004C6F772D766F6C74F1
:10385000616765204465746563742052657365749F
:103860000D0A00004C4C57552052657365740D0AC3
:103870000000000046616D696C793A4B31300D0AE9
:103880000000000046616D696C793A4B32300D0AD8
:103890000000000046616D696C793A4B33300D0AC7
:1038A0000000000046616D696C793A4B34300D0AB6
:1038B0000000000046616D696C793A4B35300D0AA5
:1038C0000000000046616D696C793A4B35330D0A92
:1038D0000000000046616D696C793A4B36300D0A84
:1038E000000000000A556E7265636F676E697A6545
:1038F00064204B696E657469732066616D696C79CB
:10390000206465766963652E0A00000050696E4385
:103910006E743A25640D0A0053696C69636F6E52C8
:10392000657649443A25642E25640D0A000000009E
:1039300050466C6173682053697A653A2025644B60
:10394000420D0A00466C65784E564D2053697A65E3
:103950003A2025644B420D0A0000000052414D20E0
:1039600053697A65203A25644B420D0A0000000035
:10397000436F7265436C6F636B3A202564487A0D20
:103980000A000000427573436C6F636B3A20256434
:10399000487A0D0A00000000466C65784275734352
:1039A0006C6F636B3A202564487A0D0A00000000B2
:1039B000466C617368436C6F636B3A202564487A88
:1039C0000D0A00000821F74A126842F00072F64B17
:1039D000C3F804211A46D2F8082142F08052C3F8F5
:1039E000082122E000F080023AB1EE4A126842F06B
:1039F0000062ED4BC3F8042107E0EA4A121D126889
:103A000042F00062E84BC3F80821E64A126842F02F
:103A10008052E54BC3F804211A46D2F8082142F03F
:103A20008052C3F808214206100E0A00A1F10103DA
:103A3000D9B2D7D170470821DA4A121D126842F074
:103A40000072D94BC3F808211A46D2F8082142F077
:103A50008052C3F8082122E000F080023AB1D14A36
:103A6000126842F00062D04BC3F8042107E0CD4A4F
:103A7000121D126842F00062CB4BC3F80821C94AFC
:103A8000126842F08052C84BC3F804211A46D2F89B
:103A9000082142F08052C3F808214206100E0A00A5
:103AA000A1F10103D9B2D7D1704730B504460D4614
:103AB00005F1B001C8B2FFF7BEFF102141EA1410B2
:103AC000FFF7B9FF04F00F0141F00100FFF7B3FF6A
:103AD00030BD30B5002415E004F1B001C8B2FFF7E5
:103AE000AAFF0120FFF7A7FF1020FFF7A4FF002582
:103AF00004E00020FFF766FF681CC5B2802DF8DBEC
:103B0000601CC4B2082CE7DB30BD09E043F226415B
:103B100000BF0A00A1F1010399B2FAD1421E90B28E
:103B20000028F3D170473EB505460C4602950120AA
:103B30008DF8020000208DF80300ADF80040082049
:103B40008DF804006846FEF7E3F93EBD10B51C2170
:103B50009448001FFFF7E7FF1B219248001FFFF763
:103B6000E2FF1A218F48001FFFF7DDFF19218D4862
:103B7000001FFFF7D8FF8B48006840F080508A494B
:103B8000C1F804010846D0F8080140F08060C1F88F
:103B900008013220FFF7B9FF8348D0F8040140F054
:103BA00080608149C1F80401AE20FFF744FFD520B1
:103BB000FFF741FF8020FFF73EFFA820FFF73BFF04
:103BC0003F20FFF738FFD320FFF735FF0020FFF736
:103BD00032FF4020FFF72FFF8D20FFF72CFF14202E
:103BE000FFF729FF2020FFF726FF0220FFF723FF22
:103BF000A120FFF720FFC820FFF71DFFDA20FFF705
:103C00001AFF1220FFF717FF8120FFF714FFCF20C4
:103C1000FFF711FFD920FFF70EFFF120FFF70BFF91
:103C2000DB20FFF708FF4020FFF705FFA420FFF788
:103C300002FFA620FFF7FFFEAF20FFF7FCFEFFF715
:103C400048FF00210846FFF730FF10BDF0B50646DB
:103C50000F461446412C05DB5A2C03DCA4F1370037
:103C6000C4B20EE1612C05DB7A2C03DCA4F1350033
:103C7000C4B206E1202C01D1242402E13A2C01D166
:103C80002524FEE02D2C01D12624FAE02F2C01D191
:103C90002724F6E02E2C01D12824F2E02C2C01D18F
:103CA0002924EEE07E2C01D12A24EAE0802C01D1E7
:103CB0004824E6E0812C01D14924E2E0822C01D1A4
:103CC0004A24DEE0832C01D14B24DAE0842C01D19C
:103CD0004C24D6E0852C01D14D24D2E0862C01D194
:103CE0004E24CEE0872C01D14F24CAE0882C01D18C
:103CF0005024C6E0892C01D15124C2E08A2C01D184
:103D00005224BEE08B2C01D15324BAE08C2C01D17B
:103D10005424B6E08D2C01D15524B2E08E2C01D173
:103D20005624AEE08F2C01D15724AAE0902C01D16B
:103D30005824A6E0912C01D15924A2E0922C01D163
:103D40005A249EE0932C01D15B249AE0942C01D15B
:103D50005C2496E0952C01D15D2492E0962C01D153
:103D60005E248EE0972C01D15F248AE0982C01D14B
:103D7000602486E0992C01D1612482E09A2C01D143
:103D800062247EE09B2C01D163247AE09C2C01D13B
:103D9000642476E09D2C01D1652472E09E2C05D12F
:103DA00066246EE004F10F4000F00F409F2C01D11B
:103DB000672466E0A02C01D1682462E0A12C01D127
:103DC00069245EE0A22C01D16A245AE0A32C01D11F
:103DD0006B2456E0A42C01D16C2452E0A52C01D117
:103DE0006D244EE0A62C01D16E244AE0A72C01D10F
:103DF0006F2446E0A82C01D1702442E0A92C01D107
:103E000071243EE0AA2C01D172243AE0AB2C01D1FE
:103E1000732436E0AC2C01D1742432E0AD2C01D1F6
:103E200075242EE0AE2C01D176242AE0AF2C01D1EE
:103E3000772426E0B02C01D1782422E0B12C01D1E6
:103E400079241EE0B22C01D17A241AE0B32C01D1DE
:103E50007B2416E0B42C01D17C2412E0B52C01D1D6
:103E60007D240EE0B62C01D17E240AE0B72C01D1CE
:103E70007F2406E0B82C01D1802402E0B92C00D1C7
:103E80008124782E02DD0026781CC7B2F106080EC8
:103E90003946FFF70AFE002507E005EB04118E4ABC
:103EA000505CFFF78FFD681CC5B2082DF5DB7A1C4E
:103EB000D1B2F206100EFFF7F8FD002508E005EB81
:103EC00004110831844A505CFFF77CFD681CC5B2C0
:103ED000082DF4DBF0BD2DE9F04104460E46904676
:103EE000002511E029460020FFF7DFFD002707E04D
:103EF00005FB067118F80100FFF764FD781CC7B2D6
:103F0000B742F5DB681CC5B2E11704EB5171B5EBA4
:103F1000E10FE7DBBDE8F081F0B506460F46154638
:103F2000002407E02A5D3119C8B23946FFF78EFE3A
:103F3000601CC4B2285D0028F4D1F0BDF0B5054680
:103F40000E461446642094FBF0F0C7B23A46314660
:103F50002846FFF77BFE642094FBF0F100FB114044
:103F60000A2190FBF1F0C7B2691CC8B23A4631464B
:103F7000FFF76CFE0A2094FBF0F100FB1140C7B282
:103F8000A91CC8B23A463146FFF760FEF0BDF0B555
:103F900005460E4614464FF47A7094FBF0F0C7B213
:103FA0003A4631462846FFF751FE4FF47A7094FBAB
:103FB000F0F100FB1140642190FBF1F0C7B2691CE5
:103FC000C8B23A463146FFF741FE642094FBF0F157
:103FD00000FB11400A2190FBF1F0C7B2A91CC8B246
:103FE0003A463146FFF732FE0A2094FBF0F100FB1F
:103FF0001140C7B2E91CC8B23A463146FFF726FE67
:10400000F0BDF0B505460E46144642F2107094FB22
:10401000F0F0C7B23A4631462846FFF717FE42F2A3
:10402000107094FBF0F100FB11404FF47A7190FB9B
:10403000F1F0C7B2691CC8B23A463146FFF706FE36
:104040004FF47A7094FBF0F100FB1140642190FB77
:10405000F1F0C7B2A91CC8B23A463146FFF7F6FDE7
:10406000642094FBF0F100FB11400A2190FBF1F079
:10407000C7B2E91CC8B23A463146FFF7E7FD0A204D
:1040800094FBF0F100FB1140C7B2291DC8B23A46BB
:104090003146FFF7DBFDF0BDF0B505460E46144690
:1040A000642094FBF0F100FB11400A2190FBF1F039
:1040B000C7B23A4631462846FFF7C8FD0A2094FBAE
:1040C000F0F100FB1140C7B2691CC8B23A46314654
:1040D000FFF7BCFDF0BD00003E420000032A40F2A5
:1040E000308010F0030C00F0158011F8013BBCF19A
:1040F000020F624498BF11F801CB00F8013B38BFB2
:1041000011F8013BA2F1040298BF00F801CB38BFBF
:1041100000F8013B11F0030300F02880083AC0F0DA
:10412000088051F8043B083A51F804CBA0E8081085
:10413000F5E7121D5CBF51F8043B40F8043BAFF3B8
:104140000080D20724BF11F8013B11F801CB48BF12
:1041500011F8012B24BF00F8013B00F801CB48BF48
:1041600000F8012B704770477047704710B5203A30
:10417000C0F00B80B1E81850203AA0E81850B1E820
:104180001850A0E81850BFF4F5AF5FEA027C24BFD6
:10419000B1E81850A0E8185044BF18C918C0BDE8CD
:1041A00010405FEA827C24BF51F8043B40F8043B96
:1041B00008BF7047D20728BF31F8023B48BF11F84B
:1041C000012B28BF20F8023B48BF00F8012B7047A5
:1041D000754600F029F8AE4605006946534620F0C2
:1041E0000700854618B020B5FCF740FABDE820402E
:1041F0004FF000064FF000074FF000084FF0000BA3
:1042000021F00701AC46ACE8C009ACE8C009ACE855
:10421000C009ACE8C0098D4670470446AFF3008082
:104220002046FCF73CF9000000487047A0B1FF1F92
:1042300001491820ABBEFEE726000200704700E0EF
:1042400010080810E000000F102020100F000010D0
:1042500010F8000000000020203F20200000007027
:10426000080808887000003028242221300000301F
:104270000888884830000018202020110E00000017
:10428000C02010F8000000070424243F240000F898
:104290000888880808000019212020110E0000E07D
:1042A000108888180000000F112020110E0000381F
:1042B0000808C83808000000003F00000000007037
:1042C000880808887000001C222121221C0000E0C0
:1042D00010080810E0000000312222110F00000039
:1042E000C038E0000000203C23020227382008F8F4
:1042F000888888700000203F202020110E00C030E8
:10430000080808083800071820202010080008F8BE
:1043100008080810E000203F202020100F0008F8B7
:104320008888E8081000203F20202320180008F883
:104330008888E8081000203F200003000000C030FB
:1043400008080838000007182020221E020008F87C
:1043500008000008F808203F210101213F20000843
:1043600008F8080800000020203F2020000000007E
:104370000808F8080800C08080807F00000008F866
:1043800088C028180800203F20012638200008F89F
:10439000080000000000203F20202020300008F806
:1043A000F800F8F80800203F003F003F200008F820
:1043B00030C00008F808203F200007183F00E01038
:1043C00008080810E0000F10202020100F0008F847
:1043D00008080808F000203F210101010000E0105A
:1043E00008080810E0000F18242438504F0008F87F
:1043F000888888887000203F2000030C30200070DF
:104400008808080838000038202121221C001808DC
:1044100008F8080818000000203F2000000008F8F5
:1044200008000008F808001F202020201F0008783E
:10443000880000C83808000007380E010000F8089E
:1044400000F80008F800033C0700073C03000818C8
:1044500068808068180820302C03032C302008382E
:10446000C800C83808000000203F200000001008E5
:104470000808C8380800203826212020180000002D
:10448000000000000000000000000000000000002C
:1044900000C0C0000000000000303000000000003C
:1044A0000000000000000001010101010101000005
:1044B0000000806018040060180601000000000081
:1044C000000000000000003030000000000000008C
:1044D00000000000000080B0700000000000000636
:1044E00001010202040400000000000000000000BE
:1044F00000002040800000010101090503010000C7
:104500008080808000000019242222223F2008F8A9
:10451000008080000000003F112020110E000000EC
:10452000008080800000000E11202020110000007B
:1045300000808088F800000E112020103F2000002D
:10454000808080800000001F222222221300008031
:1045500080F0888888180020203F2020000000007C
:10456000808080808000006B94949493600008F8B1
:10457000008080800000203F210000203F2000803C
:104580009898000000000020203F2020000000003C
:1045900000809898000000C08080807F000008F8AC
:1045A000000080808000203F24022D302000000881
:1045B00008F8000000000020203F2020000080803C
:1045C000808080808000203F20003F20003F80804E
:1045D000008080800000203F210000203F2000005C
:1045E000808080800000001F202020201F0080800D
:1045F00000808000000080FFA12020110E0000003C
:10460000008080808000000E112020A0FF8080802C
:1046100080008080800020203F21200001000000D9
:1046200080808080800000332424242419000080AE
:1046300080E0808000000000001F202000008080BB
:10464000000000808000001F202020103F2080807C
:1046500080000080808000010E300806010080800C
:104660000080008080800F300C030C300F00008031
:104670008000808080000020312E0E31200080805C
:1046800080000080808080818E701806010000808C
:104690008080808080000021302C222130000000AA
:1046A00080402010080000010204081020000008CB
:1046B00010204080000000201008040201009088B3
:1046C00087FC848480028060180708300040F21262
:1046D000121212F2020045594141514D4000008032
:1046E00060F807000424010000FF000000F9242501
:1046F0002624242404004949494949F900000000BE
:10470000F888888888FF00001F080808087F8888C4
:104710008888F8000000888888889F80F0004040E2
:1047200042CC000020240000007F201000FE242442
:10473000FE22232220004242434242FE000040402B
:1047400042CC0040A09E0000003F908840438282FF
:10475000829EA02020002C10284641808000001757
:1047600015D55557557D4040407F555555555557A2
:1047700055D5151700005555557F40404000106035
:10478000028C0008F94E04047E8140300F40C8209E
:10479000584F48C808007F0044847F040400000884
:1047A000488808C838400020100C03041880404096
:1047B000FF2022AC2000402017182641F000404086
:1047C00042CC004040400000007F2010000040FF2D
:1047D00040404040400000FF00000000000000FC9E
:1047E000848484FC0010003F1010103F0000101063
:1047F0001010FF101000010640807F000000808034
:104800009E9292929EE00808F4949292F100809E0B
:10481000B2D2929E800001F2929494F80800202077
:1048200024242424BF64100804023F454444243453
:10483000282422202000424242417800000000103B
:104840001292929292920000003F10101010921259
:104850001202FE0000003F0040807F0000001010A8
:10486000D0FF901000FE040300FF0083601F0202CF
:1048700002FE000000000000003F404078000010F1
:104880001010FF101010028242320F0202021010AC
:10489000FF10101000000202FF02020202008082DC
:1048A0008282828282E2000000000040807FA29229
:1048B0008A86828080000000000000000000101046
:1048C000D0FF901004FF040300FF0009884F242448
:1048D0002424FF040000290909294F880800040442
:1048E00044C44F4444C440442424150C04FE2424EE
:1048F0002FB424040400040C1524244440000000B8
:10490000F8494A4C48F810101312121212FF484C82
:104910004A49F8000000121212121310100080828F
:104920008282FE828282008040300F0000008282FC
:10493000FE82828280000000FF0000000000101054
:10494000F01F10F000404022150816210000E0582A
:1049500047405060C000FE42424242FE00004040DC
:1049600042CC0000FF490040201F20405F4849C959
:1049700049497F80000044404142455840000000C2
:104980007C40404040FF007C40404040407F4040F1
:104990004040FC0000004040404040FC000020201F
:1049A0001010282422290080809F4141211DB264DB
:1049B0002810102020000121215F4080000000FC11
:1049C0000404FC20104C000F04040F0030484B4836
:1049D0004848C8080800444242414040700000F87E
:1049E00008FF08F820182063211F11193000C8089B
:1049F000090E882818003F4442414040780002E2F6
:104A000022223E0000F9004382423E0010134A4C2D
:104A1000F84C4AF900001212FF121213100004841D
:104A200084FC848410502060201F10101008901007
:104A3000FF901116900045827F01060910000000CA
:104A400030313233343536373839414243444546C4
:104A500000000000744A00000080FF1F24000000D6
:104A60004C040000984A00002480FF1FDC35000041
:104A70006804000000008002000000000000000048
:104A80000000000000000000000000000000000026
:084A900000000000404A000094
:0400000500000411E2
:00000001FF
